:100000000C940B030C9428030C9428030C942803E1
:100010000C943F0F0C94680F0C94910F0C94BA0F32
:100020000C9428030C94200E0C94490E0C94720E20
:100030000C94ED0E0C949B0E0C94C40E0C94160FA5
:100040000C94A50D0C94CE0D0C94F70D0C94280374
:100050000C9428030C9428030C9428030C94280374
:100060000C9428030C9428030C9428030C94280364
:100070000C94D5150C9428030C942803076342367E
:10008000B79BD8A71A39685618AEBAAB558C1D3C29
:10009000B7CC5763BD6DEDFD753EF6177231BF00ED
:1000A0000000803F08000000BE922449123EABAA27
:1000B000AA2ABECDCCCC4C3E00000080BEABAAAA82
:1000C000AA3E00000000BF000000803F00000000CA
:1000D00000084178D3BB4387D1133D190E3CC3BD03
:1000E0004282AD2B3E68EC8276BED98FE1A93E4CB0
:1000F00080EFFFBE01C4FF7F3F00000000006E6183
:100100006E00696E660000407A10F35A00A0724ECD
:1001100018090010A5D4E80000E87648170000E4AC
:100120000B54020000CA9A3B000000E1F5050000F4
:1001300080969800000040420F000000A086010059
:100140000000102700000000E80300000000640029
:10015000000000000A000000000001000000000094
:100160002C76D888DC674F0823DFC1DFAE59E1B1B8
:10017000B796E5E3E453C63AE651997696E8E6C2C7
:100180008426EB898C9B62ED407C6FFCEFBC9C9FCE
:1001900040F2BAA56FA5F490055A2AF75C936B6CF0
:1001A000F9676DC11BFCE0E40D47FEF520E6B500E4
:1001B000D0ED902E0300943577050080841E080052
:1001C00000204E0A000000C80C333333330F986E02
:1001D00012831141EF8D2114893BE65516CFFEE6BF
:1001E000DB18D1844B381BF77C1D901DA4BBE42485
:1001F000203284725E228100C9F124ECA1E53D2702
:1002000016050100000000000000FA000000E000F8
:10021000E00028FE28FE282454FE5448C4C81026B6
:10022000466C92AA44A000A0C0000000384482009E
:10023000008244380028107C102810107C10100018
:100240000A0C000010101010100006060000040830
:100250001020407C8A92A27C0042FE020042868AE4
:1002600092628482A2D28C182848FE08E4A2A2A23C
:100270009C3C5292920C808E90A0C06C9292926C98
:100280006092929478006C6C0000006A6C00001020
:1002900028448200282828282800824428104080EA
:1002A0008A90604C929E827C7E8888887EFE9292A4
:1002B000926C7C82828244FE82824438FE929292C8
:1002C00082FE909090807C8292925EFE101010FED2
:1002D0000082FE8200040282FC80FE10284482FE1E
:1002E00002020202FE403040FEFE201008FE7C8228
:1002F00082827CFE909090607C828A847AFE9098C4
:100300009462629292928C8080FE8080FC02020253
:10031000FCF8040204F8FC021C02FCC6281028C6E3
:10032000E0100E10E0868A92A2C200FE8282004097
:1003300020100804008282FE00204080402002023B
:100340000202020080402000042A2A2A1EFE1222F5
:10035000221C1C222222041C222212FE1C2A2A2ACF
:1003600018107E908040304A4A4A7CFE1020201EA1
:100370000022BE0200040222BC00FE08142200007B
:1003800082FE02003E2018201E3E1020201E1C224D
:1003900022221C3E28282810102828183E3E102013
:1003A0002010122A2A2A0420FC2202043C02020401
:1003B0003E38040204383C020C023C221408142289
:1003C000300A0A0A3C22262A322200106C820000DF
:1003D00000FE000000826C100008101008100000E1
:1003E0000000007F8181817F7F8383837F7F878778
:1003F000877F7F8F8F8F7F7F9F9F9F7F7FBFBFBFB5
:100400007F7FFFFFFF7F2040FF40206215171565AB
:1004100000FBFB00000000000000C0FF0300E0FF45
:100420000700F0FF0F00F8FF1F0078001E007800A3
:100430001E0078001E0078001E0078001E00780064
:100440001E0078001E0078001E0078001E000000CC
:1004500000000000000080FF0300E0FF0700F0FF45
:100460000F00F8FF1F00F83C1F00783C1E00783C8E
:100470001E00783C1E00783C1E00783C1E00783C34
:100480001E00783C1E00783C1E00783C1E00783C24
:100490001E000000000000000000E0FF0300F0FF6D
:1004A0000700F8FF0F00F8FF1F00783C1E00783CA3
:1004B0001E00783C1E00783C1E00783C1E00783CF4
:1004C0001E00783C1E00783C1E00783C1E00783CE4
:1004D0001E000000000000000000F8FF0300F8FF0D
:1004E0000F00F8FF1F00F8FF1F0000001E000000B3
:1004F0001E0000801F0000F01F0000FF0F00E0FF43
:100500000700F0FF0000F80F0000F800000078007E
:10051000000078000000F8FF1F00F8FF1F00F0FF48
:100520001F00E0FF1F000000000000000000F8FFB7
:100530001F00F8FF1F00F8FF1F00F8FF1F007800E2
:100540001E00783C1E00783C1E00783C1E00783C63
:100550001E00783C1E00783C1E00F87E1F00F8FF4D
:100560001F00F0FF0F00E0E70300000000000000A4
:100570003800EEFF6C002A8045003A0047FC03FF7C
:100580006CFC83FF3900DEFF0B7CD0810BFCD0813B
:100590000BC0D0810BFCD0810B7CDEFF0B0082FFF7
:1005A000397002FF6CF83A0047DC2A8045CCEEFF38
:1005B0006CCC000038000000000C00001E0C000095
:1005C0001E0000001E0000001E0000001E00F8FFBC
:1005D0001F00F8FF1F00F8FF1F00F8FF1F000000BA
:1005E0001E0000001E0000001E0000001E00000093
:1005F0005E000000400000007C00000040000000A1
:10060000400000007C0000003000000010000000EE
:10061000300000007C0011241FBECFEFD8E0DEBF09
:10062000CDBF12E0A0E0B1E0ECEAF6E502C0059033
:100630000D92A833B107D9F723E0A8E3B2E001C0D7
:100640001D92AF37B207E1F70E942A030C94542B96
:100650000C9400000E94A30D0E94950D0E944A2058
:1006600080E090E008950F931F9385E00E944B0B6C
:100670008823C1F080E460E00E94300400E0802F15
:1006800060E00E94DB0310E080E061E00E94300443
:100690001F5F1038C9F70F5F043089F783E060E00F
:1006A0000E941E041F910F9108950F931F9385E0E0
:1006B0000E943E0B882311F082E07AC00E948C04D5
:1006C000182F0E94BD0B1150123008F06DC08150E0
:1006D000823008F069C00E944B048EEA60E00E94FC
:1006E000300482EA60E00E94300480EA60E00E9408
:1006F000300400E513ECC8010197F1F780EC60E0ED
:100700000E9430048FE260E00E94300481E860E0E3
:100710000E94300486E160E00E94300482E260E0E2
:100720000E943004C8010197F1F78FEA60E00E944F
:10073000300486EA60E00E94300485EA60E00E94AE
:10074000300480E090E028E833E1F9013197F1F7D7
:10075000019643E0883E9407C1F783EB60E00E9476
:10076000300480E460E00E94300483E060E00E9496
:10077000DB0383E060E00E941E041092E20210920C
:10078000E4021092E30284E091E090937C03809372
:100790007B0388E10E94FD030E94330384EA60E04A
:1007A0000E94300481E004C085E00E942E0B87E0A7
:1007B0001F910F910895FF920F931F93082FF62E0C
:1007C00085E00E944B0B8823A1F01F2D1F7703703B
:1007D000802F806B60E00E94300412951F70812F83
:1007E000806160E00E9430048F2D8F7060E00E9475
:1007F00030041F910F91FF9008951F93182F85E0EB
:100800000E944B0B8823C1F087E00E94CE0482E057
:100810006AE00E941F0582E061EB0E941F05612FC4
:10082000113208F060E282E00E941F0589EE8A958D
:10083000F1F787E00E94CE041F9108950F931F9354
:10084000082F162F85E00E944B0B882331F0037090
:100850001F771093E0020093E1021F910F9108951A
:100860000F931F93082F162F85E00E944B0B8823B0
:1008700079F0112319F0113021F402C02B9801C036
:100880002B9A86E08A95F1F780E0602F0E941F0581
:100890001F910F910895239A08951F93182F86E0B2
:1008A0000E944B0B882319F0812F0E9470041F9126
:1008B000089586E00E943E0B882311F082E008959F
:1008C0000E94750481E008951F93182F86E00E940E
:1008D0004B0B882319F0812F0E947E041F910895ED
:1008E00085FD5D9886FD5E980895559A569A80E23A
:1008F0000E944D0480E40E944D040895282F85FF36
:1009000004C08BB190E289278BB926FF04C08BB15C
:1009100090E489278BB9089582E00E943E0B8823DA
:1009200011F082E008950E942E0580E06BE271E1F3
:100930000E94C50481E063E271E10E94C50482E087
:100940006BE171E10E94C50486E063E371E10E94FE
:10095000C50483E063E171E10E94C50484E063E1C2
:1009600071E10E94C50485E063E171E10E94C50464
:1009700087E063E171E10E94C5048FEF8093E50297
:1009800087E00E94CE0481E00895E82FF0E0EE0FAA
:10099000FF1FE957FD4F7183608308951F93182F40
:1009A00082E00E944B0B882309F447C0912F977077
:1009B0008091E502981709F440C09093E50285B153
:1009C000887F892B85B9933011F1943028F49130C8
:1009D00051F0923090F40CC0953019F19530E0F060
:1009E000963021F50FC0E0918902F0918A0222C071
:1009F000E0918702F09188021DC0E0918B02F09196
:100A00008C0218C0E0919302F091940213C0E0911F
:100A10008D02F0918E020EC0E0918F02F091900253
:100A200009C0E0919102F091920204C0E091950218
:100A3000F0919602309709F009951F9108951F9340
:100A4000162F0E94CE0482E00E944B0B882321F0D7
:100A50001EBD0DB407FEFDCF1F910895259A26985F
:100A6000279A209A219A229A08950F931F93CF9341
:100A7000DF9380E291E00E945D289C019093A602A2
:100A80008093A502892B11F480E039C08901C0E070
:100A9000D0E0BE0180E090E00E94B02420E030E091
:100AA00040EA51E40E943E2427EF35E740E05FE34F
:100AB0000E947B259B01AC0160E070E080E291E444
:100AC0000E94E8259B01AC01CA01B9012DEC3CEC68
:100AD00042E851E40E947B250E943E252AE030E056
:100AE00040E050E00E94DA27F8016193719381930E
:100AF00091938F012196C834D10559F681E0DF9199
:100B0000CF911F910F9108958AE00E943E0B882398
:100B100011F082E008951092A2021092A10281E0E9
:100B20000E94790681E08093980208951F9389E0DE
:100B30000E943E0B882311F082E024C08BE00E94CB
:100B40004B0B8823D9F40E943505182F813011F002
:100B500086E018C01092990210929A0210929B029D
:100B600010929C028DE06CE471E10E94E30F82E040
:100B70000E9479061093970281E004C089E00E94E8
:100B80002E0B87E01F910895813021F0823029F0EB
:100B900084E008950E94840508950E9496050895B2
:100BA0002F923F924F925F926F927F928F929F927D
:100BB000AF92BF92CF92DF92EF92FF920F931F936B
:100BC000DF93CF93CDB7DEB72A970FB6F894DEBF89
:100BD0000FBECDBF8C0189E00E944B0B882309F426
:100BE0006FC00115110509F46BC0F801F081FF8396
:100BF000F801F181F887F8018281282F30E03C83E9
:100C00002B838381E82FF0E0FA83E983662477243D
:100C10004BC0E114F104C1F1F701F081FD83F7014C
:100C2000F181FE83F7018281282E33248381482EAF
:100C30005524AA24BB241DC0E985FA854281552785
:100C400047FD50952381348105818081618110E0C9
:100C50000E9418120894C11CD11C29853A852A5F6C
:100C60003F4F3A872987C214D30430F30894A11C5C
:100C7000B11CA414B50440F48D819E819C013A8777
:100C80002987CC24DD24EFCF0894811C911C84E0BB
:100C900090E0E80EF91EEB81FC818E169F0608F4A9
:100CA000B8CF0894611C711C29813A8162167306C1
:100CB00038F48F8198859C01790188249924EBCFA1
:100CC0002A960FB6F894DEBF0FBECDBFCF91DF914D
:100CD0001F910F91FF90EF90DF90CF90BF90AF905A
:100CE0009F908F907F906F905F904F903F902F904C
:100CF0000895982F80919702882331F4809198026B
:100D0000882311F4579A5F98809197028823D1F431
:100D10009230C1F410928000109281008091810085
:100D20008860809381008091810081608093810040
:100D3000109285001092840081E08093890080E900
:100D40008093880008952F923F924F925F926F9206
:100D50007F928F929F92AF92BF92CF92DF92EF924B
:100D6000FF920F931F93DF93CF930F92CDB7DEB710
:100D7000582E962E442E3901C9821501CE88DF885F
:100D8000A88CB98C6A8D7B8D81E0981619F1981624
:100D900028F092E0991609F070C03EC080E0B701DB
:100DA0000E94D40880E0642DA30198010981EE24FB
:100DB000E3947DE1C72E73E0D72E0E94940955205D
:100DC00009F05BC000D00F92EDB7FEB711823382FD
:100DD00022821CC081E00E94D40881E0682DA60117
:100DE00095010C8DEE24E3949DE1C92E93E0D92E5C
:100DF0000E949409552009F040C000D00F92EDB731
:100E0000FEB791828D8D9E8D938382830E94D10A3D
:100E10000F900F900F9031C0C7010E94F60800D0CC
:100E20008DE193E0EDB7FEB792838183842DB3010A
:100E3000A8012981082D76016501AC8C8824839452
:100E40000E94270A0F900F905520B9F400D000D0CF
:100E50000F92ADB7BEB71196EDB7FEB79182FD0107
:100E6000328221828D8D9E8D948383830E94D10A4C
:100E70000F900F900F900F900F900F90CF91DF91E8
:100E80001F910F91FF90EF90DF90CF90BF90AF90A8
:100E90009F908F907F906F905F904F903F902F909A
:100EA00008954F925F927F928F929F92AF92BF92DE
:100EB000CF92DF92EF92FF920F931F93DF93CF9326
:100EC000CDB7DEB7562F942E7C2CAA89BB89CC884F
:100ED000DD886E897F89988D813009F445C0813025
:100EE00030F1823009F066C0513071F0513020F09D
:100EF000523009F05FC011C080E0B7010E94D408F1
:100F000080E0692DA80106C081E00E94D40881E03C
:100F1000682DA6010E945F084DC0C7010E94F60817
:100F2000892DB801482D96010E94760843C0EDB77F
:100F3000FEB739970FB6F894FEBF0FBEEDBF4DB6A2
:100F40005EB60894411C511CB283A183F201D38286
:100F5000C282758364839683898D9A8D90878783F7
:100F600080E0652FC72C1CC0EDB7FEB739970FB6D0
:100F7000F894FEBF0FBEEDBFADB6BEB60894A11C7F
:100F8000B11CB283A183F501D382C28275836483CD
:100F900096831086178281E0652FC72CAA24BB2474
:100FA0000E94A3068DB79EB709960FB6F8949EBF10
:100FB0000FBE8DBFCF91DF911F910F91FF90EF90EA
:100FC000DF90CF90BF90AF909F908F907F905F9079
:100FD0004F90089587E00E943E0B882311F082E035
:100FE00008950E94240B81E080931C031092E60276
:100FF0001092E7021092E9021092E8021092EB02BE
:101000001092EA021092ED021092EC021092EF029E
:101010001092EE021092F1021092F0021092F3027E
:101020001092F2021092F5021092F4021092F7025E
:101030001092F6021092F9021092F8021092FB023E
:101040001092FA021092FD021092FC021092FF021E
:101050001092FE02109204031092050310920603F0
:10106000109207031092090310920A0310920B03C7
:1010700010920C0310920D0310920E0310920F03A6
:101080001092110310921003109213031092120386
:101090001092150310921403109217031092160366
:1010A00010920103109200031092030310920203A6
:1010B00010921B0310921A0310921C030895EF92D2
:1010C000FF920F931F93182F062F7A0160E00E9462
:1010D0003309812F602F0E941409812FB7010E94CC
:1010E00048091F910F91FF90EF900895CF92DF92E2
:1010F000EF92FF920F931F93C82E7B01D42E89018C
:1011000082E060E00E9433098C2D6D2D0E94290938
:10111000C701B8010E9475091F910F91FF90EF90D0
:10112000DF90CF9008952EEF8037920714F480E778
:101130009EEFFC0181E0E139F80714F0E0E9F1E00D
:101140009B018EEF6037780714F420E73EEFA9018A
:1011500021E04139520714F040E951E08F2F881FF8
:101160008827881F252F221F2227221F91E0909376
:101170001C038093090320930A03CF01F7FF03C0E8
:10118000909581959F4F9A0157FF03C03095219507
:101190003F4F9093E9028093E8023093EB02209353
:1011A000EA0210921C030895482F81E080931C03EB
:1011B000CB0123E0693E720710F088EE93E04130E6
:1011C00071F0413018F0423071F405C09093F10293
:1011D0008093F00208C09093F1028093F002909304
:1011E000F3028093F20210921C03089521E02093F1
:1011F0001C03AC0183E0493E580710F048EE53E071
:101200009B0183E0693E780710F028EE33E0F89404
:101210005093F1024093F0023093F3022093F202D4
:10122000789410921C030895982F81E080931C03FA
:10123000913051F0913018F0923041F403C0609336
:10124000090304C06093090360930A0310921C030E
:10125000089591E090931C03E9E0F3E081936083AB
:1012600010921C030895982F81E080931C03913005
:1012700051F0913018F0923041F403C06093E602CF
:1012800004C06093E6026093E70210921C03089585
:10129000482F81E080931C03CB0121E06139720764
:1012A00010F080E991E0413061F0413018F04230B7
:1012B000C9F40EC0F8949093E9028093E802789400
:1012C00011C0F8949093EB028093EA0278940AC0DC
:1012D000F8949093E9028093E8029093EB02809354
:1012E000EA02789410921C030895AC0181E0809387
:1012F0001C03F894CB0121E06139720710F080E9FA
:1013000091E09093EB028093EA029A0181E04139E7
:10131000580710F020E931E03093E9022093E80209
:10132000789410921C0308958F929F92AF92BF926F
:10133000CF92DF92EF92FF920F931F93CF93DF93A1
:10134000182FF62E4A015901E60187E00E944B0B47
:10135000882309F46FC0812F61E00E943309812F37
:10136000B401A5010E940B13812F6F2D0E94140957
:10137000812F602F0E94F612812FB4010E94CE129D
:10138000C114D10499F0113049F0113018F0123025
:1013900069F406C018821092180308C0198204C0AC
:1013A000188219821092180310921903D0931B030C
:1013B000C0931A03EE20B9F588E392E090931B03E3
:1013C00080931A03812FB5010E944809812F0E9442
:1013D000B912113071F0113018F0123059F512C0F5
:1013E0001092380210921803809138028823E1F39A
:1013F00021C010923902109219038091390288237A
:10140000E1F318C0109238021092390210921803BA
:1014100010921903809138028823E1F380913902F8
:101420008823C1F307C0812FB5010E944809812F8D
:101430000E94B912DF91CF911F910F91FF90EF9011
:10144000DF90CF90BF90AF909F908F9008953F9284
:101450004F925F926F927F928F929F92AF92BF92C4
:10146000CF92DF92EF92FF920F931F93DF93CF9370
:10147000CDB7DEB7982E2B013A01322EB02E0C8953
:101480001D8987E00E944B0B882309F453C082E03A
:1014900061E00E94330980E0B201A3010E940B13B6
:1014A00081E0B701A6010E940B13892D6B2D0E94CC
:1014B000290980E0632D0E94F61281E06A2D0E94C6
:1014C000F612C201B7010E94E9120115110539F0A7
:1014D000F8011082118210921803109219031093D0
:1014E0001B0300931A038820F1F48AE392E090939F
:1014F0001B0380931A03C301B6010E94750982E0A1
:101500000E94B91210923A0210923B0210921803F4
:101510001092190380913A028823E1F380913B02F3
:101520008823C1F307C0C301B6010E94750982E098
:101530000E94B912CF91DF911F910F91FF90EF9010
:10154000DF90CF90BF90AF909F908F907F906F90E3
:101550005F904F903F9008950F931F93182F062F81
:10156000662349F460E070E00E944809812F60E042
:1015700070E00E94CE1281E080931C03113051F084
:10158000113018F0123041F403C00093040304C07A
:10159000009304030093050310921C031F910F9105
:1015A0000895CF92DF92EF92FF920F931F93DF93F4
:1015B000CF93CDB7DEB71B8587E00E944B0B882306
:1015C000D1F1113061F0113018F01230A1F511C0D5
:1015D000EC85FD8580911D038823E1F306C0EC8531
:1015E000FD8580911E038823E1F3309721F1099551
:1015F00022C0CC84DD84EE84FF8400E010E0002370
:1016000051F480911D03882331F0C114D10411F0ED
:10161000F601099501E0112351F480911E038823FE
:1016200031F0E114F10411F0F701099511E0002304
:1016300031F3112321F3CF91DF911F910F91FF908F
:10164000EF90DF90CF9008953A9A3B9A3C9A3D9A5A
:101650003E9A3F9A88B1837088B90895853160F4C5
:10166000E82FF0E0E553FD4F8081882329F0808149
:1016700081508083808108958FEF0895853110F027
:1016800080E00895E82FF0E0E553FD4F80818F5F03
:10169000808381500895853110F080E00895E82F0F
:1016A000F0E0E553FD4F8081811181E008951F93A3
:1016B000182F80913D02882341F0809144028823B5
:1016C00099F010923D02109244020E948C0B80937C
:1016D0003C028EE392E061E040E028E230E00E94CC
:1016E0004F0C81E080933D0290913C02133018F042
:1016F000133079F409C0E12FF0E0E050FF4F808112
:10170000892341F081E006C091FF03C0892F8170D9
:1017100001C080E01F9108950F931F9381E00E9404
:101720004B0B882311F400E024C087E00E94CE0414
:1017300082E06AE00E941F0582E062EB0E941F05C2
:1017400018EC812F8A95F1F782E060E00E943C114D
:10175000082F812F8A95F1F782E060E00E943C110A
:101760001A95F1F787E00E94CE0488E893E101978B
:10177000F1F7802F1F910F910895DF93CF9300D041
:101780000F92CDB7DEB781E00E943E0B882311F0A7
:1017900082E011C00E948C048150823040F40E948B
:1017A000E10BCE0101960E945F1381E004C081E04D
:1017B0000E942E0B87E00F900F900F90CF91DF913A
:1017C000089510923403109233031092360310924E
:1017D0003503109238031092370310923A03109297
:1017E000390310923C0310923B0380E991E09093FF
:1017F000200380931F0390932203809321039093EF
:1018000024038093230390932603809325039093CE
:1018100028038093270384E398E090932A0380931E
:10182000290390932C0380932B0390932E03809392
:101830002D039093300380932F0390933203809372
:10184000310308950F931F93DF93CF93CDB7DEB786
:1018500029970FB6F894DEBF0FBECDBF8C0188E08C
:101860000E944B0B882311F491E00DC0CE0101962C
:1018700061E040E098010E944F0C982F882319F4F2
:101880008F818823E9F3892F29960FB6F894DEBF5C
:101890000FBECDBFCF91DF911F910F910895EF92B1
:1018A000FF920F931F93CF93DF93EC01F62EE42E5C
:1018B000890188E00E944B0B882311F481E026C047
:1018C00084E090E00E945D28FC01009711F482E022
:1018D0001DC0F982F0FC1E8281E0E81619F48981AE
:1018E000846089838981886089831B830A831D833F
:1018F0000C83D183C0831382128281E08093A7027C
:10190000CF010E948D0C1092A70280E0DF91CF9151
:101910001F910F91FF90EF900895CF92DF92EF9279
:10192000FF920F931F93CF93DF93EC0180913D03C0
:10193000882339F4D0933F03C0933E030E94B81329
:1019400047C0C0903E03D0903F0300E010E0EE247B
:10195000FF2437C0A881B981FD0164817581F6013A
:1019600040815181FA01848195819B01281B390BAB
:1019700037FF0FC0861B970B95838483DB82CA8257
:10198000012B29F4D0933F03C0933E0321C0F701FC
:101990000CC0F601828193812115310549F4FD01C6
:1019A000158214829B838A83F601D383C28310C07D
:1019B000FD01358324830097B9F30F5F1F4F760134
:1019C0006C0180913D0390E00817190718F2ECCFE5
:1019D00080913D038F5F80933D03DF91CF911F91F5
:1019E0000F91FF90EF90DF90CF900895E0917003FA
:1019F000F0917103309711F480E008958485089583
:101A0000EF92FF920F931F930E94D31584E10E94DF
:101A10003E0B882311F082E026C08EE00E944B0B23
:101A20008823E9F481E00E94D8148130C1F40E9437
:101A3000810D0E94820D81E063E040E020E0E12C16
:101A400092ECF92E91E0092F112D0E9430140E9482
:101A5000530D882311F486E006C081E004C084E1C0
:101A60000E942E0B87E01F910F91FF90EF90089539
:101A7000E0917003F0917103309709F01486089596
:101A800090936F0380936E03709371036093700360
:101A90000E94380D089581E00E94C71481E061E042
:101AA0000E9466150895EF92FF920F931F93DF93A4
:101AB000CF930F92CDB7DEB781E061E00E9466154B
:101AC00000E010E07E010894E11CF11C81E0B70108
:101AD0000E941215882311F010E006C00F5F1F4FFF
:101AE0000A30110599F711E081E060E00E94661567
:101AF000812F0F90CF91DF911F910F91FF90EF9069
:101B00000895089510926C0310926D0310926F0364
:101B100010926E0310927103109270031092720370
:101B2000109274031092730308950E9448130E9448
:101B3000B5100E94F70F0E949C130E948C040E9413
:101B4000BD0B78940895000008951F920F920FB670
:101B50000F9211242F933F934F935F936F937F9333
:101B60008F939F93AF93BF93EF93FF93E09167029F
:101B7000F0916802309709F00995FF91EF91BF91BC
:101B8000AF919F918F917F916F915F914F913F9115
:101B90002F910F900FBE0F901F9018951F920F92CC
:101BA0000FB60F9211242F933F934F935F936F9330
:101BB0007F938F939F93AF93BF93EF93FF93E091A6
:101BC0006902F0916A02309709F00995FF91EF914F
:101BD000BF91AF919F918F917F916F915F914F9145
:101BE0003F912F910F900FBE0F901F9018951F924D
:101BF0000F920FB60F9211242F933F934F935F9341
:101C00006F937F938F939F93AF93BF93EF93FF93C4
:101C1000E0916B02F0916C02309709F00995FF9109
:101C2000EF91BF91AF919F918F917F916F915F9154
:101C30004F913F912F910F900FBE0F901F901895CD
:101C40001F920F920FB60F9211242F933F934F9331
:101C50005F936F937F938F939F93AF93BF93EF9314
:101C6000FF93E0915902F0915A02309709F00995DB
:101C7000FF91EF91BF91AF919F918F917F916F9164
:101C80005F914F913F912F910F900FBE0F901F903A
:101C900018951F920F920FB60F9211242F933F9316
:101CA0004F935F936F937F938F939F93AF93BF9364
:101CB000EF93FF93E0915B02F0915C02309709F0A3
:101CC0000995FF91EF91BF91AF919F918F917F9176
:101CD0006F915F914F913F912F910F900FBE0F9099
:101CE0001F9018951F920F920FB60F9211242F93E9
:101CF0003F934F935F936F937F938F939F93AF9394
:101D0000BF93EF93FF93E0915D02F0915E023097F5
:101D100009F00995FF91EF91BF91AF919F918F913C
:101D20007F916F915F914F913F912F910F900FBED7
:101D30000F901F9018951F920F920FB60F921124BB
:101D40002F933F934F935F936F937F938F939F93C3
:101D5000AF93BF93EF93FF93E0916102F091620222
:101D6000309709F00995FF91EF91BF91AF919F9145
:101D70008F917F916F915F914F913F912F910F9034
:101D80000FBE0F901F9018951F920F920FB60F92D3
:101D900011242F933F934F935F936F937F938F9370
:101DA0009F93AF93BF93EF93FF93E0916302F09102
:101DB0006402309709F00995FF91EF91BF91AF91BF
:101DC0009F918F917F916F915F914F913F912F9153
:101DD0000F900FBE0F901F9018951F920F920FB685
:101DE0000F9211242F933F934F935F936F937F93A1
:101DF0008F939F93AF93BF93EF93FF93E0915F0215
:101E0000F0916002309709F00995FF91EF91BF9131
:101E1000AF919F918F917F916F915F914F913F9182
:101E20002F910F900FBE0F901F9018951F920F9239
:101E30000FB60F9211242F933F934F935F936F939D
:101E40007F938F939F93AF93BF93EF93FF93E09113
:101E50006502F0916602309709F00995FF91EF91C4
:101E6000BF91AF919F918F917F916F915F914F91B2
:101E70003F912F910F900FBE0F901F9018951F92BA
:101E80000F920FB60F9211242F933F934F935F93AE
:101E90006F937F938F939F93AF93BF93EF93FF9332
:101EA000E0914F02F0915002309709F00995FF91AF
:101EB000EF91BF91AF919F918F917F916F915F91C2
:101EC0004F913F912F910F900FBE0F901F9018953B
:101ED0001F920F920FB60F9211242F933F934F939F
:101EE0005F936F937F938F939F93AF93BF93EF9382
:101EF000FF93E0915102F0915202309709F0099559
:101F0000FF91EF91BF91AF919F918F917F916F91D1
:101F10005F914F913F912F910F900FBE0F901F90A7
:101F200018951F920F920FB60F9211242F933F9383
:101F30004F935F936F937F938F939F93AF93BF93D1
:101F4000EF93FF93E0915302F0915402309709F020
:101F50000995FF91EF91BF91AF919F918F917F91E3
:101F60006F915F914F913F912F910F900FBE0F9006
:101F70001F9018951F920F920FB60F9211242F9356
:101F80003F934F935F936F937F938F939F93AF9301
:101F9000BF93EF93FF93E0915502F0915602309773
:101FA00009F00995FF91EF91BF91AF919F918F91AA
:101FB0007F916F915F914F913F912F910F900FBE45
:101FC0000F901F901895E82F803268F4805183306D
:101FD00050F0F0E0EE0FFF1FE95BFD4F20813181F3
:101FE0007183608302C020E030E0C901089580E180
:101FF0000E943E0B882311F082E00895E7E4F2E0AE
:102000001192119282E0E738F807D1F781E0089544
:10201000FF920F931F93CF93DF93F82E8AE0F81669
:10202000B1F08F1548F0E8E0FE16B9F1EF1538F180
:10203000F7E0FF1651F43BC08DE0F81659F0EBE1E4
:10204000FE1689F0FCE0FF1641F001E041C010925D
:10205000E00203C01092E0023AC08091E102815098
:102060008093E10234C00E94330314C080E061E039
:102070000E9430048091E0028F5F8093E0028091A3
:10208000E00287FFF3CF1092E0028091E1028150DD
:102090008093E10200E011E01CC08091E0028823FF
:1020A000B1F08091E00286508093E00210C081E0A0
:1020B0000E94C40564EF71E080E090E04DE750E0DD
:1020C00024E630E00E94C21181E00E94B81100E0D5
:1020D00010E08091E1026091E0020E94DB030023A6
:1020E00051F185E0F89EC0011124EC01CD59DE4F7D
:1020F0008C0108591E4FFE01849161E00E9430045A
:102100002196C017D107B9F780E061E00E94300442
:102110008091E0028A5F8093E0028091E00290E08B
:102120008C3791053CF01092E0028091E1028150E1
:102130008093E10211E08091E10283708093E102DB
:10214000113059F48091E202813039F4E091E302D8
:10215000F091E402309709F0099580E090E0DF917A
:10216000CF911F910F91FF900895F8940E94101144
:1021700081E00E94BD1081E00895813049F0F8941B
:10218000813020F18230B1F0833009F045C017C0B2
:102190002C9A80E8809361001092610080E090E0CA
:1021A0000000019688329105D9F7109268001092CC
:1021B0006B00089580E88093610083E004C080E8AC
:1021C0008093610088E08093610028C080E090E007
:1021D000000001962DE680369207D1F72C9880E01A
:1021E00090E0000001962DE680369207D1F710921C
:1021F0007A008FEF80936400809168008160809303
:10220000680080916B00846080936B00789483B742
:10221000816083BF88950895823008F0789408958E
:10222000249A2C9A089583E58CBD81E08DBD8DE0C4
:102230008A95F1F7089583E58CBD1DBC84EF91E08C
:102240000197F1F708958FE78CBD1DBC84EF91E0F5
:102250000197F1F7089583E58CBD81E08DBD8DE098
:102260008A95F1F7089583E58CBD81E08DBD84EFFB
:1022700091E00197F1F708951F93162F0E94CE0465
:1022800082E00E944B0B882329F01EBD0DB407FE8F
:10229000FDCF8EB51F9108950E944F110895809132
:1022A000990290919A02A0919B02B0919C02209178
:1022B0009D0230919E0240919F025091A002280FF2
:1022C000391F4A1F5B1F2093990230939A02409353
:1022D0009B0250939C028091990290919A02A09146
:1022E0009B02B0919C028851964FA040B040BCF038
:1022F0008BB180588BB98091990290919A02A091EC
:102300009B02B0919C028851964FA040B0408093B0
:10231000990290939A02A0939B02B0939C02089515
:102320008AE00E942E0B882329F481E00E949112FA
:1023300010929802089589E00E942E0B8823B9F428
:1023400080919702882311F00E94B31282E00E94CC
:1023500091128091A5029091A602009731F00E94FF
:10236000F2281092A6021092A502109297020895E8
:10237000813029F0823029F40E949B1108950E9437
:10238000901108956F927F928F929F92AF92BF9219
:10239000CF92DF92EF92FF920F931F93CF93DF9331
:1023A0003B014C015A01E9018AE00E944B0B882352
:1023B00081F1209741F19501442737FD4095542F35
:1023C000BE01C536D10510F064E670E080E090E013
:1023D0000E94DA2724E630E040E050E00E94EA273D
:1023E00079018A01C401B3010E946816C7010E94E5
:1023F000220C60E070E080E090E00E946816C50169
:102400008E199F0904C0A114B10419F0C5010E94DE
:10241000220CDF91CF911F910F91FF90EF90DF90F1
:10242000CF90BF90AF909F908F907F906F900895C6
:102430008F929F92AF92BF92CF92DF92EF92FF92D4
:102440000F931F93CF93DF93982E862E5A01E901A5
:1024500089E00E944B0B882389F10115110549F190
:102460009E01442737FD4095542F0536110510F085
:1024700004E610E0B80180E090E00E94DA2724E64C
:1024800030E040E050E00E94EA2779018A01892D7E
:10249000682DA5010E948C16C7010E94220C60E0E5
:1024A00070E080E090E00E946B12CE018E199F09CF
:1024B00003C0209719F0CE010E94220CDF91CF912A
:1024C0001F910F91FF90EF90DF90CF90BF90AF9052
:1024D0009F908F900895EF92FF920F931F937B012F
:1024E0008C0189E00E944B0B8823B1F08091970208
:1024F000882391F0E0929D02F0929E0200939F0249
:102500001093A002E114F1040105110519F00E94D5
:10251000AD1202C00E94B3121F910F91FF90EF9075
:102520000895823029F4809181008E7F809381000C
:1025300080919702813031F480919802813011F4BA
:102540000000089580919702813021F080919802D7
:10255000813011F45F9857980895EFE6F0E080819C
:10256000826080830895EFE6F0E080818D7F808334
:102570000895982F81E080931C03913051F09130A1
:1025800018F0923041F403C01092040304C010927A
:1025900004031092050310921C030895982F81E004
:1025A00080931C03913071F0913018F0923071F4E7
:1025B00005C07093F9026093F80208C07093F902A5
:1025C0006093F8027093FB026093FA0210921C036E
:1025D000089521E020931C03E8EFF2E091838083CB
:1025E00032967183608310921C030895982F81E0C6
:1025F00080931C03913051F0913018F0923041F4E7
:1026000003C06093060304C060930603609307034E
:1026100010921C0308950F931F93CF93DF93EB0148
:102620008A01813001F1813018F0823061F50DC0EE
:102630008091F0029091F102892B11F080E01AC094
:102640001092FD021092FC021EC08091F002909147
:10265000F102892B21F080E00E94C01604C0109284
:10266000FD021092FC028091F2029091F302892BFC
:1026700031F081E0BE01A8010E94C01604C0109292
:10268000FF021092FE02DF91CF911F910F910895EA
:10269000CF93DF93C0E0D0E08C2F60E00E9457130F
:1026A0002196C531D105C1F7DF91CF9108958531CC
:1026B00028F4E82FF0E0E553FD4F608308951F9361
:1026C000CF93DF93EC01009799F181E00E944B0BCF
:1026D000882351F187E00E94CE0418EC812F8A955F
:1026E000F1F782E06AE00E941F0582E064EB0E943D
:1026F0001F05812F8A95F1F782E060E00E943C116E
:102700008883812F8A95F1F782E060E00E943C1176
:1027100089831A95F1F782E060E00E943C118A8378
:1027200087E00E94CE0404C0188219828DE28A8359
:10273000DF91CF911F91089588E00E943E0B88237E
:1027400011F082E0089510923D0310923F03109221
:102750003E031092A7021092A80280E16DE277E199
:102760000E9457160E94BC130E94C51381E0089571
:1027700081E08093A802089584B5826084BD85B508
:10278000846085BD8EE487BD0895EEE6F0E080812B
:10279000826080830895CF92DF92EF92FF920F9331
:1027A0001F93CF93DF937B018C01EA01690181E0E4
:1027B000E81681EEF80680E0080780E0180740F48C
:1027C00044E0EE0CFF1C001F111F4A95D1F707C013
:1027D00033E0EE0CFF1C001F111F3A95D1F760E0AB
:1027E00072EC8BEE9BE0A80197010E94EA27790129
:1027F0008A0186EF9FEFAFEFBFEFE80EF91E0A1FC9
:102800001B1FC801B7012AE030E040E050E00E9401
:10281000EA27653071058105910540F08AE090E076
:10282000A0E0B0E0E80EF91E0A1F1B1FC801B701A7
:102830002AE030E040E050E00E94EA27C901DA01D6
:102840002883892F9A2FAB2FBB27F6018083DF9136
:10285000CF911F910F91FF90EF90DF90CF9008954F
:10286000BF92CF92DF92EF92FF920F931F93DF936D
:10287000CF9300D0CDB7DEB7B62EC42ED22E88238C
:1028800021F0813009F077C03CC08DE00E944B0BF5
:10289000882309F470C01A8219821092C000109225
:1028A000C1001092C200C801B701AE014E5F5F4F78
:1028B0009E012F5F3F4F0E94CB13BB0CDD0CDD0C44
:1028C000DD0CDD0CDB28CC0CCC0CCC0CCD288A81AB
:1028D0008093C40089818093C500C092C20081E0CA
:1028E000E81681EEF80680E0080780E0180728F077
:1028F0008091C00082608093C00081E08093540387
:102900003AC08EE00E944B0B8823A9F119821A82EB
:102910001092C8001092C9001092CA00C801B701F5
:10292000AE014F5F5F4F9E012E5F3F4F0E94CB1362
:10293000BB0CDD0CDD0CDD0CDD0CDB28CC0CCC0C79
:10294000CC0CCD2889818093CC008A818093CD00E6
:10295000C092CA0081E0E81681EEF80680E0080720
:1029600080E0180728F08091C80082608093C8003A
:1029700081E0809359030F900F90CF91DF911F91C9
:102980000F91FF90EF90DF90CF90BF900895882334
:1029900019F0813061F406C08091C1008068809395
:1029A000C10008958091C90080688093C90008958E
:1029B000882321F08130B9F084E008958DE00E94F1
:1029C0003E0B882369F51092540310925203109223
:1029D00053030E94C61580E065E070E00E94AD15CB
:1029E00089E493E015C08EE00E943E0B8823C1F479
:1029F00010925903109257031092580381E00E94DD
:102A0000C61581E065E070E00E94AD1580E493E0BA
:102A100061E041E028EE33E00E944F0C81E0089530
:102A200082E00895CF93DF93EB01882321F081307A
:102A300009F046C022C08DE00E944B0B882309F4A8
:102A40003FC020915503309156038091530381304C
:102A5000B9F50FC080914F03882321F021503040F9
:102A600010924F038091C00087FF03C08091C60081
:102A700020C01216130674F325C08EE00E944B0B83
:102A80008823F1F020915A0330915B038091580321
:102A90008130B1F411C080914603882321F0215088
:102AA0003040109246038091C80087FF05C0809196
:102AB000CE00888380E007C01216130664F302C0BC
:102AC00081E001C083E0DF91CF9108950F931F93C0
:102AD000182F062F882311F48DE003C0813029F4CC
:102AE0008EE00E944B0B8823A9F10023F9F00130FE
:102AF00089F5112319F0113069F50CC08091540348
:102B0000813041F58091C10080618093C1000093C4
:102B1000530320C0809159038130E1F48091C900B2
:102B200080618093C9000093580314C0112319F0E9
:102B3000113081F408C08091C1008F7E8093C10064
:102B40001092530307C08091C9008F7E8093C90003
:102B5000109258031F910F91089577FF03C060E012
:102B600070E005C06F31710514F06EE170E08823EC
:102B700019F0813051F405C07093560360935503EA
:102B8000089570935B0360935A030895882319F0A6
:102B9000813041F404C0519A5098599A0895539A3B
:102BA00052985B9A0895000008951F920F920FB6F5
:102BB0000F9211242F933F934F935F936F937F93C3
:102BC0008F939F93AF93BF93EF93FF93DF93CF9335
:102BD0000F92CDB7DEB781E00E944D17789481E067
:102BE000BE016F5F7F4F0E941215882319F48981FF
:102BF0000E94111681E00E94C7140F90CF91DF91BF
:102C0000FF91EF91BF91AF919F918F917F916F91C4
:102C10005F914F913F912F910F900FBE0F901F909A
:102C200018951F93282F853519F08A3A89F404C026
:102C300081E080936D0333C010916D03113069F50D
:102C400082E080936D030E94DD1710936C0327C010
:102C500080916D03823009F5809173039091740324
:102C60004097C0F48091730390917403FC01E45A7F
:102C7000FC4F20830196909374038093730380919B
:102C80007303909174030C9751F410926D030E949A
:102C90005E1705C081E08093720310926D038091EE
:102CA0006D03882311F410926C031F9108958032F4
:102CB00018F020E030E00AC0E82FF0E0EE0FFF1F30
:102CC000E95BFD4F2081318171836083C9010895E3
:102CD000EF92FF920F931F937B018C018AE00E9479
:102CE0004B0B8823A1F080919802882381F0D801B2
:102CF000C701880F991FAA1FBB1F9093A40280933E
:102D0000A302E114F1040105110509F45F981F9174
:102D10000F91FF90EF9008950F931F93CF93DF9340
:102D2000182F062FEA0189E00E944B0B882319F126
:102D30001C30D9F0AE01410F511D8CE0089FC0013D
:102D40001124480F591F4934510578F4440F551F79
:102D5000440F551FE091A502F091A602E40FF51F64
:102D6000608171818281938104C060E070E080E0C5
:102D700090E00E946B12DF91CF911F910F91089507
:102D8000EF92FF920F931F93CF93DF93EB01882372
:102D900021F0813009F05AC02DC09A0140E050E086
:102DA000CA01B9010E94DA272091F0023091F102A4
:102DB000220F331F40E050E00E94EA2779018A0188
:102DC000A8019701220F331F441F551FCE01A0E019
:102DD000B0E082179307A407B50728F0F092FD0230
:102DE000E092FC0233C0D695C795D093FD02C09304
:102DF000FC022CC09A0140E050E0CA01B9010E94D7
:102E0000DA272091F2023091F302220F331F40E0C3
:102E100050E00E94EA2779018A01A8019701220F58
:102E2000331F441F551FCE01A0E0B0E08217930767
:102E3000A407B50728F0F092FF02E092FE0206C058
:102E4000D695C795D093FF02C093FE02DF91CF9134
:102E50001F910F91FF90EF9008950E9434170E94E8
:102E600009180E94E217089588E00E944B0B8823FE
:102E700011F484E008958091A802882311F483E07E
:102E800008958091A702882311F082E008950E949E
:102E9000561A8130E1F380E00895882319F08130DB
:102EA00061F406C08091C1008F778093C1000895BE
:102EB0008091C9008F778093C9000895ECE5F3E015
:102EC00020E030E082819381280F391F329683E021
:102ED000E636F807B9F72115310509F46DC0809180
:102EE0005C0390915D032817390709F065C0809154
:102EF0006E0390916F03892B59F5E0917003F09167
:102F00007103309729F18485882311F5318320835B
:102F100080915E0390915F0393838283809160032D
:102F20009091610395838483809162039091630300
:102F3000978386838091640390916503918780874E
:102F400080916603909167039387828781E08487ED
:102F500020916E0330916F032115310569F1E091E5
:102F60007003F0917103309739F180915C03909177
:102F70005D039183808380915E0390915F039383CF
:102F80008283809160039091610395838483809113
:102F90006203909163039783868380916403909189
:102FA000650391878087809166039091670393877B
:102FB0008287CF01F9010995089510927403109248
:102FC0007303089580919802813011F58091A102D8
:102FD0009091A2022091A3023091A402280F391FE0
:102FE0003093A2022093A1028091A1029091A202AB
:102FF000885E93406CF08BB180588BB98091A102B0
:103000009091A202885E93409093A2028093A102C5
:10301000089587E00E944B0B882309F4AAC0809191
:10302000F0029091F102892B09F1809114039091A3
:1030300015032091F0023091F102820F931F9093BB
:103040001503809314038091140390911503885EF7
:103050009340A4F08091140390911503885E9340EF
:10306000909315038093140341E009C08091E80216
:103070009091E9029093ED028093EC0240E0809100
:10308000F2029091F302892B09F18091160390913D
:1030900017032091F2023091F302820F931F909355
:1030A0001703809316038091160390911703885E8F
:1030B0009340A4F08091160390911703885E93408B
:1030C000909317038093160361E009C08091EA0290
:1030D0009091EB029093EF028093EE0260E0842FD8
:1030E0000E94BA1880911003909111032091EC0274
:1030F0003091ED02280F391F3093110320931003F4
:103100008091100390911103885E934014F440E085
:103110000BC08091100390911103885E93409093AF
:1031200011038093100341E08091120390911303E7
:103130002091EE023091EF02280F391F30931303D4
:10314000209312038091120390911303885E9340A1
:1031500014F460E00BC08091120390911303885E19
:103160009340909313038093120361E0842F0E9495
:10317000FF1808958823F1F02091E8023091E902C8
:103180008091EC029091ED02281B390B1216130668
:1031900034F48091EC029091ED02019607C0232B4C
:1031A00049F08091EC029091ED0201979093ED022D
:1031B0008093EC02662311F12091EA023091EB0238
:1031C0008091EE029091EF02281B390B1216130624
:1031D00054F48091EE029091EF0201969093EF02E9
:1031E0008093EE020895232B49F08091EE02909196
:1031F000EF0201979093EF028093EE0208950F93F0
:103200001F93182F062F80911C03882309F0E7C015
:1032100080910403882309F05AC08091EC029091B8
:10322000ED02892BE9F48091A902837E8093A902A3
:1032300010920D0380911803882309F45DC06091FA
:10324000060380E00E94AC0AE0911A03F0911B0390
:10325000309709F451C081E08083109218034CC06C
:103260008091E602813041F48091F8029091F90258
:10327000019711F411E002C01123F1F1E0910B0369
:10328000F0E0EE5EFE4F9091A902937E8081892B43
:103290008093A90280910903882321F480910B0374
:1032A0008F5F03C080910B03815080930B0380914B
:1032B0000B03837080930B0381E080930D03809157
:1032C000E6028130C9F480E00E94021A15C0909194
:1032D000A902937E9093A902E0910B03F0E0EE5EC9
:1032E000FE4F8081892B8093A90282E080930D0399
:1032F0001092ED021092EC0280910503882309F0F0
:1033000059C08091EE029091EF02892BE9F48091EF
:10331000A9028F718093A90210920E038091190364
:10332000882309F45CC06091070381E00E94AC0A25
:10333000E0911A03F0911B03309709F450C081E02B
:103340008183109219034BC08091E702813041F4D0
:103350008091FA029091FB02019711F401E002C002
:103360000023E9F1E0910C03F0E0EA5EFE4F90915A
:10337000A9029F718081892B8093A90280910A0301
:10338000882321F480910C038F5F03C080910C038C
:10339000815080930C0380910C03837080930C0305
:1033A00081E080930E038091E7028130C1F40E9496
:1033B000021A15C09091A9029F719093A902E09101
:1033C0000C03F0E0EA5EFE4F8081892B8093A90216
:1033D00082E080930E031092EF021092EE02809131
:1033E0000F03882331F489EA92E0612F402F0E9475
:1033F000C41A88B183709091A902892B88B91F9152
:103400000F910895882321F0813009F04EC027C024
:103410008091F8029091F902892B49F08091F8028D
:103420009091F90201979093F9028093F8028091AC
:1034300018038823D1F52091F8023091F902809188
:10344000FC029091FD022817390779F580E060E0D1
:1034500070E00E94480981E08093180308958091EC
:10346000FA029091FB02892B49F08091FA02909127
:10347000FB0201979093FB028093FA02809119035B
:10348000882399F42091FA023091FB028091FE0288
:103490009091FF022817390741F481E060E070E065
:1034A0000E94480981E0809319030895FF920F93C9
:1034B0001F93CF93DF9380913D03882309F459C074
:1034C00000913E0310913F03F801C081D1818C81AE
:1034D0009D8101979D838C83181619060CF449C0B1
:1034E000898180FF05C08E81882311F481E08E835D
:1034F000898181FF03C0EF81F885099580913D03A3
:103500008230A8F0F8018281938190933F038093E9
:103510003E0313821282E0910000F0910100848149
:103520009581181619063CF0FF24F39405C01092FB
:103530003F0310923E03FF2480913D03815080930E
:103540003D0380913D03882311F40E94C11A8981B3
:1035500082FF08C08A819B819D838C83C8010E9461
:103560008D0C08C0C8010E94F22889818F7E898352
:1035700001C0FF248F2DDF91CF911F910F91FF90FC
:1035800008951092A8020895FC0180910D038230E5
:1035900069F48091AD0291E089278093AD02882380
:1035A00009F03EC08081837E80833AC08091EC0226
:1035B0009091ED02C397A4F56623D1F02091EC021F
:1035C0003091ED0280E690E0BC01269FC001279F6C
:1035D000900D369F900D1124880F892F881F990B0D
:1035E000909301038093000381E08093AB0218C0A5
:1035F0008091AB028823A1F0809100039091010398
:1036000001979093010380930003809100039091B0
:103610000103892B29F48081837E80831092AB0281
:1036200080910E03823069F48091AC0291E0892789
:103630008093AC02882309F03EC080818F71808323
:1036400008958091EE029091EF02C397A4F5442370
:10365000D1F02091EE023091EF0280E690E0AC01D3
:10366000249FC001259F900D349F900D1124880F39
:10367000892F881F990B909303038093020381E0A5
:103680008093AA0208958091AA028823A1F08091D4
:103690000203909103030197909303038093020325
:1036A0008091020390910303892B29F480818F710B
:1036B00080831092AA0208954F925F926F927F9238
:1036C0008F929F92AF92BF92CF92DF92EF92FF9232
:1036D0000F931F93CF93DF93CDB7DEB7C453D14081
:1036E0000FB6F894DEBF0FBECDBF3B0123E0B22E74
:1036F000DC01BC92FE01E353FF4F04E0008382E053
:10370000818312822EEE32E0348323839AE59583FF
:103710000683878310862AEF30E0328721879387DC
:1037200057E0548785871686A7E7B1E0B08BA78757
:10373000918B028B838B148AB68BA58B978B808F92
:10374000818F128E348F238F958F6E01B3EFCB1A3A
:10375000BEEFDB0AD6011C9211968C93119712963C
:103760001C92129748EEE42E43E0F42E1496FC923D
:10377000EE92139715969C9315974BE016964C93E3
:10378000169711E017961C93179718961C92189786
:103790001A96FC92EE9219971B969C937E01BFEDB0
:1037A000EB1ABEEFFB0AD7011196FC93EE9365E08E
:1037B000962E12969C92129713961C931397159619
:1037C000DC92CE92149716968C93169717961C93AC
:1037D0001797CF5CDE4FF982E882C153D140CD5CB0
:1037E000DE4F8883C353D140CC5CDE4F1883C45373
:1037F000D140A25AB1098C931196BC92119712969E
:103800001C92129774EFE72EFF24F3941496FC9207
:10381000EE92139715969C93159716961C921697F1
:103820001796BC92179718961C9218971A963C9365
:103830002E9319971B969C931B971C964C931C9741
:103840001D968C931D971E961C921E9750963C9326
:103850002E931F9751969C935197E9E0DE2E529636
:10386000DC92529753968C93539754961C9254978C
:1038700056963C932E93559757969C9357975896E8
:103880001C92589759960C9359975A961C925A978E
:103890005C963C932E935B975D969C935D975E96AA
:1038A0001C925E975F960C935F9790961C929097F0
:1038B00092963C932E93919793969C93939794967C
:1038C0000C93949795968C93959796961C929697B1
:1038D00098963C932E93979799969C9399972E013F
:1038E000E5E54E0E511CF201508381831282348330
:1038F000238395834683B7821086328721879387F7
:103900004487B5861686308B2787918B428B838BB5
:10391000148A368B258B978BD08E818F128E348FA5
:10392000238F958F168E078F10A232A321A393A306
:103930004CE0A42EA4A285A316A2F0A6E7A244E61A
:1039400041A76E01F7EECF1AFEEFDF0AF601B18351
:10395000A083528313835582448256831783C35DA9
:10396000DE4FD982C882CD52D140C15DDE4F8883FF
:10397000CF52D140C05DDE4F1883C053D1408BA7DA
:103980008CA71DA63FA72EA798ABA9AA8AAB1BAAF6
:103990003DAB2CAB4EAB9FAA88AF19AE3BAF2AAF65
:1039A0009CAFADAE8EAF1FAE22963FAF2EAF22972B
:1039B00023964FAF239724965FAF249725968FAF1A
:1039C000259726961FAE26972896FFAEEEAE28972F
:1039D00029969FAF29972A96AFAE2A972B968FAF3D
:1039E0002B972C961FAE2C972E963FAF2EAF2E976F
:1039F0002F964FAF2F9760968FAF609761968FAFDE
:103A0000619762961FAE629764963FAF2EAF649740
:103A100065969FAF6597E057F109A0828183128276
:103A20003483238345839682878310863287218758
:103A30009387A48685871686308B2787418BA8E0DD
:103A4000A28B838B148A368B258B978B508F818F1B
:103A5000128EF48EE38E958FA68E878F10A2F2A21F
:103A6000E1A243A389838A831B823D832C839E83A7
:103A7000AF82888719863B872A874C879D868E87E9
:103A80001F86398B288B9A8BAB8A8C8B1D8A3F8B38
:103A90002E8B488F598F8A8F1B8EFD8EEC8E9E8FBA
:103AA000AF8E88A319A23BA32AA34CA39DA28EA3E9
:103AB0001FA239A728A79AA7BE0165517F4FDB0136
:103AC000AC9211968C93119712961C9212971496A1
:103AD0003C932E93139715964C93159716968C93AB
:103AE000169717968C93179718961C92189722EE94
:103AF00034E01A963C932E9319971B969C931B9730
:103B00001C96AC921C971D968C931D971E961C922A
:103B10001E975096FC92EE921F9751964C93CE01B1
:103B200083509F4F9E01255D3F4FDC0111963C93D2
:103B30002E9312965C93129713961C9313971596D7
:103B4000FC93EE93149726E016962C9316971796EF
:103B50001C9317979E012F5F3F4F19963C932E930E
:103B600018971A965C931A971B961C931B971D9691
:103B70007C936E931C971E96BC921E971F961C9367
:103B8000C75DDE4F99838883C952D140C55DDE4F42
:103B90000883CB52D140C45DDE4F1883CC52D14054
:103BA000F3018481958182309105D1F083309105B4
:103BB00059F1019709F061C00E94330380E291E05E
:103BC0000E94C62A84E391E09F938F930E94B02ABB
:103BD00060E082E00E94AC0ACE01875D9E4F27C064
:103BE0000E94330389E491E00E94C62A8DE591E0AA
:103BF0009F938F930E94B02A60E082E00E94AC0AFB
:103C0000CE018F5C9E4F13C00E94330381E791E089
:103C10000E94C62A85E891E09F938F930E94B02A64
:103C200060E082E00E94AC0ACE01835D9E4F0E945C
:103C3000D0051F921F921F921F9380E98F931F92AE
:103C400088EC8F931F9286E98F93812CA12CB12C45
:103C5000C12C80E9E82EFF24F39408EC10E026E95B
:103C600030E041E062E080E00E9451070E943303AF
:103C70000FB6F894DEBF0FBECDBF0E94380DCC5CEE
:103C8000DE4F0FB6F894DEBF0FBECDBFDF91CF91F0
:103C90001F910F91FF90EF90DF90CF90BF90AF906A
:103CA0009F908F907F906F905F904F900895CF93EB
:103CB000DF93FC0130812091C102321303C02081C7
:103CC00021111EC0EC010E9433038881813059F01C
:103CD00038F0823059F0833061F48FEB91E00BC003
:103CE0008AE991E008C086EA91E005C083EB91E0A3
:103CF00002C08CEC91E00E94C62A88818093C102A8
:103D0000DF91CF910895DC01FB019C918081981394
:103D100025C011962D913C9112978181928128178F
:103D20003907E1F413962D913C9114978381948186
:103D30002817390799F415962D913C91169785818E
:103D400096812817390751F417964D915C91189771
:103D50002781308581E04217530709F080E00895FC
:103D6000CF93DF93EC019B018091C00281110AC0C7
:103D700041E061E087EB92E00E944F0C81E080938C
:103D8000C00211C08091BD02882369F080E40E94C6
:103D9000640480E00E94570B888381E00E94570BE7
:103DA00089831092BD02DF91CF910895FC0181E0DB
:103DB000808384E690E0928381839483838380E987
:103DC00091E0968385839087878308950F931F934F
:103DD000CF93DF9300D0CDB7DEB78C0169837A83B0
:103DE0000E94F60C69817A81882349F0C8010F90FE
:103DF0000F90DF91CF911F910F910C945C1B0F904E
:103E00000F90DF91CF911F910F9108957F928F9224
:103E10009F92AF92BF92CF92DF92EF92FF920F9359
:103E20001F93CF93DF93EC01FB018181813009F077
:103E300056C0D080D81253C082E088830E943303DA
:103E400086E092E00E94C62A60E082E00E94AC0A0E
:103E50001F921F921F92DF9260E9762E7F921F922F
:103E600078EC972E9F921F928AEF8F9388248394E9
:103E7000A12CB12CC12CE0E9EE2EFF24F39408EC28
:103E800010E02AEF30E041E062E080E00E9451075C
:103E90001F921F921F92DF927F921F929F921F92FA
:103EA00086E98F93812C26E930E041E062E080E0F2
:103EB0000E94510788EC90E09A8389839C838B83CE
:103EC00080E991E09E838D8398878F838DB79EB71D
:103ED00042960FB6F8949EBF0FBE8DBFADC0D08086
:103EE00091E0D91253C082E088830E94330386E0B8
:103EF00092E00E94C62A60E082E00E94AC0A1F9213
:103F00001F921F92DF9230E9732E7F921F9248EC2E
:103F1000942E9F921F928AEF8F9388248394A12CD2
:103F2000B12CC12C50E9E52EFF24F39408EC10E0ED
:103F30002AEF30E041E062E080E00E9451071F92EA
:103F40001F921F92DF927F921F929F921F9286E98B
:103F50008F93812C26E930E041E062E080E00E940E
:103F6000510788EC90E09A8389839C838B8380E956
:103F700091E09E838D8398878F838DB79EB74296FD
:103F80000FB6F8949EBF0FBE8DBF56C0D18091E092
:103F9000D91252C082E088830E94330386E092E007
:103FA0000E94C62A60E082E00E94AC0A1F921F9223
:103FB0001F92DF9280E9782E7F921F9298EC992EC3
:103FC0009F921F928AEF8F9388248394A12CB12C07
:103FD000C12C20E9E22EFF24F39408EC10E02AEF34
:103FE00030E041E062E080E00E9451071F921F92A2
:103FF0001F92DF927F921F929F921F9286E98F936A
:10400000812C26E930E041E062E080E00E94510727
:1040100088EC90E09A8389839C838B8380E991E08C
:104020009E838D8398878F838DB79EB742960FB6F8
:10403000F8949EBF0FBE8DBFDF91CF911F910F915E
:10404000FF90EF90DF90CF90BF90AF909F908F90B8
:104050007F900895CF93DF93EC016EEA72E00E94A7
:10406000831E811114C06F8178858D819E810E948D
:10407000F6086B817C8189819A810E94930889E08E
:10408000FE01AEEAB2E001900D928A95E1F7DF9170
:10409000CF910895CF93DF93CDB7DEB72F970FB6AB
:1040A000F894DEBF0FBECDBF0E9459040E94550395
:1040B0000E94EA0782E00E94C4050E94000D813040
:1040C00051F5BE016D5F7F4F80E090E00E94400D92
:1040D0000E944B0D1092C4021092C3021092C602AD
:1040E0001092C5021092C8021092C7021092CA0222
:1040F0001092C9021092C2028AE991E00E94C62A77
:1041000088EB9BE00E94220C0E94330382E192E044
:104110000E94C62A07C00E94330384E292E00E94F4
:10412000C62AFFCF0E948C0B84FFFCCF0E94330372
:104130006DE770E0CE0101960E94B01E82EC92E025
:104140000E94D61EBE016F5F7F4F82EC92E00E94FC
:10415000E61EBE016F5F7F4F82EC92E00E94061F59
:1041600082EC92E00E942A2082EC92E00E94571E8C
:104170002FE788E391E0215080409040E1F700C0B4
:104180000000D6CFA3E1B0E0E8ECF0E20C941728F1
:104190006C014B012A01FC0117821682838181FF89
:1041A00043C3AE014F5F5F4F3A01F6019381F401C3
:1041B00093FD859193FF81914F01882309F430C3CA
:1041C000853239F493FD859193FF81914F018532BA
:1041D00039F4B60190E00E94782A52012501E5CF1A
:1041E00010E0F12C20E02032A0F48B3269F030F4A2
:1041F000803259F0833269F420612CC08D3239F05D
:10420000803339F4216026C02260246023C02860F6
:1042100021C027FD27C030ED380F3A3078F426FF53
:1042200006C0FAE01F9F300D1124132F13C04AE07F
:10423000F49E300D1124F32E20620CC08E3221F436
:1042400026FDEEC2206406C08C3611F4206802C040
:10425000883641F4F40193FD859193FF81914F01DC
:104260008111C1CF9BEB980F933018F42061805ED1
:1042700006C09BE9980F933008F071C12F7E26FF8E
:1042800016E02F73322E853619F42064322E08C0C2
:10429000863621F4F22FF0683F2E02C01111115022
:1042A00037FE07C01C3350F4EE24E394E10E27E000
:1042B0000BC0183038F027E017E005C027E04CE3CA
:1042C000E42E02C0212FE12C520144E0A40EB11CC7
:1042D000F20160817181828193810E2DA3010E9480
:1042E0008A292C01098100FF02C003FF07C031FCAD
:1042F00008C032FE09C030E2232E07C02DE2222E74
:1043000004C09BE2292E01C0212C802F8C7019F053
:10431000211068C2A8C237FE0FC0E40C04FF04C01D
:104320008A81813309F4EA941E1474F5F8E0FE15CD
:1043300078F588E0E82E2CC036FC2AC0812F90E06A
:10434000841595059CF02CEF42162FEF520674F061
:10435000432D4068342E0AC0E2E0F0E0EC0FFD1F70
:10436000E10FF11D8081803319F411501111F4CF48
:1043700037FE0EC0EE24E394E10E812F90E0481644
:1043800059062CF4141904C0EE24E39401C010E083
:1043900037FE06C01414150434F4C201019605C09A
:1043A00085E090E002C081E090E0211001961123A9
:1043B00031F0212F30E02F5F3F4F820F931F2F2DC1
:1043C00030E08217930714F4F81A01C0F12C832D02
:1043D000897049F4FF2039F0B60180E290E00E9434
:1043E000782AFA94F7CF222029F0B601822D90E0A6
:1043F0000E94782A33FC09C0FF2039F0B60180E31F
:1044000090E00E94782AFA94F7CF37FE5AC0942D94
:10441000852D57FE02C090E080E0292E382E20E046
:1044200030E0A2014E1951095D874C87A201421963
:1044300053095F874E87612F70E044275527461B3D
:10444000570B598B488B5FEF2516350649F4B6019B
:104450008EE290E02A8B3B8B0E94782A3B892A8946
:10446000421453046CF04C855D854215530544F4A9
:10447000EE85FF85E20FF31FE60DF71D818101C078
:1044800080E351E0251A31082F5F3F4F4889598951
:10449000241635064CF0B60190E02A8B3B8B0E9427
:1044A000782A2A893B89CFCF2414350439F49A819C
:1044B000963318F4953311F404FF81E3B60190E0CC
:1044C0004BC08A81813309F00F7EB60190E00E94D3
:1044D000782A111105C034FC18C085E690E017C099
:1044E000B6018EE290E00E94782A82E0EE24E39406
:1044F000E80EF301E80FF11D8081B60190E00E9403
:10450000782A11508E2D91F7E6CF85E490E0B60120
:104510000E94782A57FC05C04114510439F404FF65
:1045200005C05194419451088DE201C08BE2B6015F
:1045300090E00E94782A80E39AE0491651042CF01A
:104540008F5F5AE0451A5108F7CFB60190E00E94FC
:10455000782AB601C201C0960E94782A57C18336D4
:1045600031F0833779F0833509F058C021C052010A
:10457000E2E0AE0EB11CF2018081898301E010E01F
:10458000230114C05201F2E0AF0EB11CF2014080D1
:10459000518026FF03C0612F70E002C06FEF7FEFF4
:1045A000C2012A8B0E946D2A8C012A892F7715C09F
:1045B0005201F2E0AF0EB11CF2014080518026FFA3
:1045C00003C0612F70E002C06FEF7FEFC2012A8B42
:1045D0000E94622A8C012A892068322E23FD1AC08B
:1045E0008F2D90E008171907A8F4B60180E290E03B
:1045F0000E94782AFA94F4CFF20137FC859137FEB5
:1046000081912F01B60190E00E94782AF110FA946E
:10461000015011090115110579F7F8C0843611F020
:10462000893659F5520127FF09C0F4E0AF0EB11CDD
:10463000F20160817181828193810AC0F2E0AF0E44
:10464000B11CF20160817181072E000C880B990B5F
:104650002F76322E97FF09C09095809570956195C1
:104660007F4F8F4F9F4F2068322E2AE030E0A3010A
:104670000E94F62AE82EE6183FC0022F853721F463
:104680000F7E2AE030E01DC0097F8F3691F018F4CC
:10469000883559F0C5C0803719F0883711F0C0C08F
:1046A000006104FF09C0046007C024FF08C0066061
:1046B00006C028E030E005C020E130E002C020E183
:1046C00032E0520107FF09C0F4E0AF0EB11CF20165
:1046D000608171818281938108C0F2E0AF0EB11CCC
:1046E000F2016081718180E090E0A3010E94F62ACE
:1046F000E82EE6180F77302E36FE0BC0332D3E7FA6
:10470000E11650F434FE0AC032FC08C0332D3E7E60
:1047100005C00E2D332D03C00E2D01C0012F34FF17
:104720000CC0FE01EE0DF11D8081803311F4397E45
:1047300008C032FF05C00E5F04C0832F867809F0E1
:104740000F5F33FD13C030FF06C01E2D0F1518F488
:104750001F0D101B0F2D0F1568F4B60180E290E0BD
:104760003B8B0E94782A0F5F3B89F5CF0F1510F421
:10477000F01A01C0F12C34FF12C0B60180E390E0C2
:104780003B8B0E94782A3B8932FF17C031FD03C062
:1047900088E790E002C088E590E0B6010CC0832F66
:1047A000867859F031FF02C08BE201C080E237FD0C
:1047B0008DE2B60190E00E94782AE11638F4B60145
:1047C00080E390E00E94782A1150F7CFEA94F30139
:1047D000EE0DF11D8081B60190E00E94782AE11073
:1047E000F5CF14C0F4E0FF1558F584E0F81A33FE55
:1047F0001EC0211026C003FF2AC00EEF10E0F32DCB
:10480000F0713F2EF8018491811124C0FF2009F43A
:10481000E5CCB60180E290E00E94782AFA94F6CFC7
:10482000F6018681978126C08FEF9FEF23C0B601E6
:1048300080E290E00E94782AFA94F110F8CFD9CF64
:10484000F12CB601822D90E00E94782AD4CF02E0AC
:1048500011E0D5CF31108052B60190E00E94782A45
:104860000F5F1F4FCFCF23E02F1510F483E0BECF93
:10487000F12CC1CF6396E2E10C9433280E945224BC
:104880000C9404250E94FD2458F00E94F62440F068
:1048900029F45F3F29F00C94ED2451110C94382534
:1048A0000C94F3240E94152568F39923B1F3552342
:1048B00091F3951B550BBB27AA2762177307840733
:1048C00038F09F5F5F4F220F331F441FAA1FA9F3C9
:1048D00035D00E2E3AF0E0E832D091505040E695B7
:1048E000001CCAF72BD0FE2F29D0660F771F881F18
:1048F000BB1F261737074807AB07B0E809F0BB0B0B
:10490000802DBF01FF2793585F4F3AF09E3F51051E
:1049100078F00C94ED240C9438255F3FE4F3983E36
:10492000D4F3869577956795B795F7959F5FC9F707
:10493000880F911D9695879597F90895E1E0660F88
:10494000771F881FBB1F621773078407BA0720F001
:10495000621B730B840BBA0BEE1F88F7E09508956A
:10496000E89409C097FB3EF4909580957095619509
:104970007F4F8F4F9F4F9923A9F0F92F96E9BB27BF
:104980009395F695879577956795B795F111F8CF3B
:10499000FAF4BB0F11F460FF1BC06F5F7F4F8F4FA6
:1049A0009F4F16C0882311F096E911C0772321F09C
:1049B0009EE8872F762F05C0662371F096E8862F34
:1049C00070E060E02AF09A95660F771F881FDAF78B
:1049D000880F9695879597F9089597F99F6780E8CE
:1049E00070E060E008959FEF80EC089500240A9441
:1049F0001616170618060906089500240A941216BA
:104A00001306140605060895092E0394000C11F4EC
:104A1000882352F0BB0F40F4BF2B11F460FF04C099
:104A20006F5F7F4F8F4F9F4F089557FD9058440FF2
:104A3000551F59F05F3F71F04795880F97FB991FFD
:104A400061F09F3F79F087950895121613061406BA
:104A5000551FF2CF4695F1DF08C016161706180647
:104A6000991FF1CF86957105610508940895E89422
:104A7000BB2766277727CB0197F908950E941D254C
:104A8000A8F19E57B0F1985160F039F1983070F567
:104A9000092E9927660F771F881F991F0A94D1F74F
:104AA0001CC0BB27993F4CF4B111B1E0B62B672F66
:104AB000782F8827985FB1F708C086957795679516
:104AC000B79508F4B1609395C1F7BB0F30F411F4BA
:104AD00060FF03C06F5F7F4F8F4F3EF490958095CE
:104AE000709561957F4F8F4F9F4F089568940C94F8
:104AF00038250C9437250E948E250C9404250E949D
:104B0000F62438F00E94FD2420F0952311F00C9437
:104B1000ED240C94F32411240C9438250E941525BF
:104B200070F3959FC1F3950F50E0551F629FF00100
:104B3000729FBB27F00DB11D639FAA27F00DB11D19
:104B4000AA1F649F6627B00DA11D661F829F2227A2
:104B5000B00DA11D621F739FB00DA11D621F839F29
:104B6000A00D611D221F749F3327A00D611D231FFF
:104B7000849F600D211D822F762F6A2F11249F574D
:104B800050409AF0F1F088234AF0EE0FFF1FBB1F50
:104B9000661F771F881F91505040A9F79E3F51050F
:104BA00080F00C94ED240C9438255F3FE4F3983E9C
:104BB000D4F3869577956795B795F795E7959F5FB9
:104BC000C1F7FE2B880F911D9695879597F908954B
:104BD000FA01EE0FFF1F309621053105A1F1611595
:104BE000710561F48038BFE39B0749F16894903800
:104BF000810561F08038BFEF9B0741F099234AF5AA
:104C0000FF3FE1053105210519F1E8940894E79586
:104C1000D901AA2329F4AB2FBE2FF85FD0F310C01F
:104C2000FF5F70F4A695E0F7F73950F019F0FF3AFE
:104C300038F49F779F930DD00F9007FC90580895FC
:104C400046F00C94F32460E070E080E89FE3089560
:104C50004FE79F775F934F933F932F930E94E326F5
:104C60002F913F914F915F910E947B250C9440269C
:104C700029F416F00C94ED240C9437250C94F324AD
:104C80000E941D25A8F39638A0F707F80F92E89424
:104C90002BE33AEA48EB5FE70E9491250F920F92CF
:104CA0000F924DB75EB70F920E942B27ECE7F0E012
:104CB0000E9472264F915F91EF91FF91E595EE1F53
:104CC000FF1F49F0FE57E0684427EE0F441FFA9596
:104CD000E1F74195550B0E94A5260F9007FE0C9415
:104CE00099260895DF93CF931F930F93FF92EF922E
:104CF000DF927B018C01689406C0DA2EEF010E94DE
:104D00008E25FE01E894A591259135914591559107
:104D1000A6F3EF010E947727FE019701A801DA941C
:104D200069F7DF90EF90FF900F911F91CF91DF9186
:104D300008959B01AC0160E070E080E89FE30C9473
:104D40003E240C94ED240C94CC270E941D25D8F30E
:104D50009923C9F3940F511DA3F39150504094F03F
:104D600059F0882332F0660F771F881F915050400A
:104D7000C1F79E3F51052CF7880F911D9695879599
:104D800097F908955F3FACF0983E9CF0BB2786955D
:104D900077956795B79508F4B1609395C1F7BB0F08
:104DA00058F711F460FFE8CF6F5F7F4F8F4F9F4F31
:104DB000E3CF0C94382516F00C94CC270C94F324F4
:104DC00068940C94ED240E941D25A8F39923C1F347
:104DD000AEF3DF93CF931F930F93FF92C92FDD277D
:104DE00088232AF02197660F771F881FDAF720E0C3
:104DF00030E040E85FEB9FE3883920F0803E38F0F8
:104E000021968F770E946027E4EAF0E004C00E94B8
:104E10006027E1EDF0E00E9472268B01BE01EC01FB
:104E2000FB2E6F5771097595771F880B990B0E94A0
:104E3000B22428E132E741E35FE30E948E25AF2DE3
:104E40009801AE01FF900F911F91CF91DF910E94C9
:104E500077270C940425FA01DC01AA0FBB1F9B01E4
:104E6000AC01BF5728F4222733274427507820C0AD
:104E7000B75190F4AB2F0024469537952795011C28
:104E8000A395D2F3002071F0220F331F441FB39576
:104E9000DAF30ED00C945F2761307105A0E88A0721
:104EA000B94630F49B01AC016627772788279078B4
:104EB000309621F0208331834283538308955058E4
:104EC000BB27AA270E9477270C9404250E94F6246A
:104ED00038F00E94FD2420F039F49F3F19F426F4A5
:104EE0000C94F3240EF4E095E7FB0C94ED24E92FE9
:104EF0000E94152558F3BA176207730784079507B0
:104F000020F079F4A6F50C9437250EF4E0950B2EDD
:104F1000BA2FA02D0B01B90190010C01CA01A0010B
:104F20001124FF27591B99F0593F50F4503E68F166
:104F30001A16F040A22F232F342F4427585FF3CFA7
:104F4000469537952795A795F0405395C9F77EF478
:104F50001F16BA0B620B730B840BBAF09150A1F0C1
:104F6000FF0FBB1F661F771F881FC2F70EC0BA0F47
:104F7000621F731F841F48F4879577956795B795CF
:104F8000F7959E3F08F0B0CF9395880F08F09927CA
:104F9000EE0F9795879508959F3F31F0915020F43B
:104FA000879577956795B795880F911D9695879505
:104FB00097F90895DB018F939F930E940C28BF916E
:104FC000AF91A29F800D911DA39F900DB29F900D58
:104FD00011240895A1E21A2EAA1BBB1BFD010DC0CE
:104FE000AA1FBB1FEE1FFF1FA217B307E407F50799
:104FF00020F0A21BB30BE40BF50B661F771F881F75
:10500000991F1A9469F760957095809590959B010A
:10501000AC01BD01CF0108950E944E28A59F900DBF
:10502000B49F900DA49F800D911D112408952F927F
:105030003F924F925F926F927F928F929F92AF9228
:10504000BF92CF92DF92EF92FF920F931F93CF9375
:10505000DF93CDB7DEB7CA1BDB0B0FB6F894DEBF0C
:105060000FBECDBF09942A88398848885F846E8432
:105070007D848C849B84AA84B984C884DF80EE807C
:10508000FD800C811B81AA81B981CE0FD11D0FB685
:10509000F894DEBF0FBECDBFED010895A29FB00111
:1050A000B39FC001A39F700D811D1124911DB29F5C
:1050B000700D811D1124911D0895CF93DF938230CF
:1050C000910510F482E090E0E0917703F09178038D
:1050D00020E030E0C0E0D0E0309711F14081518114
:1050E00048175907C0F04817590761F48281938126
:1050F000209719F09B838A832BC090937803809329
:10510000770326C02115310519F04217530718F40B
:105110009A01BE01DF01EF010280F381E02DDCCFB7
:105120002115310509F1281B390B2430310590F484
:1051300012968D919C9113976115710521F0FB01D9
:105140009383828304C09093780380937703FD0157
:10515000329644C0FD01E20FF31F819391932250D8
:1051600031092D933C933AC0209175033091760319
:10517000232B41F420911C0130911D0130937603C3
:105180002093750320911A0130911B0121153105DF
:1051900041F42DB73EB740911E0150911F01241BD1
:1051A000350BE0917503F0917603E217F307A0F455
:1051B0002E1B3F0B2817390778F0AC014E5F5F4F6D
:1051C0002417350748F04E0F5F1F50937603409326
:1051D00075038193919302C0E0E0F0E0CF01DF918D
:1051E000CF9108950F931F93CF93DF93009709F406
:1051F0008CC0FC01329713821282009177031091C8
:1052000078030115110581F420813181820F931FEC
:1052100020917503309176032817390779F5F093BB
:105220007603E093750371C0D80140E050E0AE17FB
:10523000BF0750F412962D913C911397AD012115A3
:10524000310509F1D901F3CF9D01DA0133832283BE
:1052500060817181860F971F8217930769F4EC01B3
:1052600028813981260F371F2E5F3F4F31832083DE
:105270008A819B8193838283452B29F4F093780361
:10528000E093770342C01396FC93EE931297ED01DF
:10529000499159919E01240F351FE217F30771F4CC
:1052A00080819181840F951F029611969C938E9315
:1052B0008281938113969C938E931297E0E0F0E0A5
:1052C000D80112968D919C911397009719F0F801CF
:1052D0008C01F6CF8D919C9198012E5F3F4F820FEC
:1052E000931F20917503309176032817390769F4CD
:1052F000309729F4109278031092770302C013823A
:1053000012821093760300937503DF91CF911F9162
:105310000F910895283008F027E03327DA01990F1C
:10532000311D87FD916000966105710539F4326089
:105330002E5F3D9330E32A95E1F708959F3F30F0CB
:1053400080387105610509F03C5F3C5F3D93913009
:1053500008F08068911DDF93CF931F930F93FF9206
:10536000EF92192F987F9695E92F96959695E90FCC
:10537000FF27E05AFE4F99273327EE24FF24A70189
:10538000E70105900894079428F4360FE71EF81EED
:10539000491F511D660F771F881F991F0694A1F79B
:1053A0000590079428F4E70EF81E491F561FC11DEB
:1053B000770F881F991F661F0694A1F70590079421
:1053C00028F4F80E491F561FC71FD11D880F991FBB
:1053D000661F771F0694A1F70590079420F4490FE4
:1053E000561FC71FD81F990F661F771F881F069467
:1053F000A9F784911095177041F0D695C7955795E8
:105400004795F794E7941A95C1F7E6E0F1E06894C0
:105410001590159135916591959105907FE2739561
:10542000E118F10A430B560BC90BD009C0F7E10C88
:10543000F11E431F561FC91FD01D7EF4703311F497
:105440008A95E6CFE894015030F0080F0AF400275F
:10545000021708F4202F2395022F7A3328F079E3DE
:105460007D932A95E9F710C07D932A9589F60694D5
:1054700097956795379517951794E118F10A430B9F
:10548000560BC90BD00998F023957E9173957A330A
:1054900008F070E37C932013B8F77E9170617D93E0
:1054A00030F0839571E37D9370E32A95E1F7112441
:1054B000EF90FF900F911F91CF91DF91992787FD7A
:1054C00090950895FC010590615070400110D8F747
:1054D000809590958E0F9F1F0895FC01615070403C
:1054E00001900110D8F7809590958E0F9F1F089519
:1054F0000F931F93CF93DF93FB01238121FD03C003
:105500008FEF9FEF28C022FF16C04681578124816C
:1055100035814217530744F4A081B1819D012F5F6B
:105520003F4F318320838C93268137812F5F3F4FFC
:105530003783268310C0EB01092F182F0084F185D3
:10554000E02D0995892BE1F68E819F8101969F833D
:105550008E83812F902FDF91CF911F910F9108950E
:10556000A0E0B0E0E6EBFAE20C942728AE014B5F36
:105570005F4FFA0161917191AF0180917B0390912E
:105580007C030E94C220E2E00C9443280F931F93F7
:10559000CF93DF93E0917B03F0917C03238121FF84
:1055A0001BC08C01D0E0C0E0F80181918F016091B7
:1055B0007B0370917C03DB011896ED91FC911997A8
:1055C000882331F00995892B79F3DFEFCFEFECCF0A
:1055D0008AE00995892B19F08FEF9FEF02C08D2F7C
:1055E0009C2FDF91CF911F910F910895FA01AA2767
:1055F000283051F1203181F1E8946F936E7F6E5F16
:105600007F4F8F4F9F4FAF4FB1E03ED0B4E03CD0C3
:10561000670F781F891F9A1FA11D680F791F8A1FA6
:10562000911DA11D6A0F711D811D911DA11D20D00D
:1056300009F468943F912AE0269F11243019305DC7
:105640003193DEF6CF010895462F4770405D4193B8
:10565000B3E00FD0C9F7F6CF462F4F70405D4A3305
:1056600018F0495D31FD4052419302D0A9F7EACFCD
:10567000B4E0A6959795879577956795BA95C9F7FC
:1056800000976105710508959B01AC010A2E0694EF
:105690005795479537952795BA95C9F7620F731FA8
:0C56A000841F951FA01D0895F894FFCFF3
:1056AC0002010303000000020000000008100000CB
:1056BC000000180C041060C0802000007F03200044
:1056CC00436F6C6F72205369676E617475726520DD
:1056DC0023310A0022536D6F6B65206F6E20746846
:1056EC00652057617465722200436F6C6F72205392
:1056FC0069676E61747572652023320A00225365E6
:10570C0076656E204E6174696F6E2041726D7922E0
:10571C0000436F6C6F72205369676E6174757265AC
:10572C002023330A0022552043616E277420546FC6
:10573C0075636820546869732200537461727469CC
:10574C006E672E2E2E004578706C6F72696E672E08
:10575C002E2E0041766F6964696E672E2E2E0046E0
:10576C006F6C6C6F77696E672E2E2E00556E6B6E9C
:10577C006F776E207374617465210043656E7420BD
:10578C003D20282025642C20256420290900773A07
:10579C002025642C20683A2025640900736967234E
:1057AC003A202564090041564F4944494E472E2E54
:1057BC002E00507265737320533320746F20626512
:1057CC0067696E00464154414C3A20506978792003
:0857DC006661696C656421003F
:00000001FF
