S00C00004C6162392E73726563D0
S11300000C940B030C9428030C9428030C942803DD
S11300100C94270A0C94500A0C94790A0C94A20AA2
S11300200C9428030C9408090C9431090C945A0973
S11300300C94D5090C9483090C94AC090C94FE0916
S11300400C948D080C94B6080C94DF080C942803C7
S11300500C9428030C9428030C9428030C94280370
S11300600C9428030C9428030C9428030C94280360
S11300700C9437100C9428030C942803076342361D
S1130080B79BD8A71A39685618AEBAAB558C1D3C25
S1130090B7CC5763BD6DEDFD753EF6177231BF00E9
S11300A00000803F08000000BE922449123EABAA23
S11300B0AA2ABECDCCCC4C3E00000080BEABAAAA7E
S11300C0AA3E00000000BF000000803F00000000C6
S11300D000084178D3BB4387D1133D190E3CC3BDFF
S11300E04282AD2B3E68EC8276BED98FE1A93E4CAC
S11300F080EFFFBE01C4FF7F3F00000000006E617F
S11301006E00696E660000407A10F35A00A0724EC9
S113011018090010A5D4E80000E87648170000E4A8
S11301200B54020000CA9A3B000000E1F5050000F0
S113013080969800000040420F000000A086010055
S11301400000102700000000E80300000000640025
S1130150000000000A000000000001000000000090
S11301602C76D888DC674F0823DFC1DFAE59E1B1B4
S1130170B796E5E3E453C63AE651997696E8E6C2C3
S11301808426EB898C9B62ED407C6FFCEFBC9C9FCA
S113019040F2BAA56FA5F490055A2AF75C936B6CEC
S11301A0F9676DC11BFCE0E40D47FEF520E6B500E0
S11301B0D0ED902E0300943577050080841E08004E
S11301C000204E0A000000C80C333333330F986EFE
S11301D012831141EF8D2114893BE65516CFFEE6BB
S11301E0DB18D1844B381BF77C1D901DA4BBE42481
S11301F0203284725E228100C9F124ECA1E53D27FE
S113020016050100000000000000FA000000E000F4
S1130210E00028FE28FE282454FE5448C4C81026B2
S1130220466C92AA44A000A0C0000000384482009A
S1130230008244380028107C102810107C10100014
S11302400A0C00001010101010000606000004082C
S11302501020407C8A92A27C0042FE020042868AE0
S113026092628482A2D28C182848FE08E4A2A2A238
S11302709C3C5292920C808E90A0C06C9292926C94
S11302806092929478006C6C0000006A6C0000101C
S113029028448200282828282800824428104080E6
S11302A08A90604C929E827C7E8888887EFE9292A0
S11302B0926C7C82828244FE82824438FE929292C4
S11302C082FE909090807C8292925EFE101010FECE
S11302D00082FE8200040282FC80FE10284482FE1A
S11302E002020202FE403040FEFE201008FE7C8224
S11302F082827CFE909090607C828A847AFE9098C0
S11303009462629292928C8080FE8080FC0202024F
S1130310FCF8040204F8FC021C02FCC6281028C6DF
S1130320E0100E10E0868A92A2C200FE8282004093
S113033020100804008282FE002040804020020237
S11303400202020080402000042A2A2A1EFE1222F1
S1130350221C1C222222041C222212FE1C2A2A2ACB
S113036018107E908040304A4A4A7CFE1020201E9D
S11303700022BE0200040222BC00FE081422000077
S113038082FE02003E2018201E3E1020201E1C2249
S113039022221C3E28282810102828183E3E10200F
S11303A02010122A2A2A0420FC2202043C020204FD
S11303B03E38040204383C020C023C221408142285
S11303C0300A0A0A3C22262A322200106C820000DB
S11303D000FE000000826C100008101008100000DD
S11303E00000007F8181817F7F8383837F7F878774
S11303F0877F7F8F8F8F7F7F9F9F9F7F7FBFBFBFB1
S11304007F7FFFFFFF7F2040FF40206215171565A7
S113041000FBFB00000000000000C0FF0300E0FF41
S11304200700F0FF0F00F8FF1F0078001E0078009F
S11304301E0078001E0078001E0078001E00780060
S11304401E0078001E0078001E0078001E000000C8
S113045000000000000080FF0300E0FF0700F0FF41
S11304600F00F8FF1F00F83C1F00783C1E00783C8A
S11304701E00783C1E00783C1E00783C1E00783C30
S11304801E00783C1E00783C1E00783C1E00783C20
S11304901E000000000000000000E0FF0300F0FF69
S11304A00700F8FF0F00F8FF1F00783C1E00783C9F
S11304B01E00783C1E00783C1E00783C1E00783CF0
S11304C01E00783C1E00783C1E00783C1E00783CE0
S11304D01E000000000000000000F8FF0300F8FF09
S11304E00F00F8FF1F00F8FF1F0000001E000000AF
S11304F01E0000801F0000F01F0000FF0F00E0FF3F
S11305000700F0FF0000F80F0000F800000078007A
S1130510000078000000F8FF1F00F8FF1F00F0FF44
S11305201F00E0FF1F000000000000000000F8FFB3
S11305301F00F8FF1F00F8FF1F00F8FF1F007800DE
S11305401E00783C1E00783C1E00783C1E00783C5F
S11305501E00783C1E00783C1E00F87E1F00F8FF49
S11305601F00F0FF0F00E0E70300000000000000A0
S11305703800EEFF6C002A8045003A0047FC03FF78
S11305806CFC83FF3900DEFF0B7CD0810BFCD08137
S11305900BC0D0810BFCD0810B7CDEFF0B0082FFF3
S11305A0397002FF6CF83A0047DC2A8045CCEEFF34
S11305B06CCC000038000000000C00001E0C000091
S11305C01E0000001E0000001E0000001E00F8FFB8
S11305D01F00F8FF1F00F8FF1F00F8FF1F000000B6
S11305E01E0000001E0000001E0000001E0000008F
S11305F05E000000400000007C000000400000009D
S1130600400000007C0000003000000010000000EA
S1130610300000007C0011241FBECFEFD8E0DEBF05
S1130620CDBF11E0A0E0B1E0E0E5F2E402C0059046
S11306300D92AA3BB107D9F722E0AAEBB1E001C0C1
S11306401D92A83EB207E1F70E942A030C942621CA
S11306500C9400000E948B080E947D080E944216A0
S113066080E090E008950F931F9385E00E94680650
S11306708823C1F080E460E00E94300400E0802F11
S113068060E00E94DB0310E080E061E00E9430043F
S11306901F5F1038C9F70F5F043089F783E060E00B
S11306A00E941E041F910F9108950F931F9385E0DC
S11306B00E945B06882311F082E07AC00E947204D3
S11306C0182F0E94A5061150123008F06DC08150F9
S11306D0823008F069C00E944B048EEA60E00E94F8
S11306E0300482EA60E00E94300480EA60E00E9404
S11306F0300400E513ECC8010197F1F780EC60E0E9
S11307000E9430048FE260E00E94300481E860E0DF
S11307100E94300486E160E00E94300482E260E0DE
S11307200E943004C8010197F1F78FEA60E00E944B
S1130730300486EA60E00E94300485EA60E00E94AA
S1130740300480E090E028E833E1F9013197F1F7D3
S1130750019643E0883E9407C1F783EB60E00E9472
S1130760300480E460E00E94300483E060E00E9492
S1130770DB0383E060E00E941E0410924B0210929F
S11307804D0210924C0280E091E09093E502809338
S1130790E40288E10E94FD030E94330384EA60E0DE
S11307A00E94300481E004C085E00E944B0687E08B
S11307B01F910F910895FF920F931F93082FF62E08
S11307C085E00E9468068823A1F01F2D1F7703701F
S11307D0802F806B60E00E94300412951F70812F7F
S11307E0806160E00E9430048F2D8F7060E00E9471
S11307F030041F910F91FF9008951F93182F85E0E7
S11308000E9468068823C1F087E00E94B40482E055
S11308106AE00E94050582E061EB0E940505612FF4
S1130820113208F060E282E00E94050589EE8A95A3
S1130830F1F787E00E94B4041F9108950F931F936A
S1130840082F162F85E00E946806882331F0037074
S11308501F771093490200934A021F910F91089544
S11308600F931F93082F162F85E00E946806882394
S113087079F0112319F0113021F402C02B9801C032
S11308802B9A86E08A95F1F780E0602F0E94050597
S11308901F910F910895239A08951F93182F86E0AE
S11308A00E946806882319F0812F0E9464041F9116
S11308B0089586E00E945B06882311F082E0089583
S11308C00E94690481E0089585FD5D9886FD5E9827
S11308D00895559A569A80E20E944D0480E40E943D
S11308E04D04089582E00E945B06882311F082E0A3
S11308F008950E94140580E06FEF7BE00E94AB0432
S113090081E067EF7BE00E94AB0482E06FEE7BE066
S11309100E94AB0486E067E07CE00E94AB0483E0C5
S113092067EE7BE00E94AB0484E067EE7BE00E940C
S1130930AB0485E067EE7BE00E94AB0487E067EEE2
S11309407BE00E94AB048FEF80934E0287E00E940D
S1130950B40481E00895E82FF0E0EE0FFF1FE650A5
S1130960FE4F7183608308951F93182F82E00E94C5
S11309706806882309F447C0912F977080914E022E
S1130980981709F440C090934E0285B1887F892B53
S113099085B9933011F1943028F4913051F09230AC
S11309A090F40CC0953019F19530E0F0963021F5B3
S11309B00FC0E091FC01F091FD0122C0E091FA0129
S11309C0F091FB011DC0E091FE01F091FF0118C000
S11309D0E0910602F091070213C0E0910002F09149
S11309E001020EC0E0910202F091030209C0E091FD
S11309F00402F091050204C0E0910802F09109029A
S1130A00309709F009951F9108951F93162F0E949E
S1130A10B40482E00E946806882321F01EBD0DB450
S1130A2007FEFDCF1F910895259A2698279A209AAC
S1130A30219A229A089587E00E945B06882311F088
S1130A4082E008950E94410681E08093850210921D
S1130A504F021092500210925202109251021092C0
S1130A6054021092530210925602109255021092A0
S1130A7058021092570210925A0210925902109280
S1130A805C0210925B0210925E0210925D02109260
S1130A90600210925F021092620210926102109240
S1130AA06402109263021092660210926502109220
S1130AB068021092670210926D0210926E021092F8
S1130AC06F021092700210927202109273021092CE
S1130AD074021092750210927602109277021092AC
S1130AE0780210927A021092790210927C0210928B
S1130AF07B0210927E0210927D021092800210926C
S1130B007F0210926A021092690210926C02109293
S1130B106B0210928402109283021092850208954F
S1130B202EEF8037920714F480E79EEFFC0181E0FA
S1130B30E139F80714F0E0E9F1E09B018EEF60374A
S1130B40780714F420E73EEFA90121E04139520768
S1130B5014F040E951E08F2F881F8827881F252F24
S1130B60221F2227221F91E0909385028093720214
S1130B7020937302CF01F7FF03C0909581959F4F97
S1130B809A0157FF03C0309521953F4F909352022D
S1130B9080935102309354022093530210928502A1
S1130BA0089521E020938502AC0183E0493E580773
S1130BB010F048EE53E09B0183E0693E780710F0A3
S1130BC028EE33E0F89450935A024093590230933C
S1130BD05C0220935B027894109285020895482F5A
S1130BE081E080938502CB0121E06139720710F026
S1130BF080E991E0413061F0413018F04230C9F4AD
S1130C000EC0F8949093520280935102789411C0CC
S1130C10F894909354028093530278940AC0F89401
S1130C209093520280935102909354028093530202
S1130C3078941092850208950F931F93182F062F0E
S1130C40662349F460E070E00E94EF05812F60E0C4
S1130C5070E00E948F0D81E080938502113051F085
S1130C60113018F0123041F403C000936D0204C037
S1130C7000936D0200936E02109285021F910F91F2
S1130C8008953A9A3B9A3C9A3D9A3E9A3F9A88B183
S1130C90837088B90895853160F4E82FF0E0EC5C46
S1130CA0FD4F8081882329F0808181508083808159
S1130CB008958FEF0895853110F080E00895E82FAE
S1130CC0F0E0EC5CFD4F80818F5F8083815008955C
S1130CD0853110F080E00895E82FF0E0EC5CFD4FE2
S1130CE08081811181E008950F931F9381E00E9418
S1130CF06806882311F400E024C087E00E94B4044D
S1130D0082E06AE00E94050582E062EB0E9405052C
S1130D1018EC812F8A95F1F782E060E00E94100CB4
S1130D20082F812F8A95F1F782E060E00E94100C71
S1130D301A95F1F787E00E94B40488E893E10197DB
S1130D40F1F7802F1F910F910895DF93CF9300D077
S1130D500F92CDB7DEB781E00E945B06882311F0C5
S1130D6082E011C00E9472048150823040F40E94DB
S1130D70C906CE0101960E94C10D81E004C081E044
S1130D800E944B0687E00F900F900F90CF91DF9158
S1130D90089510929D0210929C0210929F0210924C
S1130DA09E021092A1021092A0021092A30210922D
S1130DB0A2021092A5021092A40280E991E09093FD
S1130DC089028093880290938B0280938A02909385
S1130DD08D0280938C0290938F0280938E02909365
S1130DE091028093900284E398E09093930280931D
S1130DF09202909395028093940290939702809329
S1130E009602909399028093980290939B02809308
S1130E109A0208950F931F93DF93CF93CDB7DEB754
S1130E2029970FB6F894DEBF0FBECDBF8C0188E0C2
S1130E300E946806882311F491E00DC0CE0101964A
S1130E4061E040E098010E943707982F882319F445
S1130E508F818823E9F3892F29960FB6F894DEBF92
S1130E600FBECDBFCF91DF911F910F910895EF92E7
S1130E70FF920F931F93CF93DF93EC01F62EE42E92
S1130E80890188E00E946806882311F481E026C065
S1130E9084E090E00E94451EFC01009711F482E07A
S1130EA01DC0F982F0FC1E8281E0E81619F48981E4
S1130EB0846089838981886089831B830A831D8375
S1130EC00C83D183C0831382128281E080931A023F
S1130ED0CF010E94750710921A0280E0DF91CF9132
S1130EE01F910F91FF90EF900895CF92DF92EF92B0
S1130EF0FF920F931F93CF93DF93EC018091A6028F
S1130F00882339F4D093A802C093A7020E941A0E32
S1130F1047C0C090A702D090A80200E010E0EE24E1
S1130F20FF2437C0A881B981FD0164817581F60170
S1130F3040815181FA01848195819B01281B390BE1
S1130F4037FF0FC0861B970B95838483DB82CA828D
S1130F50012B29F4D093A802C093A70221C0F70162
S1130F600CC0F601828193812115310549F4FD01FC
S1130F70158214829B838A83F601D383C28310C0B3
S1130F80FD01358324830097B9F30F5F1F4F76016A
S1130F906C018091A60290E00817190718F2ECCFB3
S1130FA08091A6028F5F8093A602DF91CF911F915B
S1130FB00F91FF90EF90DF90CF900895E091D902C8
S1130FC0F091DA02309711F480E008958485089551
S1130FD0EF92FF920F931F930E94351084E10E94B9
S1130FE05B06882311F082E026C08EE00E9468062A
S1130FF08823E9F481E00E943A0F8130C1F40E9411
S113100069080E946A0881E063E040E020E0E12C86
S113101092ECF92E91E0092F112D0E94920E0E945C
S11310203B08882311F486E006C081E004C084E113
S11310300E944B0687E01F910F91FF90EF90089557
S1131040E091D902F091DA02309709F014860895FC
S11310509093D8028093D7027093DA026093D902F6
S11310600E942008089581E00E94290F81E061E038
S11310700E94C80F0895EF92FF920F931F93DF937E
S1131080CF930F92CDB7DEB781E061E00E94C80F25
S113109000E010E07E010894E11CF11C81E0B7013E
S11310A00E94740F882311F010E006C00F5F1F4FD9
S11310B00A30110599F711E081E060E00E94C80F41
S11310C0812F0F90CF91DF911F910F91FF90EF909F
S11310D0089508951092D5021092D6021092D80263
S11310E01092D7021092DA021092D9021092DB0207
S11310F01092DD021092DC0208950E94AA0D0E9453
S1131100890B0E94CB0A0E94FE0D0E9472040E9469
S1131110A50678940895000008951F920F920FB6C3
S11311200F9211242F933F934F935F936F937F9369
S11311308F939F93AF93BF93EF93FF93E091DA0163
S1131140F091DB01309709F00995FF91EF91BF9180
S1131150AF919F918F917F916F915F914F913F914B
S11311602F910F900FBE0F901F9018951F920F9202
S11311700FB60F9211242F933F934F935F936F9366
S11311807F938F939F93AF93BF93EF93FF93E091DC
S1131190DC01F091DD01309709F00995FF91EF91A1
S11311A0BF91AF919F918F917F916F915F914F917B
S11311B03F912F910F900FBE0F901F9018951F9283
S11311C00F920FB60F9211242F933F934F935F9377
S11311D06F937F938F939F93AF93BF93EF93FF93FB
S11311E0E091DE01F091DF01309709F00995FF915C
S11311F0EF91BF91AF919F918F917F916F915F918B
S11312004F913F912F910F900FBE0F901F90189503
S11312101F920F920FB60F9211242F933F934F9367
S11312205F936F937F938F939F93AF93BF93EF934A
S1131230FF93E091CC01F091CD01309709F009952D
S1131240FF91EF91BF91AF919F918F917F916F919A
S11312505F914F913F912F910F900FBE0F901F9070
S113126018951F920F920FB60F9211242F933F934C
S11312704F935F936F937F938F939F93AF93BF939A
S1131280EF93FF93E091CE01F091CF01309709F0F5
S11312900995FF91EF91BF91AF919F918F917F91AC
S11312A06F915F914F913F912F910F900FBE0F90CF
S11312B01F9018951F920F920FB60F9211242F931F
S11312C03F934F935F936F937F938F939F93AF93CA
S11312D0BF93EF93FF93E091D001F091D101309748
S11312E009F00995FF91EF91BF91AF919F918F9173
S11312F07F916F915F914F913F912F910F900FBE0E
S11313000F901F9018951F920F920FB60F921124F1
S11313102F933F934F935F936F937F938F939F93F9
S1131320AF93BF93EF93FF93E091D401F091D50174
S1131330309709F00995FF91EF91BF91AF919F917B
S11313408F917F916F915F914F913F912F910F906A
S11313500FBE0F901F9018951F920F920FB60F9209
S113136011242F933F934F935F936F937F938F93A6
S11313709F93AF93BF93EF93FF93E091D601F091C6
S1131380D701309709F00995FF91EF91BF91AF9183
S11313909F918F917F916F915F914F913F912F9189
S11313A00F900FBE0F901F9018951F920F920FB6BB
S11313B00F9211242F933F934F935F936F937F93D7
S11313C08F939F93AF93BF93EF93FF93E091D201D9
S11313D0F091D301309709F00995FF91EF91BF91F6
S11313E0AF919F918F917F916F915F914F913F91B9
S11313F02F910F900FBE0F901F9018951F920F9270
S11314000FB60F9211242F933F934F935F936F93D3
S11314107F938F939F93AF93BF93EF93FF93E09149
S1131420D801F091D901309709F00995FF91EF9116
S1131430BF91AF919F918F917F916F915F914F91E8
S11314403F912F910F900FBE0F901F9018951F92F0
S11314500F920FB60F9211242F933F934F935F93E4
S11314606F937F938F939F93AF93BF93EF93FF9368
S1131470E091C201F091C301309709F00995FF9101
S1131480EF91BF91AF919F918F917F916F915F91F8
S11314904F913F912F910F900FBE0F901F90189571
S11314A01F920F920FB60F9211242F933F934F93D5
S11314B05F936F937F938F939F93AF93BF93EF93B8
S11314C0FF93E091C401F091C501309709F00995AB
S11314D0FF91EF91BF91AF919F918F917F916F9108
S11314E05F914F913F912F910F900FBE0F901F90DE
S11314F018951F920F920FB60F9211242F933F93BA
S11315004F935F936F937F938F939F93AF93BF9307
S1131510EF93FF93E091C601F091C701309709F072
S11315200995FF91EF91BF91AF919F918F917F9119
S11315306F915F914F913F912F910F900FBE0F903C
S11315401F9018951F920F920FB60F9211242F938C
S11315503F934F935F936F937F938F939F93AF9337
S1131560BF93EF93FF93E091C801F091C9013097C5
S113157009F00995FF91EF91BF91AF919F918F91E0
S11315807F916F915F914F913F912F910F900FBE7B
S11315900F901F90189580E10E945B06882311F03C
S11315A082E00895EAEBF1E01192119281E0EA3FC2
S11315B0F807D1F781E00895FF920F931F93CF931B
S11315C0DF93F82E8AE0F816B1F08F1548F0E8E0C2
S11315D0FE16B9F1EF1538F1F7E0FF1651F43BC0F0
S11315E08DE0F81659F0EBE1FE1689F0FCE0FF16E9
S11315F041F001E041C01092490203C01092490237
S11316003AC080914A02815080934A0234C00E94B9
S1131610330314C080E061E00E94300480914902E9
S11316208F5F809349028091490287FFF3CF109224
S1131630490280914A02815080934A0200E011E0FD
S11316401CC0809149028823B1F0809149028650E0
S11316508093490210C081E00E94E10C64EF71E0C4
S113166080E090E04DE750E024E630E00E94ED0C8D
S113167081E00E94480C00E010E080914A026091F1
S113168049020E94DB03002351F185E0F89EC0016A
S11316901124EC01CD59DE4F8C0108591E4FFE0177
S11316A0849161E00E9430042196C017D107B9F7F4
S11316B080E061E00E943004809149028A5F809357
S11316C049028091490290E08C3791053CF01092D8
S11316D0490280914A02815080934A0211E080912C
S11316E04A02837080934A02113059F480914B026C
S11316F0813039F4E0914C02F0914D02309709F0B9
S1131700099580E090E0DF91CF911F910F91FF90B8
S11317100895F8940E94E40B81E00E94910B81E00B
S11317200895813049F0F894813020F18230B1F08D
S1131730833009F045C017C02C9A80E8809361007B
S11317401092610080E090E00000019688329105DB
S1131750D9F71092680010926B00089580E8809386
S1131760610083E004C080E88093610088E0809396
S1131770610028C080E090E0000001962DE68036EC
S11317809207D1F72C9880E090E0000001962DE6B6
S113179080369207D1F710927A008FEF809364001D
S11317A08091680081608093680080916B00846000
S11317B080936B00789483B7816083BF8895089584
S11317C0823008F078940895249A2C9A089583E539
S11317D08CBD81E08DBD8DE08A95F1F7089583E598
S11317E08CBD1DBC84EF91E00197F1F708958FE75C
S11317F08CBD1DBC84EF91E00197F1F7089583E55A
S11318008CBD81E08DBD8DE08A95F1F7089583E567
S11318108CBD81E08DBD84EF91E00197F1F70895CF
S11318201F93162F0E94B40482E00E946806882346
S113183029F01EBD0DB407FEFDCF8EB51F9108958E
S11318408AE00E944B06882329F481E00E94430D1C
S113185010920B02089589E00E944B068823B9F484
S113186080910A02882311F00E94890D82E00E946F
S1131870430D8091180290911902009731F00E9453
S1131880DA1E109219021092180210920A02089598
S1131890813029F0823029F40E942B0C08950E9493
S11318A0200C08950F931F93CF93DF9380E291E070
S11318B00E94451E9C019093190280931802892B63
S11318C011F480E039C08901C0E0D0E0BE0180E0BD
S11318D090E00E94981A20E030E040EA51E40E942F
S11318E0261A27EF35E740E05FE30E94631B9B0164
S11318F0AC0160E070E080E291E40E94D01B9B01A7
S1131900AC01CA01B9012DEC3CEC42E851E40E945F
S1131910631B0E94261B2AE030E040E050E00E9456
S1131920C21DF80161937193819391938F01219664
S1131930C834D10559F681E0DF91CF911F910F9101
S113194008958AE00E945B06882311F082E00895DE
S1131950109215021092140281E00E945F0D81E042
S113196080930B0208951F9389E00E945B068823ED
S113197011F082E024C08BE00E9468068823D9F429
S11319800E94520C182F813011F086E018C010927A
S11319900C0210920D0210920E0210920F028DE0B2
S11319A06EED70E10E94B91082E00E945F0D109309
S11319B00A0281E004C089E00E944B0687E01F917F
S11319C00895813021F0823029F084E008950E9446
S11319D0A10C08950E94B30C08956F927F928F9288
S11319E09F92AF92BF92CF92DF92EF92FF920F93AA
S11319F01F93CF93DF933B014C015A01E9018AE025
S1131A000E946806882381F1209741F195014427BB
S1131A1037FD4095542FBE01C536D10510F064E65C
S1131A2070E080E090E00E94C21D24E630E040E0D7
S1131A3050E00E94D21D79018A01C401B3010E94C1
S1131A40E110C7010E940A0760E070E080E090E0C6
S1131A500E94E110C5018E199F0904C0A114B104AC
S1131A6019F0C5010E940A07DF91CF911F910F91D0
S1131A70FF90EF90DF90CF90BF90AF909F908F90AA
S1131A807F906F900895823029F4809181008E7F39
S1131A908093810080910A02813031F480910B029D
S1131AA0813011F40000089580910A02813021F000
S1131AB080910B02813011F45F9857980895982F04
S1131AC080910A02882331F480910B02882311F457
S1131AD0579A5F9880910A028823D1F49230C1F416
S1131AE01092800010928100809181008860809320
S1131AF08100809181008160809381001092850033
S1131B001092840081E08093890080E980938800AA
S1131B100895EFE6F0E080818D7F80830895982F0B
S1131B2081E080938502913071F0913018F0923009
S1131B3071F405C0709362026093610208C07093EF
S1131B406202609361027093640260936302109274
S1131B5085020895CF93DF93C0E0D0E08C2F60E03E
S1131B600E94B90D2196C531D105C1F7DF91CF91FE
S1131B700895853128F4E82FF0E0EC5CFD4F608394
S1131B8008951F93CF93DF93EC01009799F181E0BF
S1131B900E946806882351F187E00E94B40418EC7F
S1131BA0812F8A95F1F782E06AE00E94050582E0C0
S1131BB064EB0E940505812F8A95F1F782E060E0CD
S1131BC00E94100C8883812F8A95F1F782E060E0EF
S1131BD00E94100C89831A95F1F782E060E00E945C
S1131BE0100C8A8387E00E94B40404C0188219820E
S1131BF08DE28A83DF91CF911F91089588E00E943E
S1131C005B06882311F082E008951092A6021092D8
S1131C10A8021092A70210921A0210921B0280E1ED
S1131C2066E471E10E94CD100E941E0E0E94270EF0
S1131C3081E0089581E080931B02089584B5826059
S1131C4084BD85B5846085BD8EE487BD0895EEE6C8
S1131C50F0E08081826080830895CF92DF92EF92DA
S1131C60FF920F931F93CF93DF937B018C01EA01C3
S1131C70690181E0E81681EEF80680E0080780E05B
S1131C80180740F444E0EE0CFF1C001F111F4A9596
S1131C90D1F707C033E0EE0CFF1C001F111F3A956B
S1131CA0D1F760E072EC8BEE9BE0A80197010E94F3
S1131CB0D21D79018A0186EF9FEFAFEFBFEFE80EE7
S1131CC0F91E0A1F1B1FC801B7012AE030E040E0DB
S1131CD050E00E94D21D653071058105910540F0E8
S1131CE08AE090E0A0E0B0E0E80EF91E0A1F1B1F96
S1131CF0C801B7012AE030E040E050E00E94D21D64
S1131D00C901DA012883892F9A2FAB2FBB27F6014B
S1131D108083DF91CF911F910F91FF90EF90DF901F
S1131D20CF900895BF92CF92DF92EF92FF920F93DC
S1131D301F93DF93CF9300D0CDB7DEB7B62EC42E5A
S1131D40D22E882321F0813009F077C03CC08DE089
S1131D500E946806882309F470C01A8219821092BE
S1131D60C0001092C1001092C200C801B701AE01B8
S1131D704E5F5F4F9E012F5F3F4F0E942D0EBB0CA5
S1131D80DD0CDD0CDD0CDD0CDB28CC0CCC0CCC0C20
S1131D90CD288A818093C40089818093C500C09234
S1131DA0C20081E0E81681EEF80680E0080780E0D2
S1131DB0180728F08091C00082608093C00081E001
S1131DC08093BD023AC08EE00E9468068823A9F180
S1131DD019821A821092C8001092C9001092CA0087
S1131DE0C801B701AE014F5F5F4F9E012E5F3F4FA9
S1131DF00E942D0EBB0CDD0CDD0CDD0CDD0CDB2894
S1131E00CC0CCC0CCC0CCD2889818093CC008A815D
S1131E108093CD00C092CA0081E0E81681EEF806F6
S1131E2080E0080780E0180728F08091C8008260ED
S1131E308093C80081E08093C2020F900F90CF91ED
S1131E40DF911F910F91FF90EF90DF90CF90BF90A3
S1131E500895882319F0813061F406C08091C1008F
S1131E6080688093C10008958091C9008068809340
S1131E70C9000895882321F08130B9F084E00895E1
S1131E808DE00E945B06882369F51092BD021092D2
S1131E90BB021092BC020E94281080E065E070E052
S1131EA00E940F1082EB92E015C08EE00E945B0648
S1131EB08823C1F41092C2021092C0021092C1028F
S1131EC081E00E94281081E065E070E00E940F101C
S1131ED089EA92E061E041E028EE33E00E943707AE
S1131EE081E0089582E00895CF93DF93EB01882386
S1131EF021F0813009F046C022C08DE00E946806BE
S1131F00882309F43FC02091BE023091BF02809122
S1131F10BC028130B9F50FC08091B802882321F04A
S1131F20215030401092B8028091C00087FF03C056
S1131F308091C60020C01216130674F325C08EE0EB
S1131F400E9468068823F1F02091C3023091C402F4
S1131F508091C1028130B1F411C08091AF02882315
S1131F6021F0215030401092AF028091C80087FFC9
S1131F7005C08091CE00888380E007C01216130646
S1131F8064F302C081E001C083E0DF91CF91089542
S1131F900F931F93182F062F882311F48DE003C08D
S1131FA0813029F48EE00E9468068823A9F1002379
S1131FB0F9F0013089F5112319F0113069F50CC0DD
S1131FC08091BD02813041F58091C1008061809390
S1131FD0C1000093BC0220C08091C2028130E1F4B0
S1131FE08091C90080618093C9000093C10214C02C
S1131FF0112319F0113081F408C08091C1008F7E43
S11320008093C1001092BC0207C08091C9008F7EEA
S11320108093C9001092C1021F910F91089577FF18
S113202003C060E070E005C06F31710514F06EE12B
S113203070E0882319F0813051F405C07093BF0219
S11320406093BE0208957093C4026093C30208951E
S1132050882319F0813041F404C0519A5098599A58
S11320600895539A52985B9A0895000008951F9218
S11320700F920FB60F9211242F933F934F935F93B8
S11320806F937F938F939F93AF93BF93EF93FF933C
S1132090DF93CF930F92CDB7DEB781E00E94661134
S11320A0789481E0BE016F5F7F4F0E94740F882394
S11320B019F489810E94731081E00E94290F0F9006
S11320C0CF91DF91FF91EF91BF91AF919F918F914C
S11320D07F916F915F914F913F912F910F900FBE20
S11320E00F901F9018951F93282F853519F08A3A61
S11320F089F404C081E08093D60233C01091D602E3
S1132100113069F582E08093D6020E94F611109393
S1132110D50227C08091D602823009F58091DC0275
S11321209091DD024097C0F48091DC029091DD0231
S1132130FC01EB53FD4F208301969093DD028093C5
S1132140DC028091DC029091DD020C9751F4109234
S1132150D6020E94771105C081E08093DB021092C1
S1132160D6028091D602882311F41092D5021F91D1
S11321700895E82F803268F48051833050F0F0E005
S1132180EE0FFF1FE654FE4F20813181718360837F
S113219002C020E030E0C9010895803218F020E048
S11321A030E00AC0E82FF0E0EE0FFF1FE654FE4FC8
S11321B02081318171836083C90108950E940511D2
S11321C00895EF92FF920F931F937B018C018AE095
S11321D00E9468068823A1F080910B02882381F075
S11321E0D801C701880F991FAA1FBB1F909317021C
S11321F080931602E114F1040105110509F45F98B6
S11322001F910F91FF90EF90089580910C0290918F
S11322100D02A0910E02B0910F0220911002309194
S113222011024091120250911302280F391F4A1FC4
S11322305B1F20930C0230930D0240930E025093C7
S11322400F0280910C0290910D02A0910E02B091A8
S11322500F028851964FA040B040BCF08BB180581B
S11322608BB980910C0290910D02A0910E02B09155
S11322700F028851964FA040B04080930C02909377
S11322800D02A0930E02B0930F0208950E944D1107
S11322900E9422120E94FB11089588E00E946806A1
S11322A0882311F484E0089580911B02882311F49B
S11322B083E0089580911A02882311F082E0089542
S11322C00E946F148130E1F380E00895882319F0AF
S11322D0813061F406C08091C1008F778093C10082
S11322E008958091C9008F778093C9000895E5EC23
S11322F0F2E020E030E082819381280F391F32968A
S113230082E0EF3CF807B9F72115310509F46DC0F7
S11323108091C5029091C6022817390709F065C05B
S11323208091D7029091D802892B59F5E091D90276
S1132330F091DA02309729F18485882311F53183ED
S113234020838091C7029091C802938382838091F5
S1132350C9029091CA02958384838091CB029091A3
S1132360CC02978386838091CD029091CE0291878F
S113237080878091CF029091D0029387828781E0F9
S113238084872091D7023091D8022115310569F153
S1132390E091D902F091DA02309739F18091C502C7
S11323A09091C602918380838091C7029091C80264
S11323B0938382838091C9029091CA029583848316
S11323C08091CB029091CC02978386838091CD0239
S11323D09091CE02918780878091CF029091D00214
S11323E093878287CF01F901099508951092DD0240
S11323F01092DC02089580910B02813011F58091D6
S11324001402909115022091160230911702280FA0
S1132410391F309315022093140280911402909175
S11324201502885E93406CF08BB180588BB9809113
S1132430140290911502885E934090931502809344
S11324401402089587E00E946806882309F4AAC04C
S11324508091590290915A02892B09F180917D0251
S113246090917E022091590230915A02820F931F5B
S113247090937E0280937D0280917D0290917E02F2
S1132480885E9340A4F080917D0290917E02885EE4
S1132490934090937E0280937D0241E009C0809135
S11324A0510290915202909356028093550240E05B
S11324B080915B0290915C02892B09F180917F02EB
S11324C09091800220915B0230915C02820F931FF5
S11324D09093800280937F0280917F02909180028A
S11324E0885E9340A4F080917F0290918002885E80
S11324F093409093800280937F0261E009C08091B1
S1132500530290915402909358028093570260E0D2
S1132510842F0E94D3128091790290917A022091A3
S1132520550230915602280F391F30937A022093B6
S113253079028091790290917A02885E934014F432
S113254040E00BC08091790290917A02885E9340BA
S113255090937A028093790241E080917B0290917A
S11325607C022091570230915802280F391F309372
S11325707C0220937B0280917B0290917C02885E96
S1132580934014F460E00BC080917B0290917C0234
S1132590885E934090937C0280937B0261E0842F59
S11325A00E94181308958823F1F02091510230916C
S11325B052028091550290915602281B390B121633
S11325C0130634F48091550290915602019607C087
S11325D0232B49F0809155029091560201979093D4
S11325E0560280935502662311F1209153023091D3
S11325F054028091570290915802281B390B1216ED
S1132600130654F4809157029091580201969093C6
S11326105802809357020895232B49F08091570262
S1132620909158020197909358028093570208950D
S11326300F931F93182F062F80918502882309F08A
S1132640E7C080916D02882309F05AC08091550239
S113265090915602892BE9F480911C02837E809329
S11326601C021092760280918102882309F45DC0D5
S113267060916F0280E00E941C06E0918302F09159
S11326808402309709F451C081E080831092810262
S11326904CC080914F02813041F48091610290914D
S11326A06202019711F411E002C01123F1F1E091EB
S11326B07402F0E0E25FFE4F90911C02937E8081F1
S11326C0892B80931C0280917202882321F48091CB
S11326D074028F5F03C080917402815080937402EE
S11326E08091740283708093740281E080937602F7
S11326F080914F028130C9F480E00E941B1415C000
S113270090911C02937E90931C02E0917402F0E07D
S1132710E25FFE4F8081892B80931C0282E08093CC
S11327207602109256021092550280916E0288230E
S113273009F059C08091570290915802892BE9F40D
S113274080911C028F7180931C02109277028091F9
S11327508202882309F45CC06091700281E00E94C7
S11327601C06E0918302F0918402309709F450C072
S113277081E08183109282024BC0809150028130AB
S113278041F48091630290916402019711F401E095
S113279002C00023E9F1E0917502F0E0EE5EFE4F25
S11327A090911C029F718081892B80931C028091DF
S11327B07302882321F4809175028F5F03C0809196
S11327C075028150809375028091750283708093A5
S11327D0750281E080937702809150028130C1F4C8
S11327E00E941B1415C090911C029F7190931C02AF
S11327F0E0917502F0E0EE5EFE4F8081892B8093BC
S11328001C0282E0809377021092580210925702C1
S113281080917802882331F48CE192E0612F402F7B
S11328200E94DD1488B1837090911C02892B88B9B1
S11328301F910F910895882321F0813009F04EC033
S113284027C08091610290916202892B49F08091A6
S113285061029091620201979093620280936102F7
S1132860809181028823D1F5209161023091620226
S113287080916502909166022817390779F580E006
S113288060E070E00E94EF0581E08093810208958A
S11328908091630290916402892B49F080916302D4
S11328A090916402019790936402809363028091F3
S11328B08202882399F4209163023091640280910A
S11328C06702909168022817390741F481E060E0BB
S11328D070E00E94EF0581E0809382020895FF92E8
S11328E00F931F93CF93DF938091A602882309F45B
S11328F059C00091A7021091A802F801C081D181AA
S11329008C819D8101979D838C83181619060CF484
S113291049C0898180FF05C08E81882311F481E03C
S11329208E83898181FF03C0EF81F88509958091A9
S1132930A6028230A8F0F801828193819093A802C4
S11329408093A70213821282E0910000F0910100AB
S113295084819581181619063CF0FF24F39405C070
S11329601092A8021092A702FF248091A60281501F
S11329708093A6028091A602882311F40E94DA149F
S1132980898182FF08C08A819B819D838C83C801D1
S11329900E94750708C0C8010E94DA1E89818F7ED3
S11329A0898301C0FF248F2DDF91CF911F910F9157
S11329B0FF90089510921B020895FC018091760205
S11329C0823069F48091200291E08927809320026B
S11329D0882309F03EC08081837E80833AC0809141
S11329E0550290915602C397A4F56623D1F0209125
S11329F055023091560280E690E0BC01269FC0014A
S1132A00279F900D369F900D1124880F892F881FC2
S1132A10990B90936A028093690281E080931E026D
S1132A2018C080911E028823A1F0809169029091C0
S1132A306A02019790936A02809369028091690205
S1132A4090916A02892B29F48081837E808310927D
S1132A501E0280917702823069F480911F0291E016
S1132A60892780931F02882309F03EC080818F71DB
S1132A70808308958091570290915802C397A4F5DA
S1132A804423D1F0209157023091580280E690E01F
S1132A90AC01249FC001259F900D349F900D1124FB
S1132AA0880F892F881F990B90936C0280936B0277
S1132AB081E080931D02089580911D028823A1F076
S1132AC080916B0290916C02019790936C028093B9
S1132AD06B0280916B0290916C02892B29F48081A6
S1132AE08F71808310921D020895CF93DF93FC01B0
S1132AF0308120912A02321303C0208121111EC08B
S1132B00EC010E9433038881813059F038F082301F
S1132B1059F0833061F481E491E00BC08CE191E0E1
S1132B2008C088E291E005C085E391E002C08EE42C
S1132B3091E00E949820888180932A02DF91CF91AE
S1132B400895DC01FB019C918081981325C01196A6
S1132B502D913C9112978181928128173907E1F4D4
S1132B6013962D913C9114978381948128173907EA
S1132B7099F415962D913C91169785819681281785
S1132B80390751F417964D915C9118972781308538
S1132B9081E04217530709F080E00895FC0181E0C9
S1132BA0808384E690E0928381839483838380E9A5
S1132BB091E0968385839087878308950F931F936D
S1132BC0CF93DF93EC018B010E94DE078823A9F1E8
S1132BD083E08883F80146815781405A51098085F2
S1132BE0918528E730E0281B390BCA0157FF04C040
S1132BF088279927841B950B409714F440E050E0F4
S1132C00C90137FF04C088279927821B930B40977B
S1132C101CF0220F331F02C020E030E0C901840FF2
S1132C20951F9A838983241B350B3C832B83DF9167
S1132C30CF911F910F910C942008DF91CF911F9198
S1132C400F910895CF93DF93EC0161E272E00E944B
S1132C50A115811114C06F8178858D819E810E9498
S1132C60D1056B817C8189819A810E94900589E0DC
S1132C70FE01A1E2B2E001900D928A95E1F7DF91A5
S1132C80CF910895CF93DF93CDB7DEB72F970FB6CB
S1132C90F894DEBF0FBECDBF0E9459040E945503B5
S1132CA00E941B050E94E807813051F5BE016D5F4B
S1132CB07F4F80E090E00E9428080E943308109221
S1132CC02D0210922C0210922F0210922E021092BA
S1132CD0310210923002109233021092320210929A
S1132CE02B028CE191E00E94982088EB9BE00E94EB
S1132CF00A070E94330384E991E00E94982007C0E8
S1132D000E94330386EA91E00E949820FFCF0E943C
S1132D10740684FFFCCF0E9433038BE292E00E948E
S1132D20CE15BE016F5F7F4F8BE292E00E94DE15ED
S1132D308BE292E00E9422168BE292E00E947515CB
S1132D402FE788E391E0215080409040E1F700C0F4
S1132D500000E3CFA3E1B0E0E0EBF6E10C94FF1D4B
S1132D606C014B012A01FC0117821682838181FFC9
S1132D7043C3AE014F5F5F4F3A01F6019381F40103
S1132D8093FD859193FF81914F01882309F430C30A
S1132D90853239F493FD859193FF81914F018532FA
S1132DA039F4B60190E00E94602052012501E5CF7C
S1132DB010E0F12C20E02032A0F48B3269F030F4E2
S1132DC0803259F0833269F420612CC08D3239F09D
S1132DD0803339F4216026C02260246023C0286037
S1132DE021C027FD27C030ED380F3A3078F426FF94
S1132DF006C0FAE01F9F300D1124132F13C04AE0C0
S1132E00F49E300D1124F32E20620CC08E3221F476
S1132E1026FDEEC2206406C08C3611F4206802C080
S1132E20883641F4F40193FD859193FF81914F011C
S1132E308111C1CF9BEB980F933018F42061805E11
S1132E4006C09BE9980F933008F071C12F7E26FFCE
S1132E5016E02F73322E853619F42064322E08C002
S1132E60863621F4F22FF0683F2E02C01111115062
S1132E7037FE07C01C3350F4EE24E394E10E27E040
S1132E800BC0183038F027E017E005C027E04CE30A
S1132E90E42E02C0212FE12C520144E0A40EB11C07
S1132EA0F20160817181828193810E2DA3010E94C0
S1132EB0721F2C01098100FF02C003FF07C031FC0F
S1132EC008C032FE09C030E2232E07C02DE2222EB4
S1132ED004C09BE2292E01C0212C802F8C7019F094
S1132EE0211068C2A8C237FE0FC0E40C04FF04C05E
S1132EF08A81813309F4EA941E1474F5F8E0FE150E
S1132F0078F588E0E82E2CC036FC2AC0812F90E0AA
S1132F10841595059CF02CEF42162FEF520674F0A1
S1132F20432D4068342E0AC0E2E0F0E0EC0FFD1FB0
S1132F30E10FF11D8081803319F411501111F4CF88
S1132F4037FE0EC0EE24E394E10E812F90E0481684
S1132F5059062CF4141904C0EE24E39401C010E0C3
S1132F6037FE06C01414150434F4C201019605C0DA
S1132F7085E090E002C081E090E0211001961123E9
S1132F8031F0212F30E02F5F3F4F820F931F2F2D01
S1132F9030E08217930714F4F81A01C0F12C832D42
S1132FA0897049F4FF2039F0B60180E290E00E9474
S1132FB06020FA94F7CF222029F0B601822D90E008
S1132FC00E94602033FC09C0FF2039F0B60180E381
S1132FD090E00E946020FA94F7CF37FE5AC0942DF7
S1132FE0852D57FE02C090E080E0292E382E20E087
S1132FF030E0A2014E1951095D874C87A2014219A4
S113300053095F874E87612F70E044275527461B7D
S1133010570B598B488B5FEF2516350649F4B601DB
S11330208EE290E02A8B3B8B0E9460203B892A89A8
S1133030421453046CF04C855D854215530544F4E9
S1133040EE85FF85E20FF31FE60DF71D818101C0B8
S113305080E351E0251A31082F5F3F4F4889598991
S1133060241635064CF0B60190E02A8B3B8B0E9467
S113307060202A893B89CFCF2414350439F49A81FE
S1133080963318F4953311F404FF81E3B60190E00C
S11330904BC08A81813309F00F7EB60190E00E9413
S11330A06020111105C034FC18C085E690E017C0FB
S11330B0B6018EE290E00E94602082E0EE24E39468
S11330C0E80EF301E80FF11D8081B60190E00E9443
S11330D0602011508E2D91F7E6CF85E490E0B60183
S11330E00E94602057FC05C04114510439F404FFC8
S11330F005C05194419451088DE201C08BE2B601A0
S113310090E00E94602080E39AE0491651042CF07C
S11331108F5F5AE0451A5108F7CFB60190E00E943C
S11331206020B601C201C0960E94602057C1833658
S113313031F0833779F0833509F058C021C052014A
S1133140E2E0AE0EB11CF2018081898301E010E05F
S1133150230114C05201F2E0AF0EB11CF201408011
S1133160518026FF03C0612F70E002C06FEF7FEF34
S1133170C2012A8B0E9455208C012A892F7715C001
S11331805201F2E0AF0EB11CF2014080518026FFE3
S113319003C0612F70E002C06FEF7FEFC2012A8B82
S11331A00E944A208C012A892068322E23FD1AC0ED
S11331B08F2D90E008171907A8F4B60180E290E07B
S11331C00E946020FA94F4CFF20137FC859137FE17
S11331D081912F01B60190E00E946020F110FA94D1
S11331E0015011090115110579F7F8C0843611F061
S11331F0893659F5520127FF09C0F4E0AF0EB11C1E
S1133200F20160817181828193810AC0F2E0AF0E84
S1133210B11CF20160817181072E000C880B990B9F
S11332202F76322E97FF09C0909580957095619501
S11332307F4F8F4F9F4F2068322E2AE030E0A3014A
S11332400E94C820E82EE6183FC0022F853721F4DB
S11332500F7E2AE030E01DC0097F8F3691F018F40C
S1133260883559F0C5C0803719F0883711F0C0C0CF
S1133270006104FF09C0046007C024FF08C00660A1
S113328006C028E030E005C020E130E002C020E1C3
S113329032E0520107FF09C0F4E0AF0EB11CF201A5
S11332A0608171818281938108C0F2E0AF0EB11C0C
S11332B0F2016081718180E090E0A3010E94C82046
S11332C0E82EE6180F77302E36FE0BC0332D3E7FE6
S11332D0E11650F434FE0AC032FC08C0332D3E7EA1
S11332E005C00E2D332D03C00E2D01C0012F34FF58
S11332F00CC0FE01EE0DF11D8081803311F4397E86
S113330008C032FF05C00E5F04C0832F867809F021
S11333100F5F33FD13C030FF06C01E2D0F1518F4C8
S11333201F0D101B0F2D0F1568F4B60180E290E0FD
S11333303B8B0E9460200F5F3B89F5CF0F1510F483
S1133340F01A01C0F12C34FF12C0B60180E390E002
S11333503B8B0E9460203B8932FF17C031FD03C0C4
S113336088E790E002C088E590E0B6010CC0832FA6
S1133370867859F031FF02C08BE201C080E237FD4C
S11333808DE2B60190E00E946020E11638F4B601A7
S113339080E390E00E9460201150F7CFEA94F3019B
S11333A0EE0DF11D8081B60190E00E946020E110D5
S11333B0F5CF14C0F4E0FF1558F584E0F81A33FE95
S11333C01EC0211026C003FF2AC00EEF10E0F32D0B
S11333D0F0713F2EF8018491811124C0FF2009F47B
S11333E0E5CCB60180E290E00E946020FA94F6CF2A
S11333F0F6018681978126C08FEF9FEF23C0B60127
S113340080E290E00E946020FA94F110F8CFD9CFC6
S1133410F12CB601822D90E00E946020D4CF02E00E
S113342011E0D5CF31108052B60190E00E946020A7
S11334300F5F1F4FCFCF23E02F1510F483E0BECFD3
S1133440F12CC1CF6396E2E10C941B1E0E943A1A40
S11334500C94EC1A0E94E51A58F00E94DE1A40F00F
S113346029F45F3F29F00C94D51A51110C94201BB8
S11334700C94DB1A0E94FD1A68F39923B1F35523C7
S113348091F3951B550BBB27AA2762177307840773
S113349038F09F5F5F4F220F331F441FAA1FA9F309
S11334A035D00E2E3AF0E0E832D091505040E695F7
S11334B0001CCAF72BD0FE2F29D0660F771F881F58
S11334C0BB1F261737074807AB07B0E809F0BB0B4B
S11334D0802DBF01FF2793585F4F3AF09E3F51055F
S11334E078F00C94D51A0C94201B5F3FE4F3983EBB
S11334F0D4F3869577956795B795F7959F5FC9F748
S1133500880F911D9695879597F90895E1E0660FC8
S1133510771F881FBB1F621773078407BA0720F041
S1133520621B730B840BBA0BEE1F88F7E0950895AA
S1133530E89409C097FB3EF4909580957095619549
S11335407F4F8F4F9F4F9923A9F0F92F96E9BB27FF
S11335509395F695879577956795B795F111F8CF7B
S1133560FAF4BB0F11F460FF1BC06F5F7F4F8F4FE6
S11335709F4F16C0882311F096E911C0772321F0DC
S11335809EE8872F762F05C0662371F096E8862F74
S113359070E060E02AF09A95660F771F881FDAF7CB
S11335A0880F9695879597F9089597F99F6780E80E
S11335B070E060E008959FEF80EC089500240A9481
S11335C01616170618060906089500240A941216FA
S11335D01306140605060895092E0394000C11F42D
S11335E0882352F0BB0F40F4BF2B11F460FF04C0DA
S11335F06F5F7F4F8F4F9F4F089557FD9058440F33
S1133600551F59F05F3F71F04795880F97FB991F3D
S113361061F09F3F79F087950895121613061406FA
S1133620551FF2CF4695F1DF08C016161706180687
S1133630991FF1CF86957105610508940895E89462
S1133640BB2766277727CB0197F908950E94051BAE
S1133650A8F19E57B0F1985160F039F1983070F5A7
S1133660092E9927660F771F881F991F0A94D1F78F
S11336701CC0BB27993F4CF4B111B1E0B62B672FA6
S1133680782F8827985FB1F708C086957795679556
S1133690B79508F4B1609395C1F7BB0F30F411F4FA
S11336A060FF03C06F5F7F4F8F4F3EF4909580950E
S11336B0709561957F4F8F4F9F4F089568940C9438
S11336C0201B0C941F1B0E94761B0C94EC1A0E9466
S11336D0DE1A38F00E94E51A20F0952311F00C94BC
S11336E0D51A0C94DB1A11240C94201B0E94FD1A89
S11336F070F3959FC1F3950F50E0551F629FF00141
S1133700729FBB27F00DB11D639FAA27F00DB11D59
S1133710AA1F649F6627B00DA11D661F829F2227E2
S1133720B00DA11D621F739FB00DA11D621F839F69
S1133730A00D611D221F749F3327A00D611D231F3F
S1133740849F600D211D822F762F6A2F11249F578D
S113375050409AF0F1F088234AF0EE0FFF1FBB1F90
S1133760661F771F881F91505040A9F79E3F51054F
S113377080F00C94D51A0C94201B5F3FE4F3983E20
S1133780D4F3869577956795B795F795E7959F5FF9
S1133790C1F7FE2B880F911D9695879597F908958B
S11337A0FA01EE0FFF1F309621053105A1F16115D5
S11337B0710561F48038BFE39B0749F16894903840
S11337C0810561F08038BFEF9B0741F099234AF5EA
S11337D0FF3FE1053105210519F1E8940894E795C7
S11337E0D901AA2329F4AB2FBE2FF85FD0F310C060
S11337F0FF5F70F4A695E0F7F73950F019F0FF3A3F
S113380038F49F779F930DD00F9007FC905808953C
S113381046F00C94DB1A60E070E080E89FE30895C2
S11338204FE79F775F934F933F932F930E94CB1C57
S11338302F913F914F915F910E94631B0C94281C20
S113384029F416F00C94D51A0C941F1B0C94DB1A53
S11338500E94051BA8F39638A0F707F80F92E89486
S11338602BE33AEA48EB5FE70E94791B0F920F9231
S11338700F924DB75EB70F920E94131DECE7F0E074
S11338800E945A1C4F915F91EF91FF91E595EE1FB5
S1133890FF1F49F0FE57E0684427EE0F441FFA95D6
S11338A0E1F74195550B0E948D1C0F9007FE0C9477
S11338B0811C0895DF93CF931F930F93FF92EF9290
S11338C0DF927B018C01689406C0DA2EEF010E941E
S11338D0761BFE01E894A59125913591459155916A
S11338E0A6F3EF010E945F1DFE019701A801DA947F
S11338F069F7DF90EF90FF900F911F91CF91DF91C7
S113390008959B01AC0160E070E080E89FE30C94B3
S1133910261A0C94D51A0C94B41D0E94051BD8F3D6
S11339209923C9F3940F511DA3F39150504094F07F
S113393059F0882332F0660F771F881F915050404A
S1133940C1F79E3F51052CF7880F911D96958795D9
S113395097F908955F3FACF0983E9CF0BB2786959D
S113396077956795B79508F4B1609395C1F7BB0F48
S113397058F711F460FFE8CF6F5F7F4F8F4F9F4F71
S1133980E3CF0C94201B16F00C94B41D0C94DB1A9A
S113399068940C94D51A0E94051BA8F39923C1F3CB
S11339A0AEF3DF93CF931F930F93FF92C92FDD27BD
S11339B088232AF02197660F771F881FDAF720E003
S11339C030E040E85FEB9FE3883920F0803E38F038
S11339D021968F770E94481DE4EAF0E004C00E941B
S11339E0481DE1EDF0E00E945A1C8B01BE01EC0180
S11339F0FB2E6F5771097595771F880B990B0E94E1
S1133A009A1A28E132E741E35FE30E94761BAF2D67
S1133A109801AE01FF900F911F91CF91DF910E9409
S1133A205F1D0C94EC1AFA01DC01AA0FBB1F9B0169
S1133A30AC01BF5728F4222733274427507820C0ED
S1133A40B75190F4AB2F0024469537952795011C68
S1133A50A395D2F3002071F0220F331F441FB395B6
S1133A60DAF30ED00C94471D61307105A0E88A0783
S1133A70B94630F49B01AC016627772788279078F4
S1133A80309621F020833183428353830895505824
S1133A90BB27AA270E945F1D0C94EC1A0E94DE1A11
S1133AA038F00E94E51A20F039F49F3F19F426F407
S1133AB00C94DB1A0EF4E095E7FB0C94D51AE92F6D
S1133AC00E94FD1A58F3BA17620773078407950713
S1133AD020F079F4A6F50C941F1B0EF4E0950B2E40
S1133AE0BA2FA02D0B01B90190010C01CA01A0014C
S1133AF01124FF27591B99F0593F50F4503E68F1A7
S1133B001A16F040A22F232F342F4427585FF3CFE7
S1133B10469537952795A795F0405395C9F77EF4B8
S1133B201F16BA0B620B730B840BBAF09150A1F001
S1133B30FF0FBB1F661F771F881FC2F70EC0BA0F87
S1133B40621F731F841F48F4879577956795B7950F
S1133B50F7959E3F08F0B0CF9395880F08F099270A
S1133B60EE0F9795879508959F3F31F0915020F47B
S1133B70879577956795B795880F911D9695879545
S1133B8097F90895DB018F939F930E94F41DBF91D1
S1133B90AF91A29F800D911DA39F900DB29F900D98
S1133BA011240895A1E21A2EAA1BBB1BFD010DC00E
S1133BB0AA1FBB1FEE1FFF1FA217B307E407F507D9
S1133BC020F0A21BB30BE40BF50B661F771F881FB5
S1133BD0991F1A9469F760957095809590959B014B
S1133BE0AC01BD01CF0108950E94361EA59F900D22
S1133BF0B49F900DA49F800D911D112408952F92C0
S1133C003F924F925F926F927F928F929F92AF9268
S1133C10BF92CF92DF92EF92FF920F931F93CF93B5
S1133C20DF93CDB7DEB7CA1BDB0B0FB6F894DEBF4C
S1133C300FBECDBF09942A88398848885F846E8472
S1133C407D848C849B84AA84B984C884DF80EE80BC
S1133C50FD800C811B81AA81B981CE0FD11D0FB6C5
S1133C60F894DEBF0FBECDBFED010895A29FB00151
S1133C70B39FC001A39F700D811D1124911DB29F9C
S1133C80700D811D1124911D0895CF93DF9382300F
S1133C90910510F482E090E0E091E002F091E102FD
S1133CA020E030E0C0E0D0E0309711F14081518154
S1133CB048175907C0F04817590761F48281938166
S1133CC0209719F09B838A832BC09093E102809301
S1133CD0E00226C02115310519F04217530718F4E4
S1133CE09A01BE01DF01EF010280F381E02DDCCFF8
S1133CF02115310509F1281B390B2430310590F4C5
S1133D0012968D919C9113976115710521F0FB0119
S1133D109383828304C09093E1028093E002FD01C7
S1133D20329644C0FD01E20FF31F81939193225018
S1133D3031092D933C933AC02091DE023091DF0289
S1133D40232B41F420911801309119013093DF02A3
S1133D502093DE02209116013091170121153105BF
S1133D6041F42DB73EB740911A0150911B01241B19
S1133D70350BE091DE02F091DF02E217F307A0F4C5
S1133D802E1B3F0B2817390778F0AC014E5F5F4FAD
S1133D902417350748F04E0F5F1F5093DF024093FE
S1133DA0DE028193919302C0E0E0F0E0CF01DF9165
S1133DB0CF9108950F931F93CF93DF93009709F446
S1133DC08CC0FC013297138212820091E0021091A0
S1133DD0E1020115110581F420813181820F931FC5
S1133DE02091DE023091DF022817390779F5F0932C
S1133DF0DF02E093DE0271C0D80140E050E0AE176C
S1133E00BF0750F412962D913C911397AD012115E3
S1133E10310509F1D901F3CF9D01DA0133832283FE
S1133E2060817181860F971F8217930769F4EC01F3
S1133E3028813981260F371F2E5F3F4F318320831E
S1133E408A819B8193838283452B29F4F093E10239
S1133E50E093E00242C01396FC93EE931297ED01B7
S1133E60499159919E01240F351FE217F30771F40C
S1133E7080819181840F951F029611969C938E9355
S1133E808281938113969C938E931297E0E0F0E0E5
S1133E90D80112968D919C911397009719F0F8010F
S1133EA08C01F6CF8D919C9198012E5F3F4F820F2C
S1133EB0931F2091DE023091DF022817390769F43D
S1133EC0309729F41092E1021092E00202C01382AA
S1133ED012821093DF020093DE02DF91CF911F91D3
S1133EE00F910895283008F027E03327DA01990F5D
S1133EF0311D87FD916000966105710539F43260CA
S1133F002E5F3D9330E32A95E1F708959F3F30F00B
S1133F1080387105610509F03C5F3C5F3D93913049
S1133F2008F08068911DDF93CF931F930F93FF9246
S1133F30EF92192F987F9695E92F96959695E90F0C
S1133F40FF27E05AFE4F99273327EE24FF24A701C9
S1133F50E70105900894079428F4360FE71EF81E2D
S1133F60491F511D660F771F881F991F0694A1F7DB
S1133F700590079428F4E70EF81E491F561FC11D2B
S1133F80770F881F991F661F0694A1F70590079461
S1133F9028F4F80E491F561FC71FD11D880F991FFB
S1133FA0661F771F0694A1F70590079420F4490F24
S1133FB0561FC71FD81F990F661F771F881F0694A7
S1133FC0A9F784911095177041F0D695C795579528
S1133FD04795F794E7941A95C1F7E6E0F1E0689401
S1133FE01590159135916591959105907FE27395A2
S1133FF0E118F10A430B560BC90BD009C0F7E10CC9
S1134000F11E431F561FC91FD01D7EF4703311F4D7
S11340108A95E6CFE894015030F0080F0AF400279F
S1134020021708F4202F2395022F7A3328F079E31E
S11340307D932A95E9F710C07D932A9589F6069415
S113404097956795379517951794E118F10A430BDF
S1134050560BC90BD00998F023957E9173957A334A
S113406008F070E37C932013B8F77E9170617D9320
S113407030F0839571E37D9370E32A95E1F7112481
S1134080EF90FF900F911F91CF91DF91992787FDBA
S113409090950895FC010590615070400110D8F787
S11340A0809590958E0F9F1F0895FC01615070407C
S11340B001900110D8F7809590958E0F9F1F089559
S11340C00F931F93CF93DF93FB01238121FD03C043
S11340D08FEF9FEF28C022FF16C0468157812481AD
S11340E035814217530744F4A081B1819D012F5FAC
S11340F03F4F318320838C93268137812F5F3F4F3D
S11341003783268310C0EB01092F182F0084F18513
S1134110E02D0995892BE1F68E819F8101969F837D
S11341208E83812F902FDF91CF911F910F9108954E
S11341300F931F93CF93DF93E091E402F091E50294
S1134140238121FF1BC08C01D0E0C0E0F8018191E4
S11341508F016091E4027091E502DB011896ED9104
S1134160FC911997882331F00995892B79F3DFEFB6
S1134170CFEFECCF8AE00995892B19F08FEF9FEFF1
S113418002C08D2F9C2FDF91CF911F910F91089525
S1134190FA01AA27283051F1203181F1E8946F9374
S11341A06E7F6E5F7F4F8F4F9F4FAF4FB1E03ED01A
S11341B0B4E03CD0670F781F891F9A1FA11D680FB8
S11341C0791F8A1F911DA11D6A0F711D811D911DEB
S11341D0A11D20D009F468943F912AE0269F112460
S11341E03019305D3193DEF6CF010895462F4770C4
S11341F0405D4193B3E00FD0C9F7F6CF462F4F701F
S1134200405D4A3318F0495D31FD4052419302D07C
S1134210A9F7EACFB4E0A695979587957795679522
S1134220BA95C9F700976105710508959B01AC0122
S11342300A2E06945795479537952795BA95C9F749
S1134240620F731F841F951FA01D0895F894FFCF5C
S11342500000000200000000DC0A00000000180C4E
S1134260041060C080200000E802200053746172D2
S113427074696E672E2E2E004578706C6F72696EAD
S1134280672E2E2E0041766F6964696E672E2E2E7E
S113429000466F6C6C6F77696E672E2E2E00556E1C
S11342A06B6E6F776E207374617465210043656E65
S11342B074203D20282025642C2025642029090011
S11342C0773A2025642C20683A2025640900736914
S11342D067233A202564090041564F4944494E4713
S11342E02E2E2E00507265737320533320746F206A
S11342F0626567696E00464154414C3A20506978C2
S10D430079206661696C6564210090
S9030000FC
