:100000000C940B030C9428030C9428030C942803E1
:100010000C94760A0C949F0A0C94C80A0C94F10A6A
:100020000C9428030C9457090C9480090C94A9098A
:100030000C94240A0C94D2090C94FB090C944D0ADC
:100040000C94DC080C9405090C942E090C942803DC
:100050000C9428030C9428030C9428030C94280374
:100060000C9428030C9428030C9428030C94280364
:100070000C9486100C9428030C94280307634236D2
:10008000B79BD8A71A39685618AEBAAB558C1D3C29
:10009000B7CC5763BD6DEDFD753EF6177231BF00ED
:1000A0000000803F08000000BE922449123EABAA27
:1000B000AA2ABECDCCCC4C3E00000080BEABAAAA82
:1000C000AA3E00000000BF000000803F00000000CA
:1000D00000084178D3BB4387D1133D190E3CC3BD03
:1000E0004282AD2B3E68EC8276BED98FE1A93E4CB0
:1000F00080EFFFBE01C4FF7F3F00000000006E6183
:100100006E00696E660000407A10F35A00A0724ECD
:1001100018090010A5D4E80000E87648170000E4AC
:100120000B54020000CA9A3B000000E1F5050000F4
:1001300080969800000040420F000000A086010059
:100140000000102700000000E80300000000640029
:10015000000000000A000000000001000000000094
:100160002C76D888DC674F0823DFC1DFAE59E1B1B8
:10017000B796E5E3E453C63AE651997696E8E6C2C7
:100180008426EB898C9B62ED407C6FFCEFBC9C9FCE
:1001900040F2BAA56FA5F490055A2AF75C936B6CF0
:1001A000F9676DC11BFCE0E40D47FEF520E6B500E4
:1001B000D0ED902E0300943577050080841E080052
:1001C00000204E0A000000C80C333333330F986E02
:1001D00012831141EF8D2114893BE65516CFFEE6BF
:1001E000DB18D1844B381BF77C1D901DA4BBE42485
:1001F000203284725E228100C9F124ECA1E53D2702
:1002000016050100000000000000FA000000E000F8
:10021000E00028FE28FE282454FE5448C4C81026B6
:10022000466C92AA44A000A0C0000000384482009E
:10023000008244380028107C102810107C10100018
:100240000A0C000010101010100006060000040830
:100250001020407C8A92A27C0042FE020042868AE4
:1002600092628482A2D28C182848FE08E4A2A2A23C
:100270009C3C5292920C808E90A0C06C9292926C98
:100280006092929478006C6C0000006A6C00001020
:1002900028448200282828282800824428104080EA
:1002A0008A90604C929E827C7E8888887EFE9292A4
:1002B000926C7C82828244FE82824438FE929292C8
:1002C00082FE909090807C8292925EFE101010FED2
:1002D0000082FE8200040282FC80FE10284482FE1E
:1002E00002020202FE403040FEFE201008FE7C8228
:1002F00082827CFE909090607C828A847AFE9098C4
:100300009462629292928C8080FE8080FC02020253
:10031000FCF8040204F8FC021C02FCC6281028C6E3
:10032000E0100E10E0868A92A2C200FE8282004097
:1003300020100804008282FE00204080402002023B
:100340000202020080402000042A2A2A1EFE1222F5
:10035000221C1C222222041C222212FE1C2A2A2ACF
:1003600018107E908040304A4A4A7CFE1020201EA1
:100370000022BE0200040222BC00FE08142200007B
:1003800082FE02003E2018201E3E1020201E1C224D
:1003900022221C3E28282810102828183E3E102013
:1003A0002010122A2A2A0420FC2202043C02020401
:1003B0003E38040204383C020C023C221408142289
:1003C000300A0A0A3C22262A322200106C820000DF
:1003D00000FE000000826C100008101008100000E1
:1003E0000000007F8181817F7F8383837F7F878778
:1003F000877F7F8F8F8F7F7F9F9F9F7F7FBFBFBFB5
:100400007F7FFFFFFF7F2040FF40206215171565AB
:1004100000FBFB00000000000000C0FF0300E0FF45
:100420000700F0FF0F00F8FF1F0078001E007800A3
:100430001E0078001E0078001E0078001E00780064
:100440001E0078001E0078001E0078001E000000CC
:1004500000000000000080FF0300E0FF0700F0FF45
:100460000F00F8FF1F00F83C1F00783C1E00783C8E
:100470001E00783C1E00783C1E00783C1E00783C34
:100480001E00783C1E00783C1E00783C1E00783C24
:100490001E000000000000000000E0FF0300F0FF6D
:1004A0000700F8FF0F00F8FF1F00783C1E00783CA3
:1004B0001E00783C1E00783C1E00783C1E00783CF4
:1004C0001E00783C1E00783C1E00783C1E00783CE4
:1004D0001E000000000000000000F8FF0300F8FF0D
:1004E0000F00F8FF1F00F8FF1F0000001E000000B3
:1004F0001E0000801F0000F01F0000FF0F00E0FF43
:100500000700F0FF0000F80F0000F800000078007E
:10051000000078000000F8FF1F00F8FF1F00F0FF48
:100520001F00E0FF1F000000000000000000F8FFB7
:100530001F00F8FF1F00F8FF1F00F8FF1F007800E2
:100540001E00783C1E00783C1E00783C1E00783C63
:100550001E00783C1E00783C1E00F87E1F00F8FF4D
:100560001F00F0FF0F00E0E70300000000000000A4
:100570003800EEFF6C002A8045003A0047FC03FF7C
:100580006CFC83FF3900DEFF0B7CD0810BFCD0813B
:100590000BC0D0810BFCD0810B7CDEFF0B0082FFF7
:1005A000397002FF6CF83A0047DC2A8045CCEEFF38
:1005B0006CCC000038000000000C00001E0C000095
:1005C0001E0000001E0000001E0000001E00F8FFBC
:1005D0001F00F8FF1F00F8FF1F00F8FF1F000000BA
:1005E0001E0000001E0000001E0000001E00000093
:1005F0005E000000400000007C00000040000000A1
:10060000400000007C0000003000000010000000EE
:10061000300000007C0011241FBECFEFD8E0DEBF09
:10062000CDBF11E0A0E0B1E0E2EFF2E402C005903E
:100630000D92A23BB107D9F722E0A2EBB1E001C0D5
:100640001D92A73FB207E1F70E942A030C9477217D
:100650000C9400000E94DA080E94CC080E949A16AE
:1006600080E090E008950F931F9385E00E9482063A
:100670008823C1F080E460E00E94300400E0802F15
:1006800060E00E94DB0310E080E061E00E94300443
:100690001F5F1038C9F70F5F043089F783E060E00F
:1006A0000E941E041F910F9108950F931F9385E0E0
:1006B0000E947506882311F082E07AC00E948C04A3
:1006C000182F0E94F4061150123008F06DC08150AE
:1006D000823008F069C00E944B048EEA60E00E94FC
:1006E000300482EA60E00E94300480EA60E00E9408
:1006F000300400E513ECC8010197F1F780EC60E0ED
:100700000E9430048FE260E00E94300481E860E0E3
:100710000E94300486E160E00E94300482E260E0E2
:100720000E943004C8010197F1F78FEA60E00E944F
:10073000300486EA60E00E94300485EA60E00E94AE
:10074000300480E090E028E833E1F9013197F1F7D7
:10075000019643E0883E9407C1F783EB60E00E9476
:10076000300480E460E00E94300483E060E00E9496
:10077000DB0383E060E00E941E0410925A02109294
:100780005C0210925B0284E091E09093F40280930B
:10079000F30288E10E94FD030E94330384EA60E0D3
:1007A0000E94300481E004C085E00E94650687E075
:1007B0001F910F910895FF920F931F93082FF62E0C
:1007C00085E00E9482068823A1F01F2D1F77037009
:1007D000802F806B60E00E94300412951F70812F83
:1007E000806160E00E9430048F2D8F7060E00E9475
:1007F00030041F910F91FF9008951F93182F85E0EB
:100800000E9482068823C1F087E00E94CE0482E025
:100810006AE00E941F0582E061EB0E941F05612FC4
:10082000113208F060E282E00E941F0589EE8A958D
:10083000F1F787E00E94CE041F9108950F931F9354
:10084000082F162F85E00E948206882331F003705E
:100850001F7710935802009359021F910F9108952A
:100860000F931F93082F162F85E00E94820688237E
:1008700079F0112319F0113021F402C02B9801C036
:100880002B9A86E08A95F1F780E0602F0E941F0581
:100890001F910F910895239A08951F93182F86E0B2
:1008A0000E948206882319F0812F0E9470041F91F4
:1008B000089586E00E947506882311F082E008956D
:1008C0000E94750481E008951F93182F86E00E940E
:1008D0008206882319F0812F0E947E041F910895BB
:1008E00085FD5D9886FD5E980895559A569A80E23A
:1008F0000E944D0480E40E944D040895282F85FF36
:1009000004C08BB190E289278BB926FF04C08BB15C
:1009100090E489278BB9089582E00E9475068823A8
:1009200011F082E008950E942E0580E06EE47CE0E4
:100930000E94C50481E066E47CE00E94C50482E078
:100940006EE37CE00E94C50486E066E57CE00E94E0
:10095000C50483E066E37CE00E94C50484E066E3AE
:100960007CE00E94C50485E066E37CE00E94C5044B
:1009700087E066E37CE00E94C5048FEF80935D0210
:1009800087E00E94CE0481E00895E82FF0E0EE0FAA
:10099000FF1FE350FE4F7183608308951F93182F4C
:1009A00082E00E948206882309F447C0912F977045
:1009B00080915D02981709F440C090935D0285B163
:1009C000887F892B85B9933011F1943028F49130C8
:1009D00051F0923090F40CC0953019F19530E0F060
:1009E000963021F50FC0E091FF01F091000222C086
:1009F000E091FD01F091FE011DC0E0910102F09136
:100A0000020218C0E0910902F0910A0213C0E091BD
:100A10000302F09104020EC0E0910502F09106027B
:100A200009C0E0910702F091080204C0E0910B02B6
:100A3000F0910C02309709F009951F9108951F93CA
:100A4000162F0E94CE0482E00E948206882321F0A5
:100A50001EBD0DB407FEFDCF1F910895259A26985F
:100A6000279A209A219A229A089587E00E94750673
:100A7000882311F082E008950E945B0681E0809354
:100A8000940210925E0210925F0210926102109224
:100A9000600210926302109262021092650210923C
:100AA000640210926702109266021092690210921C
:100AB000680210926B0210926A0210926D021092FC
:100AC0006C0210926F0210926E02109271021092DC
:100AD00070021092730210927202109275021092BC
:100AE0007402109277021092760210927C02109299
:100AF0007D0210927E0210927F021092810210926B
:100B00008202109283021092840210928502109247
:100B10008602109287021092890210928802109227
:100B20008B0210928A0210928D0210928C02109207
:100B30008F0210928E021092790210927802109217
:100B40007B0210927A0210929302109292021092FB
:100B5000940208952EEF8037920714F480E79EEFF9
:100B6000FC0181E0E139F80714F0E0E9F1E09B01D4
:100B70008EEF6037780714F420E73EEFA90121E0FB
:100B80004139520714F040E951E08F2F881F882720
:100B9000881F252F221F2227221F91E09093940265
:100BA0008093810220938202CF01F7FF03C09095CA
:100BB00081959F4F9A0157FF03C0309521953F4F74
:100BC00090936102809360023093630220936202EB
:100BD00010929402089521E020939402AC0183E0E6
:100BE000493E580710F048EE53E09B0183E0693E10
:100BF000780710F028EE33E0F894509369024093A0
:100C0000680230936B0220936A02789410929402E7
:100C10000895482F81E080939402CB0121E061394F
:100C2000720710F080E991E0413061F0413018F036
:100C30004230C9F40EC0F894909361028093600230
:100C4000789411C0F8949093630280936202789430
:100C50000AC0F894909361028093600290936302BB
:100C60008093620278941092940208950F931F93D8
:100C7000182F062F662349F460E070E00E940906F1
:100C8000812F60E070E00E94DE0D81E0809394028D
:100C9000113051F0113018F0123041F403C00093BC
:100CA0007C0204C000937C0200937D0210929402A7
:100CB0001F910F9108953A9A3B9A3C9A3D9A3E9A19
:100CC0003F9A88B1837088B90895853160F4E82F20
:100CD000F0E0ED5BFD4F8081882329F08081815019
:100CE0008083808108958FEF0895853110F080E032
:100CF0000895E82FF0E0ED5BFD4F80818F5F8083EA
:100D000081500895853110F080E00895E82FF0E0DB
:100D1000ED5BFD4F8081811181E008951F93182FB5
:100D20008091B301882341F08091BA01882399F022
:100D30001092B3011092BA010E94C3068093B201CF
:100D400084EB91E061E040E028E230E00E94860719
:100D500081E08093B3019091B201133018F0133009
:100D600079F409C0E12FF0E0E050FF4F8081892342
:100D700041F081E006C091FF03C0892F817001C05E
:100D800080E01F9108950F931F9381E00E948206D7
:100D9000882311F400E024C087E00E94CE0482E0A2
:100DA0006AE00E941F0582E062EB0E941F0518ECBA
:100DB000812F8A95F1F782E060E00E945F0C082F96
:100DC000812F8A95F1F782E060E00E945F0C1A950E
:100DD000F1F787E00E94CE0488E893E10197F1F7EC
:100DE000802F1F910F910895DF93CF9300D00F9222
:100DF000CDB7DEB781E00E947506882311F082E04E
:100E000011C00E948C048150823040F40E94180767
:100E1000CE0101960E94100E81E004C081E00E9484
:100E2000650687E00F900F900F90CF91DF910895A6
:100E30001092AC021092AB021092AE021092AD0270
:100E40001092B0021092AF021092B2021092B10250
:100E50001092B4021092B30280E991E0909398024C
:100E60008093970290939A028093990290939C02A8
:100E700080939B0290939E0280939D029093A00288
:100E800080939F0284E398E09093A2028093A10252
:100E90009093A4028093A3029093A6028093A5024C
:100EA0009093A8028093A7029093AA028093A9022C
:100EB00008950F931F93DF93CF93CDB7DEB7299794
:100EC0000FB6F894DEBF0FBECDBF8C0188E00E9444
:100ED0008206882311F491E00DC0CE01019661E0F5
:100EE00040E098010E948607982F882319F48F818B
:100EF0008823E9F3892F29960FB6F894DEBF0FBE39
:100F0000CDBFCF91DF911F910F910895EF92FF9286
:100F10000F931F93CF93DF93EC01F62EE42E8901FC
:100F200088E00E948206882311F481E026C084E0D4
:100F300090E00E94961EFC01009711F482E01DC013
:100F4000F982F0FC1E8281E0E81619F48981846040
:100F500089838981886089831B830A831D830C832D
:100F6000D183C0831382128281E080931D02CF015E
:100F70000E94C40710921D0280E0DF91CF911F9163
:100F80000F91FF90EF900895CF92DF92EF92FF9232
:100F90000F931F93CF93DF93EC018091B5028823C9
:100FA00039F4D093B702C093B6020E94690E47C0CD
:100FB000C090B602D090B70200E010E0EE24FF240B
:100FC00037C0A881B981FD0164817581F601408136
:100FD0005181FA01848195819B01281B390B37FFD0
:100FE0000FC0861B970B95838483DB82CA82012BFB
:100FF00029F4D093B702C093B60221C0F7010CC008
:10100000F601828193812115310549F4FD01158294
:1010100014829B838A83F601D383C28310C0FD01AF
:10102000358324830097B9F30F5F1F4F76016C015E
:101030008091B50290E00817190718F2ECCF809163
:10104000B5028F5F8093B502DF91CF911F910F9111
:10105000FF90EF90DF90CF900895E091E802F0913B
:10106000E902309711F480E0089584850895EF92A5
:10107000FF920F931F930E94841084E10E947506D3
:10108000882311F082E026C08EE00E948206882329
:10109000E9F481E00E94890F8130C1F40E94B80810
:1010A0000E94B90881E063E040E020E0E12C92EC8E
:1010B000F92E91E0092F112D0E94E10E0E948A085D
:1010C000882311F486E006C081E004C084E10E9418
:1010D000650687E01F910F91FF90EF900895E091D2
:1010E000E802F091E902309709F014860895909390
:1010F000E7028093E6027093E9026093E8020E949F
:101100006F08089581E00E94780F81E061E00E94FD
:1011100017100895EF92FF920F931F93DF93CF93D1
:101120000F92CDB7DEB781E061E00E94171000E0BA
:1011300010E07E010894E11CF11C81E0B7010E94DF
:10114000C30F882311F010E006C00F5F1F4F0A3055
:10115000110599F711E081E060E00E941710812FDE
:101160000F90CF91DF911F910F91FF90EF90089515
:1011700008951092E4021092E5021092E702109294
:10118000E6021092E9021092E8021092EA0210922E
:10119000EC021092EB0208950E94F90D0E94D80B08
:1011A0000E941A0B0E944D0E0E948C040E94F406AD
:1011B00078940895000008951F920F920FB60F9231
:1011C00011242F933F934F935F936F937F938F934C
:1011D0009F93AF93BF93EF93FF93E091DD01F09165
:1011E000DE01309709F00995FF91EF91BF91AF9122
:1011F0009F918F917F916F915F914F913F912F912F
:101200000F900FBE0F901F9018951F920F920FB660
:101210000F9211242F933F934F935F936F937F937C
:101220008F939F93AF93BF93EF93FF93E091DF0171
:10123000F091E001309709F00995FF91EF91BF918E
:10124000AF919F918F917F916F915F914F913F915E
:101250002F910F900FBE0F901F9018951F920F9215
:101260000FB60F9211242F933F934F935F936F9379
:101270007F938F939F93AF93BF93EF93FF93E091EF
:10128000E101F091E201309709F00995FF91EF91AA
:10129000BF91AF919F918F917F916F915F914F918E
:1012A0003F912F910F900FBE0F901F9018951F9296
:1012B0000F920FB60F9211242F933F934F935F938A
:1012C0006F937F938F939F93AF93BF93EF93FF930E
:1012D000E091CF01F091D001309709F00995FF918D
:1012E000EF91BF91AF919F918F917F916F915F919E
:1012F0004F913F912F910F900FBE0F901F90189517
:101300001F920F920FB60F9211242F933F934F937A
:101310005F936F937F938F939F93AF93BF93EF935D
:10132000FF93E091D101F091D201309709F0099536
:10133000FF91EF91BF91AF919F918F917F916F91AD
:101340005F914F913F912F910F900FBE0F901F9083
:1013500018951F920F920FB60F9211242F933F935F
:101360004F935F936F937F938F939F93AF93BF93AD
:10137000EF93FF93E091D301F091D401309709F0FE
:101380000995FF91EF91BF91AF919F918F917F91BF
:101390006F915F914F913F912F910F900FBE0F90E2
:1013A0001F9018951F920F920FB60F9211242F9332
:1013B0003F934F935F936F937F938F939F93AF93DD
:1013C000BF93EF93FF93E091D701F091D80130974D
:1013D00009F00995FF91EF91BF91AF919F918F9186
:1013E0007F916F915F914F913F912F910F900FBE21
:1013F0000F901F9018951F920F920FB60F92112405
:101400002F933F934F935F936F937F938F939F930C
:10141000AF93BF93EF93FF93E091D901F091DA017D
:10142000309709F00995FF91EF91BF91AF919F918E
:101430008F917F916F915F914F913F912F910F907D
:101440000FBE0F901F9018951F920F920FB60F921C
:1014500011242F933F934F935F936F937F938F93B9
:101460009F93AF93BF93EF93FF93E091D501F091DA
:10147000D601309709F00995FF91EF91BF91AF9197
:101480009F918F917F916F915F914F913F912F919C
:101490000F900FBE0F901F9018951F920F920FB6CE
:1014A0000F9211242F933F934F935F936F937F93EA
:1014B0008F939F93AF93BF93EF93FF93E091DB01E3
:1014C000F091DC01309709F00995FF91EF91BF9100
:1014D000AF919F918F917F916F915F914F913F91CC
:1014E0002F910F900FBE0F901F9018951F920F9283
:1014F0000FB60F9211242F933F934F935F936F93E7
:101500007F938F939F93AF93BF93EF93FF93E0915C
:10151000C501F091C601309709F00995FF91EF914F
:10152000BF91AF919F918F917F916F915F914F91FB
:101530003F912F910F900FBE0F901F9018951F9203
:101540000F920FB60F9211242F933F934F935F93F7
:101550006F937F938F939F93AF93BF93EF93FF937B
:10156000E091C701F091C801309709F00995FF910A
:10157000EF91BF91AF919F918F917F916F915F910B
:101580004F913F912F910F900FBE0F901F90189584
:101590001F920F920FB60F9211242F933F934F93E8
:1015A0005F936F937F938F939F93AF93BF93EF93CB
:1015B000FF93E091C901F091CA01309709F00995B4
:1015C000FF91EF91BF91AF919F918F917F916F911B
:1015D0005F914F913F912F910F900FBE0F901F90F1
:1015E00018951F920F920FB60F9211242F933F93CD
:1015F0004F935F936F937F938F939F93AF93BF931B
:10160000EF93FF93E091CB01F091CC01309709F07B
:101610000995FF91EF91BF91AF919F918F917F912C
:101620006F915F914F913F912F910F900FBE0F904F
:101630001F90189580E10E947506882311F082E0C2
:101640000895EDEBF1E01192119281E0ED3FF80782
:10165000D1F781E00895FF920F931F93CF93DF930B
:10166000F82E8AE0F816B1F08F1548F0E8E0FE1683
:10167000B9F1EF1538F1F7E0FF1651F43BC08DE0FA
:10168000F81659F0EBE1FE1689F0FCE0FF1641F088
:1016900001E041C01092580203C0109258023AC0B3
:1016A0008091590281508093590234C00E943303C3
:1016B00014C080E061E00E943004809158028F5F86
:1016C000809358028091580287FFF3CF10925802FE
:1016D0008091590281508093590200E011E01CC0B2
:1016E000809158028823B1F08091580286508093EF
:1016F000580210C081E00E94300D64EF71E080E07C
:1017000090E04DE750E024E630E00E943C0D81E09F
:101710000E94970C00E010E08091590260915802FD
:101720000E94DB03002351F185E0F89EC0011124E3
:10173000EC01CD59DE4F8C0108591E4FFE018491FA
:1017400061E00E9430042196C017D107B9F780E00C
:1017500061E00E943004809158028A5F80935802B1
:101760008091580290E08C3791053CF0109258021D
:101770008091590281508093590211E08091590261
:10178000837080935902113059F480915A0281304C
:1017900039F4E0915B02F0915C02309709F0099511
:1017A00080E090E0DF91CF911F910F91FF9008951D
:1017B000F8940E94330C81E00E94E00B81E00895D0
:1017C000813049F0F894813020F18230B1F08330DB
:1017D00009F045C017C02C9A80E8809361001092F0
:1017E000610080E090E00000019688329105D9F711
:1017F0001092680010926B00089580E88093610059
:1018000083E004C080E88093610088E080936100F9
:1018100028C080E090E0000001962DE68036920717
:10182000D1F72C9880E090E0000001962DE68036FC
:101830009207D1F710927A008FEF80936400809125
:10184000680081608093680080916B008460809361
:101850006B00789483B7816083BF88950895823048
:1018600008F078940895249A2C9A089583E58CBD05
:1018700081E08DBD8DE08A95F1F7089583E58CBDFB
:101880001DBC84EF91E00197F1F708958FE78CBDBF
:101890001DBC84EF91E00197F1F7089583E58CBDBD
:1018A00081E08DBD8DE08A95F1F7089583E58CBDCB
:1018B00081E08DBD84EF91E00197F1F708951F93CA
:1018C000162F0E94CE0482E00E948206882329F00F
:1018D0001EBD0DB407FEFDCF8EB51F9108958AE0A1
:1018E0000E946506882329F481E00E94920D1092DF
:1018F0000E02089589E00E9465068823B9F480915C
:101900000D02882311F00E94D80D82E00E94920DF2
:1019100080911B0290911C02009731F00E942B1FB6
:1019200010921C0210921B0210920D020895813039
:1019300029F0823029F40E947A0C08950E946F0CDD
:1019400008950F931F93CF93DF9380E291E00E945D
:10195000961E9C0190931C0280931B02892B11F40C
:1019600080E039C08901C0E0D0E0BE0180E090E0B5
:101970000E94E91A20E030E040EA51E40E94771A20
:1019800027EF35E740E05FE30E94B41B9B01AC0109
:1019900060E070E080E291E40E94211C9B01AC01B8
:1019A000CA01B9012DEC3CEC42E851E40E94B41BA1
:1019B0000E94771B2AE030E040E050E00E94131EB6
:1019C000F80161937193819391938F012196C834AB
:1019D000D10559F681E0DF91CF911F910F910895C4
:1019E0008AE00E947506882311F082E00895109223
:1019F00018021092170281E00E94AE0D81E08093E0
:101A00000E0208951F9389E00E947506882311F045
:101A100082E024C08BE00E9482068823D9F40E94D1
:101A2000A10C182F813011F086E018C010920F021F
:101A30001092100210921102109212028DE06DE2CB
:101A400071E10E94081182E00E94AE0D10930D0218
:101A500081E004C089E00E94650687E01F91089537
:101A6000813021F0823029F084E008950E94F00C4A
:101A700008950E94020D08956F927F928F929F9217
:101A8000AF92BF92CF92DF92EF92FF920F931F938C
:101A9000CF93DF933B014C015A01E9018AE00E9498
:101AA0008206882381F1209741F19501442737FD73
:101AB0004095542FBE01C536D10510F064E670E0A4
:101AC00080E090E00E94131E24E630E040E050E009
:101AD0000E94231E79018A01C401B3010E943011C2
:101AE000C7010E94590760E070E080E090E00E942A
:101AF0003011C5018E199F0904C0A114B10419F059
:101B0000C5010E945907DF91CF911F910F91FF905E
:101B1000EF90DF90CF90BF90AF909F908F907F908D
:101B20006F900895823029F4809181008E7F809398
:101B3000810080910D02813031F480910E0281305C
:101B400011F40000089580910D02813021F0809100
:101B50000E02813011F45F9857980895982F809164
:101B60000D02882331F480910E02882311F4579AD4
:101B70005F9880910D028823D1F49230C1F41092C5
:101B800080001092810080918100886080938100A4
:101B90008091810081608093810010928500109275
:101BA000840081E08093890080E980938800089513
:101BB000EFE6F0E080818D7F80830895982F81E0AB
:101BC00080939402913071F0913018F0923071F45A
:101BD00005C0709371026093700208C07093710227
:101BE0006093700270937302609372021092940279
:101BF0000895CF93DF93C0E0D0E08C2F60E00E9487
:101C0000080E2196C531D105C1F7DF91CF91089516
:101C1000853128F4E82FF0E0ED5BFD4F60830895F7
:101C20001F93CF93DF93EC01009799F181E00E941D
:101C30008206882351F187E00E94CE0418EC812FA0
:101C40008A95F1F782E06AE00E941F0582E064EB6A
:101C50000E941F05812F8A95F1F782E060E00E94C3
:101C60005F0C8883812F8A95F1F782E060E00E9403
:101C70005F0C89831A95F1F782E060E00E945F0CA7
:101C80008A8387E00E94CE0404C0188219828DE204
:101C90008A83DF91CF911F91089588E00E94750695
:101CA000882311F082E008951092B5021092B702D5
:101CB0001092B60210921D0210921E0280E165E998
:101CC00071E10E941C110E946D0E0E94760E81E04F
:101CD000089581E080931E02089584B5826084BDDA
:101CE00085B5846085BD8EE487BD0895EEE6F0E09D
:101CF0008081826080830895CF92DF92EF92FF927D
:101D00000F931F93CF93DF937B018C01EA0169014D
:101D100081E0E81681EEF80680E0080780E0180709
:101D200040F444E0EE0CFF1C001F111F4A95D1F750
:101D300007C033E0EE0CFF1C001F111F3A95D1F7CE
:101D400060E072EC8BEE9BE0A80197010E94231EDD
:101D500079018A0186EF9FEFAFEFBFEFE80EF91E22
:101D60000A1F1B1FC801B7012AE030E040E050E025
:101D70000E94231E653071058105910540F08AE0BF
:101D800090E0A0E0B0E0E80EF91E0A1F1B1FC8019A
:101D9000B7012AE030E040E050E00E94231EC90174
:101DA000DA012883892F9A2FAB2FBB27F601808376
:101DB000DF91CF911F910F91FF90EF90DF90CF9027
:101DC0000895BF92CF92DF92EF92FF920F931F93ED
:101DD000DF93CF9300D0CDB7DEB7B62EC42ED22E70
:101DE000882321F0813009F077C03CC08DE00E944B
:101DF0008206882309F470C01A8219821092C000EA
:101E00001092C1001092C200C801B701AE014E5F2E
:101E10005F4F9E012F5F3F4F0E947C0EBB0CDD0C7D
:101E2000DD0CDD0CDD0CDB28CC0CCC0CCC0CCD2877
:101E30008A818093C40089818093C500C092C200CA
:101E400081E0E81681EEF80680E0080780E01807D8
:101E500028F08091C00082608093C00081E0809370
:101E6000CC023AC08EE00E9482068823A9F1198232
:101E70001A821092C8001092C9001092CA00C801BC
:101E8000B701AE014F5F5F4F9E012E5F3F4F0E9433
:101E90007C0EBB0CDD0CDD0CDD0CDD0CDB28CC0C72
:101EA000CC0CCC0CCD2889818093CC008A81809386
:101EB000CD00C092CA0081E0E81681EEF80680E00D
:101EC000080780E0180728F08091C800826080939E
:101ED000C80081E08093D1020F900F90CF91DF91E5
:101EE0001F910F91FF90EF90DF90CF90BF900895DA
:101EF000882319F0813061F406C08091C1008068A8
:101F00008093C10008958091C90080688093C900C2
:101F10000895882321F08130B9F084E008958DE0A0
:101F20000E947506882369F51092CC021092CA02AD
:101F30001092CB020E94771080E065E070E00E9472
:101F40005E1081EC92E015C08EE00E947506882339
:101F5000C1F41092D1021092CF021092D00281E00F
:101F60000E94771081E065E070E00E945E1088EBCF
:101F700092E061E041E028EE33E00E94860781E0D4
:101F8000089582E00895CF93DF93EB01882321F039
:101F9000813009F046C022C08DE00E94820688236D
:101FA00009F43FC02091CD023091CE028091CB0246
:101FB0008130B9F50FC08091C702882321F02150EC
:101FC00030401092C7028091C00087FF03C080910B
:101FD000C60020C01216130674F325C08EE00E94BE
:101FE00082068823F1F02091D2023091D3028091B1
:101FF000D0028130B1F411C08091BE02882321F05B
:10200000215030401092BE028091C80087FF05C069
:102010008091CE00888380E007C01216130664F317
:1020200002C081E001C083E0DF91CF9108950F935A
:102030001F93182F062F882311F48DE003C08130E1
:1020400029F48EE00E9482068823A9F10023F9F08A
:10205000013089F5112319F0113069F50CC0809118
:10206000CC02813041F58091C10080618093C10034
:102070000093CB0220C08091D1028130E1F48091A5
:10208000C90080618093C9000093D00214C011235D
:1020900019F0113081F408C08091C1008F7E8093C7
:1020A000C1001092CB0207C08091C9008F7E80933F
:1020B000C9001092D0021F910F91089577FF03C0BD
:1020C00060E070E005C06F31710514F06EE170E002
:1020D000882319F0813051F405C07093CE026093CB
:1020E000CD0208957093D3026093D202089588239D
:1020F00019F0813041F404C0519A5098599A0895CA
:10210000539A52985B9A0895000008951F920F9277
:102110000FB60F9211242F933F934F935F936F93BA
:102120007F938F939F93AF93BF93EF93FF93DF932F
:10213000CF930F92CDB7DEB781E00E94B5117894AE
:1021400081E0BE016F5F7F4F0E94C30F882319F4A7
:1021500089810E94C21081E00E94780F0F90CF9178
:10216000DF91FF91EF91BF91AF919F918F917F91FF
:102170006F915F914F913F912F910F900FBE0F90F4
:102180001F9018951F93282F853519F08A3A89F4E6
:1021900004C081E08093E50233C01091E502113064
:1021A00069F582E08093E5020E9445121093E402F3
:1021B00027C08091E502823009F58091EB02909171
:1021C000EC024097C0F48091EB029091EC02FC018C
:1021D000EC52FD4F208301969093EC028093EB022A
:1021E0008091EB029091EC020C9751F41092E50271
:1021F0000E94C61105C081E08093EA021092E502B8
:102200008091E502882311F41092E4021F91089551
:10221000E82F803268F48051833050F0F0E0EE0F08
:10222000FF1FE354FE4F208131817183608302C020
:1022300020E030E0C9010895803218F020E030E05D
:102240000AC0E82FF0E0EE0FFF1FE354FE4F20819D
:10225000318171836083C90108950E9454110895EA
:10226000EF92FF920F931F937B018C018AE00E94F3
:1022700082068823A1F080910E02882381F0D80184
:10228000C701880F991FAA1FBB1F90931A02809342
:102290001902E114F1040105110509F45F981F9179
:1022A0000F91FF90EF90089580910F02909110028E
:1022B000A0911102B09112022091130230911402E8
:1022C0004091150250911602280F391F4A1F5B1FBB
:1022D00020930F0230931002409311025093120288
:1022E00080910F0290911002A0911102B091120200
:1022F0008851964FA040B040BCF08BB180588BB94C
:1023000080910F0290911002A0911102B0911202DF
:102310008851964FA040B04080930F0290931002D6
:10232000A0931102B093120208950E949C110E9482
:1023300071120E944A12089588E00E948206882342
:1023400011F484E0089580911E02882311F483E043
:10235000089580911D02882311F082E008950E9463
:10236000BE148130E1F380E00895882319F08130B4
:1023700061F406C08091C1008F778093C1000895F9
:102380008091C9008F778093C9000895E4EDF2E051
:1023900020E030E082819381280F391F329682E05D
:1023A000EE3DF807B9F72115310509F46DC08091AC
:1023B000D4029091D5022817390709F065C08091A1
:1023C000E6029091E702892B59F5E091E802F0913D
:1023D000E902309729F18485882311F53183208320
:1023E0008091D6029091D702938382838091D80204
:1023F0009091D902958384838091DA029091DB02D7
:10240000978386838091DC029091DD02918780879B
:102410008091DE029091DF029387828781E084873A
:102420002091E6023091E7022115310569F1E09132
:10243000E802F091E902309739F18091D40290914D
:10244000D502918380838091D6029091D7029383A5
:1024500082838091D8029091D90295838483809160
:10246000DA029091DB02978386838091DC0290915F
:10247000DD02918780878091DE029091DF02938751
:102480008287CF01F901099508951092EC0210920C
:10249000EB02089580910E02813011F580911702B0
:1024A000909118022091190230911A02280F391FB9
:1024B000309318022093170280911702909118020E
:1024C000885E93406CF08BB180588BB98091170275
:1024D00090911802885E934090931802809317029F
:1024E000089587E00E948206882309F4AAC080919B
:1024F000680290916902892B09F180918C02909178
:102500008D022091680230916902820F931F90938F
:102510008D0280938C0280918C0290918D02885E56
:102520009340A4F080918C0290918D02885E93403C
:1025300090938D0280938C0241E009C080916002EB
:1025400090916102909365028093640240E08091D3
:102550006A0290916B02892B09F180918E02909111
:102560008F0220916A0230916B02820F931F909329
:102570008F0280938E0280918E0290918F02885EEE
:102580009340A4F080918E0290918F02885E9340D8
:1025900090938F0280938E0261E009C08091620265
:1025A00090916302909367028093660260E0842FAB
:1025B0000E942213809188029091890220916402E6
:1025C00030916502280F391F3093890220938802C9
:1025D0008091880290918902885E934014F440E0D3
:1025E0000BC08091880290918902885E93409093FD
:1025F00089028093880241E080918A0290918B0247
:102600002091660230916702280F391F30938B02A8
:1026100020938A0280918A0290918B02885E934077
:1026200014F460E00BC080918A0290918B02885E66
:10263000934090938B0280938A0261E0842F0E94E2
:10264000671308958823F1F02091600230916102B0
:102650008091640290916502281B390B12161306B3
:1026600034F48091640290916502019607C0232B97
:1026700049F0809164029091650201979093650200
:1026800080936402662311F120916202309163020B
:102690008091660290916702281B390B121613066F
:1026A00054F48091660290916702019690936702BC
:1026B000809366020895232B49F0809166029091E1
:1026C00067020197909367028093660208950F93C3
:1026D0001F93182F062F80919402882309F0E7C0DA
:1026E00080917C02882309F05AC080916402909105
:1026F0006502892BE9F480911F02837E80931F027B
:102700001092850280919002882309F45DC0609147
:102710007E0280E00E943606E0919202F0919302E0
:10272000309709F451C081E08083109290024CC030
:1027300080915E02813041F480917002909171022B
:10274000019711F411E002C01123F1F1E09183022D
:10275000F0E0EE5EFE4F90911F02937E8081892B08
:1027600080931F0280918102882321F4809183024B
:102770008F5F03C080918302815080938302809198
:10278000830283708093830281E08093850280912D
:102790005E028130C9F480E00E946A1415C09091F5
:1027A0001F02937E90931F02E0918302F0E0EE5EA1
:1027B000FE4F8081892B80931F0282E080938502E7
:1027C000109265021092640280917D02882309F0C4
:1027D00059C08091660290916702892BE9F480913B
:1027E0001F028F7180931F021092860280919102C6
:1027F000882309F45CC060917F0281E00E94360664
:10280000E0919202F0919302309709F450C081E078
:102810008183109291024BC080915F02813041F41C
:102820008091720290917302019711F401E002C04D
:102830000023E9F1E0918402F0E0EA5EFE4F90911E
:102840001F029F718081892B80931F0280918202D9
:10285000882321F4809184028F5F03C080918402D9
:1028600081508093840280918402837080938402DB
:1028700081E08093860280915F028130C1F40E94E2
:102880006A1415C090911F029F7190931F02E091EE
:102890008402F0E0EA5EFE4F8081892B80931F0264
:1028A00082E0809386021092670210926602809105
:1028B0008702882331F48FE192E0612F402F0E943C
:1028C0002C1588B1837090911F02892B88B91F91B4
:1028D0000F910895882321F0813009F04EC027C060
:1028E0008091700290917102892B49F08091700261
:1028F0009091710201979093710280937002809180
:1029000090028823D1F5209170023091710280915C
:102910007402909175022817390779F580E060E01C
:1029200070E00E94090681E08093900208958091F2
:10293000720290917302892B49F0809172029091FA
:1029400073020197909373028093720280919102B7
:10295000882399F42091720230917302809176025B
:10296000909177022817390741F481E060E070E028
:102970000E94090681E0809391020895FF920F93CF
:102980001F93CF93DF938091B502882309F459C038
:102990000091B6021091B702F801C081D1818C81FB
:1029A0009D8101979D838C83181619060CF449C0EC
:1029B000898180FF05C08E81882311F481E08E8398
:1029C000898181FF03C0EF81F88509958091B50267
:1029D0008230A8F0F801828193819093B7028093AE
:1029E000B60213821282E0910000F091010084810E
:1029F0009581181619063CF0FF24F39405C0109237
:102A0000B7021092B602FF248091B50281508093E4
:102A1000B5028091B502882311F40E94291589819D
:102A200082FF08C08A819B819D838C83C8010E949C
:102A3000C40708C0C8010E942B1F89818F7E89832B
:102A400001C0FF248F2DDF91CF911F910F91FF9037
:102A5000089510921E020895FC0180918502823033
:102A600069F48091230291E08927809323028823CF
:102A700009F03EC08081837E80833AC080916402E9
:102A800090916502C397A4F56623D1F0209164026A
:102A90003091650280E690E0BC01269FC001279F2F
:102AA000900D369F900D1124880F892F881F990B48
:102AB000909379028093780281E08093210218C07C
:102AC000809121028823A1F080917802909179026F
:102AD0000197909379028093780280917802909187
:102AE0007902892B29F48081837E808310922102D0
:102AF00080918602823069F48091220291E08927D8
:102B000080932202882309F03EC080818F718083E8
:102B100008958091660290916702C397A4F54423BB
:102B2000D1F0209166023091670280E690E0AC011E
:102B3000249FC001259F900D349F900D1124880F74
:102B4000892F881F990B90937B0280937A0281E0F2
:102B5000809320020895809120028823A1F0809123
:102B60007A0290917B02019790937B0280937A0284
:102B700080917A0290917B02892B29F480818F7158
:102B80008083109220020895CF93DF93FC0130815F
:102B900020913902321303C0208121111EC0EC01A3
:102BA0000E9433038881813059F038F0823059F027
:102BB000833061F485E491E00BC080E291E008C0CD
:102BC0008CE291E005C089E391E002C082E591E0EA
:102BD0000E94E920888180933902DF91CF91089586
:102BE000DC01FB019C918081981325C011962D91E9
:102BF0003C9112978181928128173907E1F413964D
:102C00002D913C911497838194812817390799F469
:102C100015962D913C911697858196812817390735
:102C200051F417964D915C9118972781308581E07A
:102C30004217530709F080E00895CF93DF93EC012A
:102C40009B018091380281110AC041E061E08FE26E
:102C500092E00E94860781E08093380211C0809143
:102C60003502882369F080E40E94640480E00E94B9
:102C70008E06888381E00E948E0689831092350239
:102C8000DF91CF9108950F931F93CF93DF93EC01C2
:102C90008B010E942D08811107C020912D023091D7
:102CA0002E0224363105DCF4F80126813781808537
:102CB000918583E08883C901CC979A83898384E0D6
:102CC00091E0821B930B9C838B8310922E021092B7
:102CD0002D02DF91CF911F910F910C946F082F5F00
:102CE0003F4F30932E0220932D02DF91CF911F9101
:102CF0000F910895CF93DF93EC0164E272E00E949C
:102D0000F015811114C06F8178858D819E810E949C
:102D1000EB056B817C8189819A810E94AA0589E0FB
:102D2000FE01A4E2B2E001900D928A95E1F7DF91F5
:102D3000CF910895CF93DF93CDB7DEB72F970FB61E
:102D4000F894DEBF0FBECDBF0E9459040E94550308
:102D50000E9435050E943708813051F5BE016D5F34
:102D60007F4F80E090E00E9477080E9482081092D6
:102D70003C0210923B0210923E0210923D021092D1
:102D8000400210923F0210924202109241021092B1
:102D90003A0280E291E00E94E92088EB9BE00E94E9
:102DA00059070E9433038CE891E00E94E92007C094
:102DB0000E9433038EE991E00E94E920FFCF0E9438
:102DC000C30684FFFCCF0E9433036DE770E0CE01A1
:102DD00001960E941D16BE016F5F7F4F8AE392E04D
:102DE0000E9443168AE392E00E947A168AE392E0F8
:102DF0000E94C415EACFA3E1B0E0E1E0F7E10C9452
:102E0000501E6C014B012A01FC011782168283813E
:102E100081FF43C3AE014F5F5F4F3A01F6019381DB
:102E2000F40193FD859193FF81914F01882309F46B
:102E300030C3853239F493FD859193FF81914F0121
:102E4000853239F4B60190E00E94B120520125018B
:102E5000E5CF10E0F12C20E02032A0F48B3269F0B5
:102E600030F4803259F0833269F420612CC08D3205
:102E700039F0803339F4216026C02260246023C0F9
:102E8000286021C027FD27C030ED380F3A3078F494
:102E900026FF06C0FAE01F9F300D1124132F13C028
:102EA0004AE0F49E300D1124F32E20620CC08E32C5
:102EB00021F426FDEEC2206406C08C3611F4206891
:102EC00002C0883641F4F40193FD859193FF81910E
:102ED0004F018111C1CF9BEB980F933018F4206103
:102EE000805E06C09BE9980F933008F071C12F7E79
:102EF00026FF16E02F73322E853619F42064322E09
:102F000008C0863621F4F22FF0683F2E02C011115E
:102F1000115037FE07C01C3350F4EE24E394E10E49
:102F200027E00BC0183038F027E017E005C027E095
:102F30004CE3E42E02C0212FE12C520144E0A40E08
:102F4000B11CF20160817181828193810E2DA301F8
:102F50000E94C31F2C01098100FF02C003FF07C0AC
:102F600031FC08C032FE09C030E2232E07C02DE23A
:102F7000222E04C09BE2292E01C0212C802F8C70B0
:102F800019F0211068C2A8C237FE0FC0E40C04FF7C
:102F900004C08A81813309F4EA941E1474F5F8E0C0
:102FA000FE1578F588E0E82E2CC036FC2AC0812F6B
:102FB00090E0841595059CF02CEF42162FEF5206F9
:102FC00074F0432D4068342E0AC0E2E0F0E0EC0FCC
:102FD000FD1FE10FF11D8081803319F41150111193
:102FE000F4CF37FE0EC0EE24E394E10E812F90E083
:102FF000481659062CF4141904C0EE24E39401C0B9
:1030000010E037FE06C01414150434F4C201019612
:1030100005C085E090E002C081E090E021100196BB
:10302000112331F0212F30E02F5F3F4F820F931F8C
:103030002F2D30E08217930714F4F81A01C0F12CF9
:10304000832D897049F4FF2039F0B60180E290E0C9
:103050000E94B120FA94F7CF222029F0B601822DE8
:1030600090E00E94B12033FC09C0FF2039F0B60186
:1030700080E390E00E94B120FA94F7CF37FE5AC067
:10308000942D852D57FE02C090E080E0292E382E29
:1030900020E030E0A2014E1951095D874C87A20162
:1030A000421953095F874E87612F70E044275527E7
:1030B000461B570B598B488B5FEF2516350649F495
:1030C000B6018EE290E02A8B3B8B0E94B1203B89B7
:1030D0002A89421453046CF04C855D8542155305D2
:1030E00044F4EE85FF85E20FF31FE60DF71D8181A5
:1030F00001C080E351E0251A31082F5F3F4F488916
:103100005989241635064CF0B60190E02A8B3B8B8A
:103110000E94B1202A893B89CFCF2414350439F489
:103120009A81963318F4953311F404FF81E3B601C4
:1031300090E04BC08A81813309F00F7EB60190E0A8
:103140000E94B120111105C034FC18C085E690E042
:1031500017C0B6018EE290E00E94B12082E0EE241A
:10316000E394E80EF301E80FF11D8081B60190E0D1
:103170000E94B12011508E2D91F7E6CF85E490E0AA
:10318000B6010E94B12057FC05C04114510439F426
:1031900004FF05C05194419451088DE201C08BE2B7
:1031A000B60190E00E94B12080E39AE049165104F4
:1031B0002CF08F5F5AE0451A5108F7CFB60190E026
:1031C0000E94B120B601C201C0960E94B12057C131
:1031D000833631F0833779F0833509F058C021C048
:1031E0005201E2E0AE0EB11CF2018081898301E060
:1031F00010E0230114C05201F2E0AF0EB11CF20145
:103200004080518026FF03C0612F70E002C06FEF45
:103210007FEFC2012A8B0E94A6208C012A892F777A
:1032200015C05201F2E0AF0EB11CF2014080518096
:1032300026FF03C0612F70E002C06FEF7FEFC20175
:103240002A8B0E949B208C012A892068322E23FD24
:103250001AC08F2D90E008171907A8F4B60180E274
:1032600090E00E94B120FA94F4CFF20137FC8591EE
:1032700037FE81912F01B60190E00E94B120F1103C
:10328000FA94015011090115110579F7F8C0843637
:1032900011F0893659F5520127FF09C0F4E0AF0E4D
:1032A000B11CF20160817181828193810AC0F2E0D8
:1032B000AF0EB11CF20160817181072E000C880BEA
:1032C000990B2F76322E97FF09C0909580957095B7
:1032D00061957F4F8F4F9F4F2068322E2AE030E05C
:1032E000A3010E941921E82EE6183FC0022F85375E
:1032F00021F40F7E2AE030E01DC0097F8F3691F067
:1033000018F4883559F0C5C0803719F0883711F0A6
:10331000C0C0006104FF09C0046007C024FF08C0EA
:10332000066006C028E030E005C020E130E002C0C1
:1033300020E132E0520107FF09C0F4E0AF0EB11CFA
:10334000F201608171818281938108C0F2E0AF0E49
:10335000B11CF2016081718180E090E0A3010E94C4
:103360001921E82EE6180F77302E36FE0BC0332DCC
:103370003E7FE11650F434FE0AC032FC08C0332D03
:103380003E7E05C00E2D332D03C00E2D01C0012F32
:1033900034FF0CC0FE01EE0DF11D8081803311F46D
:1033A000397E08C032FF05C00E5F04C0832F8678C7
:1033B00009F00F5F33FD13C030FF06C01E2D0F153F
:1033C00018F41F0D101B0F2D0F1568F4B60180E2C5
:1033D00090E03B8B0E94B1200F5F3B89F5CF0F152A
:1033E00010F4F01A01C0F12C34FF12C0B60180E3D2
:1033F00090E03B8B0E94B1203B8932FF17C031FD2A
:1034000003C088E790E002C088E590E0B6010CC0F8
:10341000832F867859F031FF02C08BE201C080E231
:1034200037FD8DE2B60190E00E94B120E11638F43C
:10343000B60180E390E00E94B1201150F7CFEA94EA
:10344000F301EE0DF11D8081B60190E00E94B120E4
:10345000E110F5CF14C0F4E0FF1558F584E0F81A38
:1034600033FE1EC0211026C003FF2AC00EEF10E05D
:10347000F32DF0713F2EF8018491811124C0FF20BB
:1034800009F4E5CCB60180E290E00E94B120FA9404
:10349000F6CFF6018681978126C08FEF9FEF23C07C
:1034A000B60180E290E00E94B120FA94F110F8CFCA
:1034B000D9CFF12CB601822D90E00E94B120D4CF5B
:1034C00002E011E0D5CF31108052B60190E00E94A9
:1034D000B1200F5F1F4FCFCF23E02F1510F483E0F3
:1034E000BECFF12CC1CF6396E2E10C946C1E0E941A
:1034F0008B1A0C943D1B0E94361B58F00E942F1B08
:1035000040F029F45F3F29F00C94261B51110C94D4
:10351000711B0C942C1B0E944E1B68F39923B1F372
:10352000552391F3951B550BBB27AA2762177307E9
:10353000840738F09F5F5F4F220F331F441FAA1F7D
:10354000A9F335D00E2E3AF0E0E832D09150504039
:10355000E695001CCAF72BD0FE2F29D0660F771FE7
:10356000881FBB1F261737074807AB07B0E809F0CD
:10357000BB0B802DBF01FF2793585F4F3AF09E3F52
:10358000510578F00C94261B0C94711B5F3FE4F3FB
:10359000983ED4F3869577956795B795F7959F5F95
:1035A000C9F7880F911D9695879597F90895E1E0E1
:1035B000660F771F881FBB1F621773078407BA0740
:1035C00020F0621B730B840BBA0BEE1F88F7E0959B
:1035D0000895E89409C097FB3EF490958095709506
:1035E00061957F4F8F4F9F4F9923A9F0F92F96E94F
:1035F000BB279395F695879577956795B795F111C4
:10360000F8CFFAF4BB0F11F460FF1BC06F5F7F4F60
:103610008F4F9F4F16C0882311F096E911C0772372
:1036200021F09EE8872F762F05C0662371F096E87B
:10363000862F70E060E02AF09A95660F771F881F4A
:10364000DAF7880F9695879597F9089597F99F6708
:1036500080E870E060E008959FEF80EC089500241A
:103660000A941616170618060906089500240A94E7
:1036700012161306140605060895092E0394000C6D
:1036800011F4882352F0BB0F40F4BF2B11F460FFFC
:1036900004C06F5F7F4F8F4F9F4F089557FD905825
:1036A000440F551F59F05F3F71F04795880F97FB06
:1036B000991F61F09F3F79F08795089512161306C0
:1036C0001406551FF2CF4695F1DF08C016161706EF
:1036D0001806991FF1CF8695710561050894089524
:1036E000E894BB2766277727CB0197F908950E94B6
:1036F000561BA8F19E57B0F1985160F039F19830FF
:1037000070F5092E9927660F771F881F991F0A9455
:10371000D1F71CC0BB27993F4CF4B111B1E0B62BD7
:10372000672F782F8827985FB1F708C0869577951F
:103730006795B79508F4B1609395C1F7BB0F30F466
:1037400011F460FF03C06F5F7F4F8F4F3EF4909581
:103750008095709561957F4F8F4F9F4F0895689426
:103760000C94711B0C94701B0E94C71B0C943D1B86
:103770000E942F1B38F00E94361B20F0952311F079
:103780000C94261B0C942C1B11240C94711B0E946E
:103790004E1B70F3959FC1F3950F50E0551F629F2C
:1037A000F001729FBB27F00DB11D639FAA27F00D9A
:1037B000B11DAA1F649F6627B00DA11D661F829FC1
:1037C0002227B00DA11D621F739FB00DA11D621FA6
:1037D000839FA00D611D221F749F3327A00D611DC3
:1037E000231F849F600D211D822F762F6A2F1124A5
:1037F0009F5750409AF0F1F088234AF0EE0FFF1FD8
:10380000BB1F661F771F881F91505040A9F79E3F2E
:10381000510580F00C94261B0C94711B5F3FE4F360
:10382000983ED4F3869577956795B795F795E79584
:103830009F5FC1F7FE2B880F911D9695879597F98D
:103840000895FA01EE0FFF1F309621053105A1F111
:103850006115710561F48038BFE39B0749F16894F5
:103860009038810561F08038BFEF9B0741F09923C4
:103870004AF5FF3FE1053105210519F1E894089467
:10388000E795D901AA2329F4AB2FBE2FF85FD0F317
:1038900010C0FF5F70F4A695E0F7F73950F019F00B
:1038A000FF3A38F49F779F930DD00F9007FC905804
:1038B000089546F00C942C1B60E070E080E89FE3D4
:1038C00008954FE79F775F934F933F932F930E9405
:1038D0001C1D2F913F914F915F910E94B41B0C943E
:1038E000791C29F416F00C94261B0C94701B0C9474
:1038F0002C1B0E94561BA8F39638A0F707F80F92CE
:10390000E8942BE33AEA48EB5FE70E94CA1B0F9268
:103910000F920F924DB75EB70F920E94641DECE7B5
:10392000F0E00E94AB1C4F915F91EF91FF91E59504
:10393000EE1FFF1F49F0FE57E0684427EE0F441FBB
:10394000FA95E1F74195550B0E94DE1C0F9007FE9A
:103950000C94D21C0895DF93CF931F930F93FF9283
:10396000EF92DF927B018C01689406C0DA2EEF01A2
:103970000E94C71BFE01E894A591259135914591C0
:103980005591A6F3EF010E94B01DFE019701A80119
:10399000DA9469F7DF90EF90FF900F911F91CF912C
:1039A000DF9108959B01AC0160E070E080E89FE347
:1039B0000C94771A0C94261B0C94051E0E94561B1F
:1039C000D8F39923C9F3940F511DA3F3915050409C
:1039D00094F059F0882332F0660F771F881F9150BA
:1039E0005040C1F79E3F51052CF7880F911D9695C9
:1039F000879597F908955F3FACF0983E9CF0BB2700
:103A0000869577956795B79508F4B1609395C1F75A
:103A1000BB0F58F711F460FFE8CF6F5F7F4F8F4FF8
:103A20009F4FE3CF0C94711B16F00C94051E0C9461
:103A30002C1B68940C94261B0E94561BA8F39923F8
:103A4000C1F3AEF3DF93CF931F930F93FF92C92F70
:103A5000DD2788232AF02197660F771F881FDAF762
:103A600020E030E040E85FEB9FE3883920F0803EC3
:103A700038F021968F770E94991DE4EAF0E004C0A7
:103A80000E94991DE1EDF0E00E94AB1C8B01BE018C
:103A9000EC01FB2E6F5771097595771F880B990BF9
:103AA0000E94EB1A28E132E741E35FE30E94C71B63
:103AB000AF2D9801AE01FF900F911F91CF91DF9133
:103AC0000E94B01D0C943D1BFA01DC01AA0FBB1F24
:103AD0009B01AC01BF5728F4222733274427507895
:103AE00020C0B75190F4AB2F002446953795279509
:103AF000011CA395D2F3002071F0220F331F441F45
:103B0000B395DAF30ED00C94981D61307105A0E8DE
:103B10008A07B94630F49B01AC01662777278827CE
:103B20009078309621F02083318342835383089527
:103B30005058BB27AA270E94B01D0C943D1B0E9421
:103B40002F1B38F00E94361B20F039F49F3F19F4E8
:103B500026F40C942C1B0EF4E095E7FB0C94261B2A
:103B6000E92F0E944E1B58F3BA17620773078407A8
:103B7000950720F079F4A6F50C94701B0EF4E095EF
:103B80000B2EBA2FA02D0B01B90190010C01CA0117
:103B9000A0011124FF27591B99F0593F50F4503EC2
:103BA00068F11A16F040A22F232F342F4427585FB4
:103BB000F3CF469537952795A795F0405395C9F7CC
:103BC0007EF41F16BA0B620B730B840BBAF0915084
:103BD000A1F0FF0FBB1F661F771F881FC2F70EC023
:103BE000BA0F621F731F841F48F4879577956795F6
:103BF000B795F7959E3F08F0B0CF9395880F08F0E2
:103C00009927EE0F9795879508959F3F31F0915032
:103C100020F4879577956795B795880F911D9695B0
:103C2000879597F90895DB018F939F930E94451E16
:103C3000BF91AF91A29F800D911DA39F900DB29F48
:103C4000900D11240895A1E21A2EAA1BBB1BFD01A1
:103C50000DC0AA1FBB1FEE1FFF1FA217B307E4076B
:103C6000F50720F0A21BB30BE40BF50B661F771FC3
:103C7000881F991F1A9469F76095709580959095A3
:103C80009B01AC01BD01CF0108950E94871EA59F35
:103C9000900DB49F900DA49F800D911D1124089547
:103CA0002F923F924F925F926F927F928F929F924C
:103CB000AF92BF92CF92DF92EF92FF920F931F933A
:103CC000CF93DF93CDB7DEB7CA1BDB0B0FB6F894EB
:103CD000DEBF0FBECDBF09942A88398848885F842B
:103CE0006E847D848C849B84AA84B984C884DF809C
:103CF000EE80FD800C811B81AA81B981CE0FD11D80
:103D00000FB6F894DEBF0FBECDBFED010895A29FA0
:103D1000B001B39FC001A39F700D811D1124911D9F
:103D2000B29F700D811D1124911D0895CF93DF93D3
:103D30008230910510F482E090E0E091EF02F09182
:103D4000F00220E030E0C0E0D0E0309711F1408197
:103D5000518148175907C0F04817590761F482810B
:103D60009381209719F09B838A832BC09093F00254
:103D70008093EF0226C02115310519F04217530731
:103D800018F49A01BE01DF01EF010280F381E02DFA
:103D9000DCCF2115310509F1281B390B2430310501
:103DA00090F412968D919C9113976115710521F0F5
:103DB000FB019383828304C09093F0028093EF020F
:103DC000FD01329644C0FD01E20FF31F81939193F0
:103DD000225031092D933C933AC02091ED0230914D
:103DE000EE02232B41F420911C0130911D013093F0
:103DF000EE022093ED0220911A0130911B01211552
:103E0000310541F42DB73EB740911E0150911F017D
:103E1000241B350BE091ED02F091EE02E217F3075F
:103E2000A0F42E1B3F0B2817390778F0AC014E5F2A
:103E30005F4F2417350748F04E0F5F1F5093EE0277
:103E40004093ED028193919302C0E0E0F0E0CF0156
:103E5000DF91CF9108950F931F93CF93DF93009736
:103E600009F48CC0FC013297138212820091EF0298
:103E70001091F0020115110581F420813181820F2A
:103E8000931F2091ED023091EE022817390779F542
:103E9000F093EE02E093ED0271C0D80140E050E0F3
:103EA000AE17BF0750F412962D913C911397AD01B8
:103EB0002115310509F1D901F3CF9D01DA013383D1
:103EC000228360817181860F971F8217930769F49F
:103ED000EC0128813981260F371F2E5F3F4F318338
:103EE00020838A819B8193838283452B29F4F093DD
:103EF000F002E093EF0242C01396FC93EE93129708
:103F0000ED01499159919E01240F351FE217F307E6
:103F100071F480819181840F951F029611969C9374
:103F20008E938281938113969C938E931297E0E0F7
:103F3000F0E0D80112968D919C911397009719F09B
:103F4000F8018C01F6CF8D919C9198012E5F3F4F27
:103F5000820F931F2091ED023091EE02281739074E
:103F600069F4309729F41092F0021092EF0202C027
:103F7000138212821093EE020093ED02DF91CF9133
:103F80001F910F910895283008F027E03327DA01B8
:103F9000990F311D87FD916000966105710539F417
:103FA00032602E5F3D9330E32A95E1F708959F3FFD
:103FB00030F080387105610509F03C5F3C5F3D934E
:103FC000913008F08068911DDF93CF931F930F937A
:103FD000FF92EF92192F987F9695E92F96959695D7
:103FE000E90FFF27E05AFE4F99273327EE24FF24DD
:103FF000A701E70105900894079428F4360FE71EFF
:10400000F81E491F511D660F771F881F991F0694C0
:10401000A1F70590079428F4E70EF81E491F561FD4
:10402000C11D770F881F991F661F0694A1F7059081
:10403000079428F4F80E491F561FC71FD11D880F7B
:10404000991F661F771F0694A1F70590079420F427
:10405000490F561FC71FD81F990F661F771F881F4C
:104060000694A9F784911095177041F0D695C795DD
:1040700057954795F794E7941A95C1F7E6E0F1E074
:1040800068941590159135916591959105907FE211
:104090007395E118F10A430B560BC90BD009C0F711
:1040A000E10CF11E431F561FC91FD01D7EF4703353
:1040B00011F48A95E6CFE894015030F0080F0AF425
:1040C0000027021708F4202F2395022F7A3328F0B7
:1040D00079E37D932A95E9F710C07D932A9589F6B7
:1040E000069497956795379517951794E118F10AF7
:1040F000430B560BC90BD00998F023957E9173950D
:104100007A3308F070E37C932013B8F77E917061E6
:104110007D9330F0839571E37D9370E32A95E1F709
:104120001124EF90FF900F911F91CF91DF9199276C
:1041300087FD90950895FC01059061507040011035
:10414000D8F7809590958E0F9F1F0895FC016150C0
:10415000704001900110D8F7809590958E0F9F1FA9
:1041600008950F931F93CF93DF93FB01238121FDCC
:1041700003C08FEF9FEF28C022FF16C046815781F2
:10418000248135814217530744F4A081B1819D01F8
:104190002F5F3F4F318320838C93268137812F5FA0
:1041A0003F4F3783268310C0EB01092F182F00845F
:1041B000F185E02D0995892BE1F68E819F8101968D
:1041C0009F838E83812F902FDF91CF911F910F912D
:1041D00008950F931F93CF93DF93E091F302F09133
:1041E000F402238121FF1BC08C01D0E0C0E0F80164
:1041F00081918F016091F3027091F402DB011896B6
:10420000ED91FC911997882331F00995892B79F369
:10421000DFEFCFEFECCF8AE00995892B19F08FEF14
:104220009FEF02C08D2F9C2FDF91CF911F910F9197
:104230000895FA01AA27283051F1203181F1E8943C
:104240006F936E7F6E5F7F4F8F4F9F4FAF4FB1E089
:104250003ED0B4E03CD0670F781F891F9A1FA11D84
:10426000680F791F8A1F911DA11D6A0F711D811D85
:10427000911DA11D20D009F468943F912AE0269F4A
:1042800011243019305D3193DEF6CF010895462FA9
:104290004770405D4193B3E00FD0C9F7F6CF462F8A
:1042A0004F70405D4A3318F0495D31FD40524193F3
:1042B00002D0A9F7EACFB4E0A695979587957795B0
:1042C0006795BA95C9F700976105710508959B0137
:1042D000AC010A2E06945795479537952795BA95C0
:1042E000C9F7620F731F841F951FA01D0895F894CE
:0242F000FFCFFE
:1042F2000201030300000002000000002B0B00007B
:104302000000180C041060C080200000F70220009A
:104312005374617274696E672E2E2E004578706C2C
:104322006F72696E672E2E2E0041766F6964696E18
:10433200672E2E2E00466F6C6C6F77696E672E2E7D
:104342002E00556E6B6E6F776E20737461746521EB
:104352000043656E74203D20282025642C202564AE
:1043620020290900773A2025642C20683A20256408
:104372000900736967233A20256409005072657346
:104382007320533320746F20626567696E00464163
:1043920054414C3A2050697879206661696C6564B1
:0243A2002100F8
:00000001FF
