S016000050697879426F545F315F696E69742E73726563BC
S11300000C940B030C9428030C9428030C942803DD
S11300100C949E0A0C94C70A0C94F00A0C94190BC5
S11300200C9428030C947F090C94A8090C94D1090E
S11300300C944C0A0C94FA090C94230A0C94750A37
S11300400C9404090C942D090C9456090C9428035F
S11300500C9428030C9428030C9428030C94280370
S11300600C9428030C9428030C9428030C94280360
S11300700C94AE100C9428030C94280307634236A6
S1130080B79BD8A71A39685618AEBAAB558C1D3C25
S1130090B7CC5763BD6DEDFD753EF6177231BF00E9
S11300A00000803F08000000BE922449123EABAA23
S11300B0AA2ABECDCCCC4C3E00000080BEABAAAA7E
S11300C0AA3E00000000BF000000803F00000000C6
S11300D000084178D3BB4387D1133D190E3CC3BDFF
S11300E04282AD2B3E68EC8276BED98FE1A93E4CAC
S11300F080EFFFBE01C4FF7F3F00000000006E617F
S11301006E00696E660000407A10F35A00A0724EC9
S113011018090010A5D4E80000E87648170000E4A8
S11301200B54020000CA9A3B000000E1F5050000F0
S113013080969800000040420F000000A086010055
S11301400000102700000000E80300000000640025
S1130150000000000A000000000001000000000090
S11301602C76D888DC674F0823DFC1DFAE59E1B1B4
S1130170B796E5E3E453C63AE651997696E8E6C2C3
S11301808426EB898C9B62ED407C6FFCEFBC9C9FCA
S113019040F2BAA56FA5F490055A2AF75C936B6CEC
S11301A0F9676DC11BFCE0E40D47FEF520E6B500E0
S11301B0D0ED902E0300943577050080841E08004E
S11301C000204E0A000000C80C333333330F986EFE
S11301D012831141EF8D2114893BE65516CFFEE6BB
S11301E0DB18D1844B381BF77C1D901DA4BBE42481
S11301F0203284725E228100C9F124ECA1E53D27FE
S113020016050100000000000000FA000000E000F4
S1130210E00028FE28FE282454FE5448C4C81026B2
S1130220466C92AA44A000A0C0000000384482009A
S1130230008244380028107C102810107C10100014
S11302400A0C00001010101010000606000004082C
S11302501020407C8A92A27C0042FE020042868AE0
S113026092628482A2D28C182848FE08E4A2A2A238
S11302709C3C5292920C808E90A0C06C9292926C94
S11302806092929478006C6C0000006A6C0000101C
S113029028448200282828282800824428104080E6
S11302A08A90604C929E827C7E8888887EFE9292A0
S11302B0926C7C82828244FE82824438FE929292C4
S11302C082FE909090807C8292925EFE101010FECE
S11302D00082FE8200040282FC80FE10284482FE1A
S11302E002020202FE403040FEFE201008FE7C8224
S11302F082827CFE909090607C828A847AFE9098C0
S11303009462629292928C8080FE8080FC0202024F
S1130310FCF8040204F8FC021C02FCC6281028C6DF
S1130320E0100E10E0868A92A2C200FE8282004093
S113033020100804008282FE002040804020020237
S11303400202020080402000042A2A2A1EFE1222F1
S1130350221C1C222222041C222212FE1C2A2A2ACB
S113036018107E908040304A4A4A7CFE1020201E9D
S11303700022BE0200040222BC00FE081422000077
S113038082FE02003E2018201E3E1020201E1C2249
S113039022221C3E28282810102828183E3E10200F
S11303A02010122A2A2A0420FC2202043C020204FD
S11303B03E38040204383C020C023C221408142285
S11303C0300A0A0A3C22262A322200106C820000DB
S11303D000FE000000826C100008101008100000DD
S11303E00000007F8181817F7F8383837F7F878774
S11303F0877F7F8F8F8F7F7F9F9F9F7F7FBFBFBFB1
S11304007F7FFFFFFF7F2040FF40206215171565A7
S113041000FBFB00000000000000C0FF0300E0FF41
S11304200700F0FF0F00F8FF1F0078001E0078009F
S11304301E0078001E0078001E0078001E00780060
S11304401E0078001E0078001E0078001E000000C8
S113045000000000000080FF0300E0FF0700F0FF41
S11304600F00F8FF1F00F83C1F00783C1E00783C8A
S11304701E00783C1E00783C1E00783C1E00783C30
S11304801E00783C1E00783C1E00783C1E00783C20
S11304901E000000000000000000E0FF0300F0FF69
S11304A00700F8FF0F00F8FF1F00783C1E00783C9F
S11304B01E00783C1E00783C1E00783C1E00783CF0
S11304C01E00783C1E00783C1E00783C1E00783CE0
S11304D01E000000000000000000F8FF0300F8FF09
S11304E00F00F8FF1F00F8FF1F0000001E000000AF
S11304F01E0000801F0000F01F0000FF0F00E0FF3F
S11305000700F0FF0000F80F0000F800000078007A
S1130510000078000000F8FF1F00F8FF1F00F0FF44
S11305201F00E0FF1F000000000000000000F8FFB3
S11305301F00F8FF1F00F8FF1F00F8FF1F007800DE
S11305401E00783C1E00783C1E00783C1E00783C5F
S11305501E00783C1E00783C1E00F87E1F00F8FF49
S11305601F00F0FF0F00E0E70300000000000000A0
S11305703800EEFF6C002A8045003A0047FC03FF78
S11305806CFC83FF3900DEFF0B7CD0810BFCD08137
S11305900BC0D0810BFCD0810B7CDEFF0B0082FFF3
S11305A0397002FF6CF83A0047DC2A8045CCEEFF34
S11305B06CCC000038000000000C00001E0C000091
S11305C01E0000001E0000001E0000001E00F8FFB8
S11305D01F00F8FF1F00F8FF1F00F8FF1F000000B6
S11305E01E0000001E0000001E0000001E0000008F
S11305F05E000000400000007C000000400000009D
S1130600400000007C0000003000000010000000EA
S1130610300000007C0011241FBECFEFD8E0DEBF05
S1130620CDBF11E0A0E0B1E0E4E8F3E402C005903E
S11306300D92A838B107D9F722E0A8E8B1E001C0CB
S11306401D92AB3CB207E1F70E942A030C94C0212F
S11306500C9400000E9402090E94F4080E94D7161C
S113066080E090E008950F931F9385E00E94AA060E
S11306708823C1F080E460E00E94470400E0802FFA
S113068060E00E94DB0310E080E061E00E94470428
S11306901F5F1038C9F70F5F043089F783E060E00B
S11306A00E9435041F910F9108950F931F9385E0C5
S11306B00E949D06882311F082E07AC00E94B4044F
S11306C0182F0E941C071150123008F06DC0815081
S11306D0823008F069C00E9462048EEA60E00E94E1
S11306E0470482EA60E00E94470480EA60E00E94D6
S11306F0470400E513ECC8010197F1F780EC60E0D2
S11307000E9447048FE260E00E94470481E860E0B1
S11307100E94470486E160E00E94470482E260E0B0
S11307200E944704C8010197F1F78FEA60E00E9434
S1130730470486EA60E00E94470485EA60E00E947C
S1130740470480E090E028E833E1F9013197F1F7BC
S1130750019643E0883E9407C1F783EB60E00E9472
S1130760470480E460E00E94470483E060E00E9464
S1130770DB0383E060E00E94350410922E021092A5
S1130780300210922F0284E091E09093C80280938B
S1130790C70288E10E9414040E94330384EA60E0E3
S11307A00E94470481E004C085E00E948D0687E032
S11307B01F910F910895FF920F931F93082FF62E08
S11307C085E00E94AA068823A1F01F2D1F770370DD
S11307D0802F806B60E00E94470412951F70812F68
S11307E0806160E00E9447048F2D8F7060E00E945A
S11307F047041F910F91FF9008950F931F93082FA3
S1130800162F85E00E94AA06882359F0812F1531FE
S113081008F084E166E0869FB0011124802F0E94D5
S113082035041F910F9108951F93182F85E00E949E
S1130830AA068823C1F087E00E94F60482E06AE0F9
S11308400E94470582E061EB0E944705612F113247
S113085008F060E282E00E94470589EE8A95F1F78C
S113086087E00E94F6041F9108950F931F93082FA9
S1130870162F85E00E94AA06882331F003701F77A3
S113088010932C0200932D021F910F9108950F9342
S11308901F93082F162F85E00E94AA06882379F05B
S11308A0112319F0113021F402C02B9801C02B9AA6
S11308B086E08A95F1F780E0602F0E9447051F913A
S11308C00F910895239A08951F93182F86E00E948C
S11308D0AA06882319F0812F0E9493041F9108957A
S11308E086E00E949D06882311F082E008950E940C
S11308F0980481E008951F93182F86E00E94AA06A9
S1130900882319F0812F0E94A1041F9108951F9339
S1130910182F86E00E94AA06882319F0812F0E94CE
S1130920A6041F91089585FD5D9886FD5E9808953F
S1130930559A569A80E20E94640480E40E946404FA
S1130940089585FD5D9A86FD5E9A0895282F85FF9A
S113095004C08BB190E289278BB926FF04C08BB108
S113096090E489278BB9089582E00E949D0688232C
S113097011F082E008950E94560580E066E77CE06D
S11309800E94ED0481E06EE67CE00E94ED0482E0CA
S113099066E67CE00E94ED0486E06EE77CE00E945F
S11309A0ED0483E06EE57CE00E94ED0484E06EE5F6
S11309B07CE00E94ED0485E06EE57CE00E94ED049D
S11309C087E06EE57CE00E94ED048FEF80933102B6
S11309D087E00E94F60481E00895E82FF0E0EE0F2E
S11309E0FF1FED52FE4F7183608308951F93182FEC
S11309F082E00E94AA06882309F447C0912F9770C9
S1130A0080913102981709F440C09093310285B166
S1130A10887F892B85B9933011F1943028F4913073
S1130A2051F0923090F40CC0953019F19530E0F00B
S1130A30963021F50FC0E091D501F091D60122C086
S1130A40E091D301F091D4011DC0E091D701F09160
S1130A50D80118C0E091DF01F091E00113C0E091EA
S1130A60D901F091DA010EC0E091DB01F091DC01D3
S1130A7009C0E091DD01F091DE0104C0E091E101E3
S1130A80F091E201309709F009951F9108951F93A1
S1130A90162F0E94F60482E00E94AA06882321F001
S1130AA01EBD0DB407FEFDCF1F910895259A26980B
S1130AB0279A209A219A229A089587E00E949D06F7
S1130AC0882311F082E008950E94830681E08093D8
S1130AD06802109232021092330210923502109280
S1130AE03402109237021092360210923902109298
S1130AF0380210923B0210923A0210923D02109278
S1130B003C0210923F0210923E0210924102109257
S1130B104002109243021092420210924502109237
S1130B204402109247021092460210924902109217
S1130B30480210924B0210924A02109250021092F4
S1130B4051021092520210925302109255021092C6
S1130B5056021092570210925802109259021092A3
S1130B605A0210925B0210925D0210925C02109283
S1130B705F0210925E021092610210926002109263
S1130B8063021092620210924D0210924C02109273
S1130B904F0210924E021092670210926602109257
S1130BA0680208952EEF8037920714F480E79EEFD1
S1130BB0FC0181E0E139F80714F0E0E9F1E09B0180
S1130BC08EEF6037780714F420E73EEFA90121E0A7
S1130BD04139520714F040E951E08F2F881F8827CC
S1130BE0881F252F221F2227221F91E0909368023D
S1130BF08093550220935602CF01F7FF03C09095CE
S1130C0081959F4F9A0157FF03C0309521953F4F1F
S1130C109093350280933402309337022093360246
S1130C2010926802089521E020936802AC0183E0E9
S1130C30493E580710F048EE53E09B0183E0693EBB
S1130C40780710F028EE33E0F89450933D02409377
S1130C503C0230933F0220933E0278941092680243
S1130C600895482F81E080936802CB0121E0613927
S1130C70720710F080E991E0413061F0413018F0E2
S1130C804230C9F40EC0F894909335028093340234
S1130C90789411C0F8949093370280933602789434
S1130CA00AC0F894909335028093340290933702EB
S1130CB08093360278941092680208950F931F93DC
S1130CC0182F062F662349F460E070E00E94310675
S1130CD0812F60E070E00E94060E81E0809368023C
S1130CE0113051F0113018F0123041F403C0009368
S1130CF0500204C000935002009351021092680203
S1130D001F910F9108953A9A3B9A3C9A3D9A3E9AC4
S1130D103F9A88B1837088B90895853160F4E82FCB
S1130D20F0E0E95EFD4F8081882329F080818150C5
S1130D308083808108958FEF0895853110F080E0DD
S1130D400895E82FF0E0E95EFD4F80818F5F808396
S1130D5081500895853110F080E00895E82FF0E087
S1130D60E95EFD4F8081811181E008951F93182F62
S1130D7080918901882341F080919001882399F022
S1130D8010928901109290010E94EB0680938801D1
S1130D908AE891E061E040E028E230E00E94AE079A
S1130DA081E08093890190918801133018F0133009
S1130DB079F409C0E12FF0E0E050FF4F80818923EE
S1130DC041F081E006C091FF03C0892F817001C00A
S1130DD080E01F9108950F931F9381E00E94AA065B
S1130DE0882311F400E024C087E00E94F60482E026
S1130DF06AE00E94470582E062EB0E94470518EC16
S1130E00812F8A95F1F782E060E00E94870C082F19
S1130E10812F8A95F1F782E060E00E94870C1A9591
S1130E20F1F787E00E94F60488E893E10197F1F76F
S1130E30802F1F910F910895DF93CF9300D00F92CD
S1130E40CDB7DEB781E00E949D06882311F082E0D1
S1130E5011C00E94B4048150823040F40E944007C3
S1130E60CE0101960E94380E81E004C081E00E9408
S1130E708D0687E00F900F900F90CF91DF9108952A
S1130E801092800210927F021092820210928102CC
S1130E9010928402109283021092860210928502AC
S1130EA0109288021092870280E991E090936C027C
S1130EB080936B0290936E0280936D029093700204
S1130EC080936F02909372028093710290937402E4
S1130ED08093730284E398E0909376028093750282
S1130EE0909378028093770290937A0280937902A8
S1130EF090937C0280937B0290937E0280937D0288
S1130F0008950F931F93DF93CF93CDB7DEB729973F
S1130F100FB6F894DEBF0FBECDBF8C0188E00E94EF
S1130F20AA06882311F491E00DC0CE01019661E078
S1130F3040E098010E94AE07982F882319F48F810E
S1130F408823E9F3892F29960FB6F894DEBF0FBEE4
S1130F50CDBFCF91DF911F910F910895EF92FF9232
S1130F600F931F93CF93DF93EC01F62EE42E8901A8
S1130F7088E00E94AA06882311F481E026C084E058
S1130F8090E00E94C91EFC01009711F482E01DC08C
S1130F90F982F0FC1E8281E0E81619F489818460EC
S1130FA089838981886089831B830A831D830C83D9
S1130FB0D183C0831382128281E08093F301CF0135
S1130FC00E94EC071092F30180E0DF91CF911F9112
S1130FD00F91FF90EF900895CF92DF92EF92FF92DE
S1130FE00F931F93CF93DF93EC01809189028823A1
S1130FF039F4D0938B02C0938A020E94910E47C0A9
S1131000C0908A02D0908B0200E010E0EE24FF240E
S113101037C0A881B981FD0164817581F6014081E1
S11310205181FA01848195819B01281B390B37FF7B
S11310300FC0861B970B95838483DB82CA82012BA6
S113104029F4D0938B02C0938A0221C0F7010CC00B
S1131050F601828193812115310549F4FD01158240
S113106014829B838A83F601D383C28310C0FD015B
S1131070358324830097B9F30F5F1F4F76016C010A
S11310808091890290E00817190718F2ECCF80913B
S113109089028F5F80938902DF91CF911F910F9115
S11310A0FF90EF90DF90CF900895E091BC02F09113
S11310B0BD02309711F480E0089584850895EF927D
S11310C0FF920F931F930E94AC1084E10E949D062F
S11310D0882311F082E026C08EE00E94AA068823AD
S11310E0E9F481E00E94B10F8130C1F40E94E0086C
S11310F00E94E10881E063E040E020E0E12C92EC12
S1131100F92E91E0092F112D0E94090F0E94B208B7
S1131110882311F486E006C081E004C084E10E94C3
S11311208D0687E01F910F91FF90EF900895E09155
S1131130BC02F091BD02309709F014860895909393
S1131140BB028093BA027093BD026093BC020E94FA
S11311509708089581E00E94A00F81E061E00E9459
S11311603F100895EF92FF920F931F93DF93CF9355
S11311700F92CDB7DEB781E061E00E943F1000E03E
S113118010E07E010894E11CF11C81E0B7010E948B
S1131190EB0F882311F010E006C00F5F1F4F0A30D9
S11311A0110599F711E081E060E00E943F10812F62
S11311B00F90CF91DF911F910F91FF90EF900895C1
S11311C008951092B8021092B9021092BB021092C4
S11311D0BA021092BD021092BC021092BE0210928A
S11311E0C0021092BF0208950E94210E0E94000CBA
S11311F00E94420B0E94750E0E94B4040E941C07B8
S113120078940895000008951F920F920FB60F92DC
S113121011242F933F934F935F936F937F938F93F7
S11312209F93AF93BF93EF93FF93E091B301F0913A
S1131230B401309709F00995FF91EF91BF91AF91F7
S11312409F918F917F916F915F914F913F912F91DA
S11312500F900FBE0F901F9018951F920F920FB60C
S11312600F9211242F933F934F935F936F937F9328
S11312708F939F93AF93BF93EF93FF93E091B50147
S1131280F091B601309709F00995FF91EF91BF9164
S1131290AF919F918F917F916F915F914F913F910A
S11312A02F910F900FBE0F901F9018951F920F92C1
S11312B00FB60F9211242F933F934F935F936F9325
S11312C07F938F939F93AF93BF93EF93FF93E0919B
S11312D0B701F091B801309709F00995FF91EF91AA
S11312E0BF91AF919F918F917F916F915F914F913A
S11312F03F912F910F900FBE0F901F9018951F9242
S11313000F920FB60F9211242F933F934F935F9335
S11313106F937F938F939F93AF93BF93EF93FF93B9
S1131320E091A501F091A601309709F00995FF918C
S1131330EF91BF91AF919F918F917F916F915F9149
S11313404F913F912F910F900FBE0F901F901895C2
S11313501F920F920FB60F9211242F933F934F9326
S11313605F936F937F938F939F93AF93BF93EF9309
S1131370FF93E091A701F091A801309709F0099536
S1131380FF91EF91BF91AF919F918F917F916F9159
S11313905F914F913F912F910F900FBE0F901F902F
S11313A018951F920F920FB60F9211242F933F930B
S11313B04F935F936F937F938F939F93AF93BF9359
S11313C0EF93FF93E091A901F091AA01309709F0FE
S11313D00995FF91EF91BF91AF919F918F917F916B
S11313E06F915F914F913F912F910F900FBE0F908E
S11313F01F9018951F920F920FB60F9211242F93DE
S11314003F934F935F936F937F938F939F93AF9388
S1131410BF93EF93FF93E091AD01F091AE0130974C
S113142009F00995FF91EF91BF91AF919F918F9131
S11314307F916F915F914F913F912F910F900FBECC
S11314400F901F9018951F920F920FB60F921124B0
S11314502F933F934F935F936F937F938F939F93B8
S1131460AF93BF93EF93FF93E091AF01F091B0017D
S1131470309709F00995FF91EF91BF91AF919F913A
S11314808F917F916F915F914F913F912F910F9029
S11314900FBE0F901F9018951F920F920FB60F92C8
S11314A011242F933F934F935F936F937F938F9365
S11314B09F93AF93BF93EF93FF93E091AB01F091B0
S11314C0AC01309709F00995FF91EF91BF91AF916D
S11314D09F918F917F916F915F914F913F912F9148
S11314E00F900FBE0F901F9018951F920F920FB67A
S11314F00F9211242F933F934F935F936F937F9396
S11315008F939F93AF93BF93EF93FF93E091B101B8
S1131510F091B201309709F00995FF91EF91BF91D5
S1131520AF919F918F917F916F915F914F913F9177
S11315302F910F900FBE0F901F9018951F920F922E
S11315400FB60F9211242F933F934F935F936F9392
S11315507F938F939F93AF93BF93EF93FF93E09108
S11315609B01F0919C01309709F00995FF91EF914F
S1131570BF91AF919F918F917F916F915F914F91A7
S11315803F912F910F900FBE0F901F9018951F92AF
S11315900F920FB60F9211242F933F934F935F93A3
S11315A06F937F938F939F93AF93BF93EF93FF9327
S11315B0E0919D01F0919E01309709F00995FF910A
S11315C0EF91BF91AF919F918F917F916F915F91B7
S11315D04F913F912F910F900FBE0F901F90189530
S11315E01F920F920FB60F9211242F933F934F9394
S11315F05F936F937F938F939F93AF93BF93EF9377
S1131600FF93E0919F01F091A001309709F00995B3
S1131610FF91EF91BF91AF919F918F917F916F91C6
S11316205F914F913F912F910F900FBE0F901F909C
S113163018951F920F920FB60F9211242F933F9378
S11316404F935F936F937F938F939F93AF93BF93C6
S1131650EF93FF93E091A101F091A201309709F07B
S11316600995FF91EF91BF91AF919F918F917F91D8
S11316706F915F914F913F912F910F900FBE0F90FB
S11316801F90189580E10E949D06882311F082E046
S11316900895E3E9F1E01192119281E0E33DF80746
S11316A0D1F781E00895FF920F931F93CF93DF93B7
S11316B0F82E8AE0F816B1F08F1548F0E8E0FE162F
S11316C0B9F1EF1538F1F7E0FF1651F43BC08DE0A6
S11316D0F81659F0EBE1FE1689F0FCE0FF1641F034
S11316E001E041C010922C0203C010922C023AC0B7
S11316F080912D02815080932D0234C00E943303C7
S113170014C080E061E00E94470480912C028F5F46
S113171080932C0280912C0287FFF3CF10922C022D
S113172080912D02815080932D0200E011E01CC0B5
S113173080912C028823B1F080912C0286508093F2
S11317402C0210C081E00E94580D64EF71E080E02B
S113175090E04DE750E024E630E00E94640D81E023
S11317600E94BF0C00E010E080912D0260912C02D9
S11317700E94DB03002351F185E0F89EC00111248F
S1131780EC01CD59DE4F8C0108591E4FFE018491A6
S113179061E00E9447042196C017D107B9F780E0A1
S11317A061E00E94470480912C028A5F80932C029E
S11317B080912C0290E08C3791053CF010922C0221
S11317C080912D02815080932D0211E080912D0291
S11317D0837080932D02113059F480912E02813050
S11317E039F4E0912F02F0913002309709F0099515
S11317F080E090E0DF91CF911F910F91FF900895C9
S1131800F8940E945B0C81E00E94080C81E008952A
S1131810813049F0F894813020F18230B1F0833086
S113182009F045C017C02C9A80E88093610010929B
S1131830610080E090E00000019688329105D9F7BC
S11318401092680010926B00089580E88093610004
S113185083E004C080E88093610088E080936100A5
S113186028C080E090E0000001962DE680369207C3
S1131870D1F72C9880E090E0000001962DE68036A8
S11318809207D1F710927A008FEF809364008091D1
S1131890680081608093680080916B00846080930D
S11318A06B00789483B7816083BF889508958230F4
S11318B008F078940895249A2C9A089583E58CBDB1
S11318C081E08DBD8DE08A95F1F7089583E58CBDA7
S11318D01DBC84EF91E00197F1F708958FE78CBD6B
S11318E01DBC84EF91E00197F1F7089583E58CBD69
S11318F081E08DBD8DE08A95F1F7089583E58CBD77
S113190081E08DBD84EF91E00197F1F708951F9375
S1131910162F0E94F60482E00E94AA06882329F06A
S11319201EBD0DB407FEFDCF8EB51F9108958AE04C
S11319300E948D06882329F481E00E94BA0D10923A
S1131940E401089589E00E948D068823B9F480910A
S1131950E301882311F00E94000E82E00E94BA0D78
S11319608091F1019091F201009731F00E945E1F85
S11319701092F2011092F1011092E3010895813066
S113198029F0823029F40E94A20C08950E94970C39
S113199008950F931F93CF93DF9380E291E00E9409
S11319A0C91E9C019093F2018093F101892B11F4DB
S11319B080E039C08901C0E0D0E0BE0180E090E061
S11319C00E941C1B20E030E040EA51E40E94AA1A65
S11319D027EF35E740E05FE30E94E71B9B01AC0182
S11319E060E070E080E291E40E94541C9B01AC0131
S11319F0CA01B9012DEC3CEC42E851E40E94E71B1A
S1131A000E94AA1B2AE030E040E050E00E94461EFB
S1131A10F80161937193819391938F012196C83456
S1131A20D10559F681E0DF91CF911F910F9108956F
S1131A308AE00E949D06882311F082E008951092A6
S1131A40EE011092ED0181E00E94D60D81E08093B9
S1131A50E40108951F9389E00E949D06882311F0F4
S1131A6082E024C08BE00E94AA068823D9F40E9455
S1131A70C90C182F813011F086E018C01092E501CE
S1131A801092E6011092E7011092E8018DE065E5FD
S1131A9071E10E94301182E00E94D60D1093E3019F
S1131AA081E004C089E00E948D0687E01F910895BB
S1131AB0813021F0823029F084E008950E94180DCD
S1131AC008950E942A0D08956F927F928F929F929B
S1131AD0AF92BF92CF92DF92EF92FF920F931F9338
S1131AE0CF93DF933B014C015A01E9018AE00E9444
S1131AF0AA06882381F1209741F19501442737FDF7
S1131B004095542FBE01C536D10510F064E670E04F
S1131B1080E090E00E94461E24E630E040E050E081
S1131B200E94561E79018A01C401B3010E94581112
S1131B30C7010E94810760E070E080E090E00E94AD
S1131B405811C5018E199F0904C0A114B10419F0DC
S1131B50C5010E948107DF91CF911F910F91FF90E2
S1131B60EF90DF90CF90BF90AF909F908F907F9039
S1131B706F900895823029F4809181008E7F809344
S1131B8081008091E301813031F48091E40181305E
S1131B9011F4000008958091E301813021F08091D7
S1131BA0E401813011F45F9857980895982F80913B
S1131BB0E301882331F48091E401882311F4579AD6
S1131BC05F988091E3018823D1F49230C1F410929C
S1131BD08000109281008091810088608093810050
S1131BE08091810081608093810010928500109221
S1131BF0840081E08093890080E9809388000895BF
S1131C00EFE6F0E080818D7F80830895982F81E056
S1131C1080936802913071F0913018F0923071F431
S1131C2005C0709345026093440208C07093450256
S1131C3060934402709347026093460210926802D4
S1131C400895CF93DF93C0E0D0E08C2F60E00E9432
S1131C50300E2196C531D105C1F7DF91CF9108959A
S1131C60853128F4E82FF0E0E95EFD4F60830895A4
S1131C701F93CF93DF93EC01009799F181E00E94C9
S1131C80AA06882351F187E00E94F60418EC812FFC
S1131C908A95F1F782E06AE00E94470582E064EBEE
S1131CA00E944705812F8A95F1F782E060E00E9447
S1131CB0870C8883812F8A95F1F782E060E00E9487
S1131CC0870C89831A95F1F782E060E00E94870C03
S1131CD08A8387E00E94F60404C0188219828DE288
S1131CE08A83DF91CF911F91089588E00E949D0619
S1131CF0882311F082E008951092890210928B02D9
S1131D0010928A021092F3011092F40180E16DEBBB
S1131D1071E10E9444110E94950E0E949E0E81E082
S1131D20089581E08093F401089584B5826084BDB0
S1131D3085B5846085BD8EE487BD0895EEE6F0E048
S1131D408081826080830895CF92DF92EF92FF9228
S1131D500F931F93CF93DF937B018C01EA016901F9
S1131D6081E0E81681EEF80680E0080780E01807B5
S1131D7040F444E0EE0CFF1C001F111F4A95D1F7FC
S1131D8007C033E0EE0CFF1C001F111F3A95D1F77A
S1131D9060E072EC8BEE9BE0A80197010E94561E56
S1131DA079018A0186EF9FEFAFEFBFEFE80EF91ECE
S1131DB00A1F1B1FC801B7012AE030E040E050E0D1
S1131DC00E94561E653071058105910540F08AE038
S1131DD090E0A0E0B0E0E80EF91E0A1F1B1FC80146
S1131DE0B7012AE030E040E050E00E94561EC901ED
S1131DF0DA012883892F9A2FAB2FBB27F601808322
S1131E00DF91CF911F910F91FF90EF90DF90CF90D2
S1131E100895BF92CF92DF92EF92FF920F931F9398
S1131E20DF93CF9300D0CDB7DEB7B62EC42ED22E1B
S1131E30882321F0813009F077C03CC08DE00E94F6
S1131E40AA06882309F470C01A8219821092C0006D
S1131E501092C1001092C200C801B701AE014E5FDA
S1131E605F4F9E012F5F3F4F0E94A40EBB0CDD0C01
S1131E70DD0CDD0CDD0CDB28CC0CCC0CCC0CCD2823
S1131E808A818093C40089818093C500C092C20076
S1131E9081E0E81681EEF80680E0080780E0180784
S1131EA028F08091C00082608093C00081E080931C
S1131EB0A0023AC08EE00E94AA068823A9F11982E2
S1131EC01A821092C8001092C9001092CA00C80168
S1131ED0B701AE014F5F5F4F9E012E5F3F4F0E94DF
S1131EE0A40EBB0CDD0CDD0CDD0CDD0CDB28CC0CF6
S1131EF0CC0CCC0CCD2889818093CC008A81809332
S1131F00CD00C092CA0081E0E81681EEF80680E0B8
S1131F10080780E0180728F08091C8008260809349
S1131F20C80081E08093A5020F900F90CF91DF91BC
S1131F301F910F91FF90EF90DF90CF90BF90089585
S1131F40882319F0813061F406C08091C100806853
S1131F508093C10008958091C90080688093C9006E
S1131F600895882321F08130B9F084E008958DE04C
S1131F700E949D06882369F51092A00210929E0289
S1131F8010929F020E949F1080E065E070E00E9422
S1131F90861085E992E015C08EE00E949D06882394
S1131FA0C1F41092A5021092A3021092A40281E03F
S1131FB00E949F1081E065E070E00E9486108CE82A
S1131FC092E061E041E028EE33E00E94AE0781E058
S1131FD0089582E00895CF93DF93EB01882321F0E5
S1131FE0813009F046C022C08DE00E94AA068823F1
S1131FF009F43FC02091A1023091A20280919F0276
S11320008130B9F50FC080919B02882321F02150C3
S1132010304010929B028091C00087FF03C08091E2
S1132020C60020C01216130674F325C08EE00E9469
S1132030AA068823F1F02091A6023091A70280918C
S1132040A4028130B1F411C080919202882321F05E
S113205021503040109292028091C80087FF05C041
S11320608091CE00888380E007C01216130664F3C3
S113207002C081E001C083E0DF91CF9108950F9306
S11320801F93182F062F882311F48DE003C081308D
S113209029F48EE00E94AA068823A9F10023F9F00E
S11320A0013089F5112319F0113069F50CC08091C4
S11320B0A002813041F58091C10080618093C1000C
S11320C000939F0220C08091A5028130E1F48091A9
S11320D0C90080618093C9000093A40214C0112335
S11320E019F0113081F408C08091C1008F7E809373
S11320F0C10010929F0207C08091C9008F7E809317
S1132100C9001092A4021F910F91089577FF03C094
S113211060E070E005C06F31710514F06EE170E0AD
S1132120882319F0813051F405C07093A2026093A2
S1132130A10208957093A7026093A60208958823CC
S113214019F0813041F404C0519A5098599A089575
S1132150539A52985B9A0895000008951F920F9223
S11321600FB60F9211242F933F934F935F936F9366
S11321707F938F939F93AF93BF93EF93FF93DF93DB
S1132180CF930F92CDB7DEB781E00E94DD11789432
S113219081E0BE016F5F7F4F0E94EB0F882319F42B
S11321A089810E94EA1081E00E94A00F0F90CF91D4
S11321B0DF91FF91EF91BF91AF919F918F917F91AB
S11321C06F915F914F913F912F910F900FBE0F90A0
S11321D01F9018951F93282F853519F08A3A89F492
S11321E004C081E08093B90233C01091B902113068
S11321F069F582E08093B9020E946D121093B802CF
S113220027C08091B902823009F58091BF02909174
S1132210C0024097C0F48091BF029091C002FC01BB
S1132220E855FD4F208301969093C0028093BF022E
S11322308091BF029091C0020C9751F41092B902A0
S11322400E94EE1105C081E08093BE021092B90293
S11322508091B902882311F41092B8021F91089555
S1132260E82F803268F48051833050F0F0E0EE0FB4
S1132270FF1FED56FE4F208131817183608302C0C0
S113228020E030E0C9010895803218F020E030E009
S11322900AC0E82FF0E0EE0FFF1FED56FE4F20813D
S11322A0318171836083C90108950E947C1108956E
S11322B0EF92FF920F931F937B018C018AE00E949F
S11322C0AA068823A1F08091E401882381F0D80133
S11322D0C701880F991FAA1FBB1F9093F001809319
S11322E0EF01E114F1040105110509F45F981F9150
S11322F00F91FF90EF9008958091E5019091E60190
S1132300A091E701B091E8012091E9013091EA013F
S11323104091EB015091EC01280F391F4A1F5B1FBC
S11323202093E5013093E6014093E7015093E801DF
S11323308091E5019091E601A091E701B091E80157
S11323408851964FA040B040BCF08BB180588BB9F7
S11323508091E5019091E601A091E701B091E80137
S11323608851964FA040B0408093E5019093E601D8
S1132370A093E701B093E80108950E94C4110E945C
S113238099120E947212089588E00E94AA06882376
S113239011F484E008958091F401882311F483E01A
S11323A008958091F301882311F082E008950E943A
S11323B0E6148130E1F380E00895882319F0813038
S11323C061F406C08091C1008F778093C1000895A5
S11323D08091C9008F778093C9000895E8EAF2E0FC
S11323E020E030E082819381280F391F329682E009
S11323F0E23BF807B9F72115310509F46DC0809166
S1132400A8029091A9022817390709F065C08091A4
S1132410BA029091BB02892B59F5E091BC02F0916C
S1132420BD02309729F18485882311F531832083F7
S11324308091AA029091AB02938382838091AC0233
S11324409091AD02958384838091AE029091AF0206
S1132450978386838091B0029091B102918780879F
S11324608091B2029091B3029387828781E084873E
S11324702091BA023091BB022115310569F1E09136
S1132480BC02F091BD02309739F18091A80290917D
S1132490A902918380838091AA029091AB029383D5
S11324A082838091AC029091AD0295838483809164
S11324B0AE029091AF02978386838091B00290918F
S11324C0B102918780878091B2029091B302938781
S11324D08287CF01F901099508951092C0021092E4
S11324E0BF0208958091E401813011F58091ED01DE
S11324F09091EE012091EF013091F001280F391FE6
S11325003093EE012093ED018091ED019091EE0165
S1132510885E93406CF08BB180588BB98091ED014B
S11325209091EE01885E93409093EE018093ED01CB
S1132530089587E00E94AA06882309F4AAC080911E
S11325403C0290913D02892B09F1809160029091A7
S1132550610220913C0230913D02820F931F9093BF
S11325606102809360028091600290916102885EB2
S11325709340A4F08091600290916102885E934040
S1132580909361028093600241E009C0809134021B
S113259090913502909339028093380240E0809103
S11325A03E0290913F02892B09F180916202909141
S11325B0630220913E0230913F02820F931F909359
S11325C06302809362028091620290916302885E4A
S11325D09340A4F08091620290916302885E9340DC
S11325E0909363028093620261E009C08091360295
S11325F09091370290933B0280933A0260E0842FDB
S11326000E944A1380915C0290915D0220913802ED
S113261030913902280F391F30935D0220935C02F8
S113262080915C0290915D02885E934014F440E0D6
S11326300BC080915C0290915D02885E9340909300
S11326405D0280935C0241E080915E0290915F02A2
S113265020913A0230913B02280F391F30935F02D8
S113266020935E0280915E0290915F02885E9340A7
S113267014F460E00BC080915E0290915F02885E6A
S1132680934090935F0280935E0261E0842F0E94E6
S11326908F1308958823F1F020913402309135028C
S11326A08091380290913902281B390B12161306B7
S11326B034F48091380290913902019607C0232B9B
S11326C049F0809138029091390201979093390230
S11326D080933802662311F120913602309137023B
S11326E080913A0290913B02281B390B1216130673
S11326F054F480913A0290913B02019690933B02EC
S113270080933A020895232B49F080913A029091E4
S11327103B02019790933B0280933A0208950F93F2
S11327201F93182F062F80916802882309F0E7C0B1
S113273080915002882309F05AC080913802909108
S11327403902892BE9F48091F501837E8093F501A8
S11327501092590280916402882309F45DC060914B
S1132760520280E00E945E06E0916602F0916702E8
S1132770309709F451C081E08083109264024CC008
S113278080913202813041F480914402909145025B
S1132790019711F411E002C01123F1F1E091570205
S11327A0F0E0EE5EFE4F9091F501937E8081892BDF
S11327B08093F50180915502882321F4809157027A
S11327C08F5F03C08091570281508093570280919C
S11327D0570283708093570281E08093590280915D
S11327E032028130C9F480E00E94921415C09091A5
S11327F0F501937E9093F501E0915702F0E0EE5ECF
S1132800FE4F8081892B8093F50182E080935902E9
S1132810109239021092380280915102882309F0F3
S113282059C080913A0290913B02892BE9F480913E
S1132830F5018F718093F50110925A02809165021F
S1132840882309F45CC06091530281E00E945E0613
S1132850E0916602F0916702309709F450C081E07C
S11328608183109265024BC080913302813041F420
S11328708091460290914702019711F401E002C051
S11328800023E9F1E0915802F0E0EA5EFE4F9091F6
S1132890F5019F718081892B8093F5018091560207
S11328A0882321F4809158028F5F03C080915802DD
S11328B0815080935802809158028370809358020B
S11328C081E080935A02809133028130C1F40E94E6
S11328D0921415C09091F5019F719093F501E091C8
S11328E05802F0E0EA5EFE4F8081892B8093F50167
S11328F082E080935A0210923B0210923A02809135
S11329005B02882331F485EF91E0612F402F0E9410
S1132910541588B183709091F501892B88B91F9162
S11329200F910895882321F0813009F04EC027C00B
S11329308091440290914502892B49F08091440290
S113294090914502019790934502809344028091AF
S113295064028823D1F5209144023091450280918C
S11329604802909149022817390779F580E060E020
S113297070E00E94310681E08093640208958091A2
S1132980460290914702892B49F08091460290912A
S11329904702019790934702809346028091650213
S11329A0882399F4209146023091470280914A028B
S11329B090914B022817390741F481E060E070E000
S11329C00E94310681E0809365020895FF920F937F
S11329D01F93CF93DF9380918902882309F459C010
S11329E000918A0210918B02F801C081D1818C81FF
S11329F09D8101979D838C83181619060CF449C098
S1132A00898180FF05C08E81882311F481E08E8343
S1132A10898181FF03C0EF81F8850995809189023E
S1132A208230A8F0F8018281938190938B02809385
S1132A308A0213821282E0910000F09101008481E5
S1132A409581181619063CF0FF24F39405C01092E2
S1132A508B0210928A02FF24809189028150809314
S1132A60890280918902882311F40E945115898179
S1132A7082FF08C08A819B819D838C83C8010E9448
S1132A80EC0708C0C8010E945E1F89818F7E89837C
S1132A9001C0FF248F2DDF91CF911F910F91FF90E3
S1132AA008951092F4010895FC0180915902823036
S1132AB069F48091F90191E089278093F9018823D1
S1132AC009F03EC08081837E80833AC080913802C1
S1132AD090913902C397A4F56623D1F0209138026E
S1132AE03091390280E690E0BC01269FC001279F07
S1132AF0900D369F900D1124880F892F881F990BF4
S1132B0090934D0280934C0281E08093F70118C0AA
S1132B108091F7018823A1F080914C0290914D029D
S1132B20019790934D0280934C0280914C029091B6
S1132B304D02892B29F48081837E80831092F701D2
S1132B4080915A02823069F48091F80191E08927DA
S1132B508093F801882309F03EC080818F718083BF
S1132B60089580913A0290913B02C397A4F54423BF
S1132B70D1F020913A0230913B0280E690E0AC0122
S1132B80249FC001259F900D349F900D1124880F20
S1132B90892F881F990B90934F0280934E0281E0F6
S1132BA08093F60108958091F6018823A1F0809125
S1132BB04E0290914F02019790934F0280934E02E0
S1132BC080914E0290914F02892B29F480818F715C
S1132BD080831092F6010895CF93DF93FC01308136
S1132BE020910D02321303C02081211113C0EC0186
S1132BF00E9433038881813031F048F0823039F00B
S1132C008DE291E002C080E291E00E94322188814D
S1132C1080930D02DF91CF910895CF93DF93EC0160
S1132C2080E40E947B0460E083E00E94FD032E8127
S1132C303F818C819D813F932F939F938F938CE34E
S1132C4091E09F938F930E941C2160E082E00E9498
S1132C50FD032A853B85888599853F932F939F9310
S1132C608F938FE491E09F938F930E941C2160E0E7
S1132C7081E00E94FD038A819B819F938F938DE560
S1132C8091E09F938F930E941C218DB79EB740962D
S1132C900FB6F8949EBF0FBE8DBF80E4DF91CF9135
S1132CA00C946404DC01FB019C918081981325C081
S1132CB011962D913C9112978181928128173907A1
S1132CC0E1F413962D913C911497838194812817F4
S1132CD0390799F415962D913C9116978581968123
S1132CE02817390751F417964D915C91189727814D
S1132CF0308581E04217530709F080E00895CF93AF
S1132D00DF93EC019B0180910C0281110AC041E028
S1132D1061E083E092E00E94AE0781E080930C02C0
S1132D2011C080910902882369F080E40E9487041D
S1132D3080E00E94B606888381E00E94B6068983FB
S1132D4010920902DF91CF910895CF93DF93EB01A5
S1132D500E945508882341F0CE0102960E940D1668
S1132D60DF91CF910C949708DF91CF910895CF9381
S1132D70DF93EC016AEF71E00E945216811114C0D6
S1132D806F8178858D819E810E9413066B817C8181
S1132D9089819A810E94D20589E0FE01AAEFB1E0FF
S1132DA001900D928A95E1F7DF91CF910895CF9329
S1132DB0DF93CDB7DEB72F970FB6F894DEBF0FBE03
S1132DC0CDBF0E9470040E9455030E945D050E94BD
S1132DD05F08813031F5BE016D5F7F4F80E090E088
S1132DE00E949F080E94AA081092100210920F02DB
S1132DF010921202109211021092140210921302F5
S1132E00109216021092150210920E0287E691E0BB
S1132E100E94322188EB9BE00E9481070E943303C9
S1132E2007C00E94330383E791E00E943221FFCF61
S1132E306DE770E0CE0101960E947F16BE016F5FC0
S1132E407F4F8EE092E00E94A5168EE092E00E94F1
S1132E50B7168EE092E00E94EC15EACFA3E1B0E051
S1132E60E4E3F7E10C94831E6C014B012A01FC019D
S1132E7017821682838181FF43C3AE014F5F5F4F88
S1132E803A01F6019381F40193FD859193FF8191B9
S1132E904F01882309F430C3853239F493FD8591B9
S1132EA093FF81914F01853239F4B60190E00E947D
S1132EB0E42052012501E5CF10E0F12C20E020327E
S1132EC0A0F48B3269F030F4803259F0833269F423
S1132ED020612CC08D3239F0803339F4216026C052
S1132EE02260246023C0286021C027FD27C030ED64
S1132EF0380F3A3078F426FF06C0FAE01F9F300DF1
S1132F001124132F13C04AE0F49E300D1124F32E24
S1132F1020620CC08E3221F426FDEEC2206406C06D
S1132F208C3611F4206802C0883641F4F40193FD14
S1132F30859193FF81914F018111C1CF9BEB980F34
S1132F40933018F42061805E06C09BE9980F93309B
S1132F5008F071C12F7E26FF16E02F73322E8536BE
S1132F6019F42064322E08C0863621F4F22FF0685A
S1132F703F2E02C01111115037FE07C01C3350F40C
S1132F80EE24E394E10E27E00BC0183038F027E07C
S1132F9017E005C027E04CE3E42E02C0212FE12C0A
S1132FA0520144E0A40EB11CF2016081718182815E
S1132FB093810E2DA3010E94F61F2C01098100FFAD
S1132FC002C003FF07C031FC08C032FE09C030E272
S1132FD0232E07C02DE2222E04C09BE2292E01C01D
S1132FE0212C802F8C7019F0211068C2A8C237FEE2
S1132FF00FC0E40C04FF04C08A81813309F4EA940D
S11330001E1474F5F8E0FE1578F588E0E82E2CC05F
S113301036FC2AC0812F90E0841595059CF02CEF96
S113302042162FEF520674F0432D4068342E0AC026
S1133030E2E0F0E0EC0FFD1FE10FF11D8081803331
S113304019F411501111F4CF37FE0EC0EE24E3949D
S1133050E10E812F90E0481659062CF4141904C08F
S1133060EE24E39401C010E037FE06C014141504E6
S113307034F4C201019605C085E090E002C081E00D
S113308090E021100196112331F0212F30E02F5FC1
S11330903F4F820F931F2F2D30E08217930714F4B4
S11330A0F81A01C0F12C832D897049F4FF2039F0FE
S11330B0B60180E290E00E94E420FA94F7CF222047
S11330C029F0B601822D90E00E94E42033FC09C06F
S11330D0FF2039F0B60180E390E00E94E420FA94E6
S11330E0F7CF37FE5AC0942D852D57FE02C090E0CD
S11330F080E0292E382E20E030E0A2014E1951093B
S11331005D874C87A201421953095F874E87612F5F
S113311070E044275527461B570B598B488B5FEFAC
S11331202516350649F4B6018EE290E02A8B3B8BD6
S11331300E94E4203B892A89421453046CF04C8594
S11331405D854215530544F4EE85FF85E20FF31FB8
S1133150E60DF71D818101C080E351E0251A310895
S11331602F5F3F4F48895989241635064CF0B60124
S113317090E02A8B3B8B0E94E4202A893B89CFCFA5
S11331802414350439F49A81963318F4953311F4E0
S113319004FF81E3B60190E04BC08A81813309F0DA
S11331A00F7EB60190E00E94E420111105C034FCAA
S11331B018C085E690E017C0B6018EE290E00E9448
S11331C0E42082E0EE24E394E80EF301E80FF11D1D
S11331D08081B60190E00E94E42011508E2D91F779
S11331E0E6CF85E490E0B6010E94E42057FC05C0D8
S11331F04114510439F404FF05C051944194510819
S11332008DE201C08BE2B60190E00E94E42080E3ED
S11332109AE0491651042CF08F5F5AE0451A510880
S1133220F7CFB60190E00E94E420B601C201C09637
S11332300E94E42057C1833631F0833779F0833517
S113324009F058C021C05201E2E0AE0EB11CF201F7
S11332508081898301E010E0230114C05201F2E06F
S1133260AF0EB11CF2014080518026FF03C0612FD4
S113327070E002C06FEF7FEFC2012A8B0E94D92059
S11332808C012A892F7715C05201F2E0AF0EB11CD0
S1133290F2014080518026FF03C0612F70E002C01C
S11332A06FEF7FEFC2012A8B0E94CE208C012A8906
S11332B02068322E23FD1AC08F2D90E008171907BD
S11332C0A8F4B60180E290E00E94E420FA94F4CFDE
S11332D0F20137FC859137FE81912F01B60190E010
S11332E00E94E420F110FA9401501109011511050E
S11332F079F7F8C0843611F0893659F5520127FF61
S113330009C0F4E0AF0EB11CF201608171818281C9
S113331093810AC0F2E0AF0EB11CF20160817181A9
S1133320072E000C880B990B2F76322E97FF09C0BD
S113333090958095709561957F4F8F4F9F4F206832
S1133340322E2AE030E0A3010E946221E82EE61822
S11333503FC0022F853721F40F7E2AE030E01DC0E4
S1133360097F8F3691F018F4883559F0C5C080373D
S113337019F0883711F0C0C0006104FF09C004606F
S113338007C024FF08C0066006C028E030E005C07E
S113339020E130E002C020E132E0520107FF09C021
S11333A0F4E0AF0EB11CF2016081718182819381DE
S11333B008C0F2E0AF0EB11CF2016081718180E0BF
S11333C090E0A3010E946221E82EE6180F77302EC8
S11333D036FE0BC0332D3E7FE11650F434FE0AC096
S11333E032FC08C0332D3E7E05C00E2D332D03C0A4
S11333F00E2D01C0012F34FF0CC0FE01EE0DF11D96
S11334008081803311F4397E08C032FF05C00E5F1D
S113341004C0832F867809F00F5F33FD13C030FF9B
S113342006C01E2D0F1518F41F0D101B0F2D0F15A0
S113343068F4B60180E290E03B8B0E94E4200F5FC9
S11334403B89F5CF0F1510F4F01A01C0F12C34FFAD
S113345012C0B60180E390E03B8B0E94E4203B89DC
S113346032FF17C031FD03C088E790E002C088E551
S113347090E0B6010CC0832F867859F031FF02C06A
S11334808BE201C080E237FD8DE2B60190E00E943C
S1133490E420E11638F4B60180E390E00E94E420D1
S11334A01150F7CFEA94F301EE0DF11D8081B601BE
S11334B090E00E94E420E110F5CF14C0F4E0FF1581
S11334C058F584E0F81A33FE1EC0211026C003FF0D
S11334D02AC00EEF10E0F32DF0713F2EF801849115
S11334E0811124C0FF2009F4E5CCB60180E290E00C
S11334F00E94E420FA94F6CFF6018681978126C0D3
S11335008FEF9FEF23C0B60180E290E00E94E42099
S1133510FA94F110F8CFD9CFF12CB601822D90E0B6
S11335200E94E420D4CF02E011E0D5CF31108052C4
S1133530B60190E00E94E4200F5F1F4FCFCF23E03D
S11335402F1510F483E0BECFF12CC1CF6396E2E1D6
S11335500C949F1E0E94BE1A0C94701B0E94691B3F
S113356058F00E94621B40F029F45F3F29F00C944C
S1133570591B51110C94A41B0C945F1B0E94811BBA
S113358068F39923B1F3552391F3951B550BBB278E
S1133590AA2762177307840738F09F5F5F4F220FD3
S11335A0331F441FAA1FA9F335D00E2E3AF0E0E8CA
S11335B032D091505040E695001CCAF72BD0FE2F14
S11335C029D0660F771F881FBB1F261737074807A8
S11335D0AB07B0E809F0BB0B802DBF01FF27935860
S11335E05F4F3AF09E3F510578F00C94591B0C94B0
S11335F0A41B5F3FE4F3983ED4F3869577956795D3
S1133600B795F7959F5FC9F7880F911D9695879594
S113361097F90895E1E0660F771F881FBB1F6217B3
S113362073078407BA0720F0621B730B840BBA0B71
S1133630EE1F88F7E0950895E89409C097FB3EF4DF
S113364090958095709561957F4F8F4F9F4F9923EB
S1133650A9F0F92F96E9BB279395F6958795779569
S11336606795B795F111F8CFFAF4BB0F11F460FF29
S11336701BC06F5F7F4F8F4F9F4F16C0882311F081
S113368096E911C0772321F09EE8872F762F05C095
S1133690662371F096E8862F70E060E02AF09A9530
S11336A0660F771F881FDAF7880F9695879597F925
S11336B0089597F99F6780E870E060E008959FEFB0
S11336C080EC089500240A941616170618060906B5
S11336D0089500240A941216130614060506089584
S11336E0092E0394000C11F4882352F0BB0F40F40C
S11336F0BF2B11F460FF04C06F5F7F4F8F4F9F4F4C
S1133700089557FD9058440F551F59F05F3F71F0CD
S11337104795880F97FB991F61F09F3F79F0879534
S11337200895121613061406551FF2CF4695F1DFBD
S113373008C0161617061806991FF1CF869571054D
S1133740610508940895E894BB2766277727CB0181
S113375097F908950E94891BA8F19E57B0F19851DA
S113376060F039F1983070F5092E9927660F771FAC
S1133770881F991F0A94D1F71CC0BB27993F4CF4AA
S1133780B111B1E0B62B672F782F8827985FB1F776
S113379008C0869577956795B79508F4B1609395B9
S11337A0C1F7BB0F30F411F460FF03C06F5F7F4FAC
S11337B08F4F3EF490958095709561957F4F8F4F14
S11337C09F4F089568940C94A41B0C94A31B0E940F
S11337D0FA1B0C94701B0E94621B38F00E94691B38
S11337E020F0952311F00C94591B0C945F1B1124A9
S11337F00C94A41B0E94811B70F3959FC1F3950F39
S113380050E0551F629FF001729FBB27F00DB11D60
S1133810639FAA27F00DB11DAA1F649F6627B00DF0
S1133820A11D661F829F2227B00DA11D621F739FD9
S1133830B00DA11D621F839FA00D611D221F749FE7
S11338403327A00D611D231F849F600D211D822F2E
S1133850762F6A2F11249F5750409AF0F1F0882355
S11338604AF0EE0FFF1FBB1F661F771F881F915082
S11338705040A9F79E3F510580F00C94591B0C94BD
S1133880A41B5F3FE4F3983ED4F386957795679540
S1133890B795F795E7959F5FC1F7FE2B880F911DAC
S11338A09695879597F90895FA01EE0FFF1F3096C4
S11338B021053105A1F16115710561F48038BFE37B
S11338C09B0749F168949038810561F08038BFEF17
S11338D09B0741F099234AF5FF3FE1053105210596
S11338E019F1E8940894E795D901AA2329F4AB2F98
S11338F0BE2FF85FD0F310C0FF5F70F4A695E0F719
S1133900F73950F019F0FF3A38F49F779F930DD0B0
S11339100F9007FC9058089546F00C945F1B60E0EC
S113392070E080E89FE308954FE79F775F934F939C
S11339303F932F930E944F1D2F913F914F915F9181
S11339400E94E71B0C94AC1C29F416F00C94591B30
S11339500C94A31B0C945F1B0E94891BA8F396383C
S1133960A0F707F80F92E8942BE33AEA48EB5FE7F5
S11339700E94FD1B0F920F920F924DB75EB70F92EC
S11339800E94971DECE7F0E00E94DE1C4F915F91CE
S1133990EF91FF91E595EE1FFF1F49F0FE57E06898
S11339A04427EE0F441FFA95E1F74195550B0E9409
S11339B0111D0F9007FE0C94051D0895DF93CF93FE
S11339C01F930F93FF92EF92DF927B018C01689417
S11339D006C0DA2EEF010E94FA1BFE01E894A591BD
S11339E02591359145915591A6F3EF010E94E31D70
S11339F0FE019701A801DA9469F7DF90EF90FF9038
S1133A000F911F91CF91DF9108959B01AC0160E06C
S1133A1070E080E89FE30C94AA1A0C94591B0C9450
S1133A20381E0E94891BD8F39923C9F3940F511DA2
S1133A30A3F39150504094F059F0882332F0660F6C
S1133A40771F881F91505040C1F79E3F51052CF7B6
S1133A50880F911D9695879597F908955F3FACF06F
S1133A60983E9CF0BB27869577956795B79508F4A3
S1133A70B1609395C1F7BB0F58F711F460FFE8CF1D
S1133A806F5F7F4F8F4F9F4FE3CF0C94A41B16F0B3
S1133A900C94381E0C945F1B68940C94591B0E9460
S1133AA0891BA8F39923C1F3AEF3DF93CF931F933C
S1133AB00F93FF92C92FDD2788232AF02197660FE1
S1133AC0771F881FDAF720E030E040E85FEB9FE3E0
S1133AD0883920F0803E38F021968F770E94CC1DE3
S1133AE0E4EAF0E004C00E94CC1DE1EDF0E00E94A5
S1133AF0DE1C8B01BE01EC01FB2E6F57710975951D
S1133B00771F880B990B0E941E1B28E132E741E3C3
S1133B105FE30E94FA1BAF2D9801AE01FF900F9155
S1133B201F91CF91DF910E94E31D0C94701BFA0149
S1133B30DC01AA0FBB1F9B01AC01BF5728F422274D
S1133B4033274427507820C0B75190F4AB2F00247A
S1133B50469537952795011CA395D2F3002071F063
S1133B60220F331F441FB395DAF30ED00C94CB1DF0
S1133B7061307105A0E88A07B94630F49B01AC01B5
S1133B806627772788279078309621F02083318321
S1133B904283538308955058BB27AA270E94E31DEC
S1133BA00C94701B0E94621B38F00E94691B20F069
S1133BB039F49F3F19F426F40C945F1B0EF4E0953E
S1133BC0E7FB0C94591BE92F0E94811B58F3BA1789
S1133BD0620773078407950720F079F4A6F50C941F
S1133BE0A31B0EF4E0950B2EBA2FA02D0B01B901E7
S1133BF090010C01CA01A0011124FF27591B99F05F
S1133C00593F50F4503E68F11A16F040A22F232F6A
S1133C10342F4427585FF3CF469537952795A795BA
S1133C20F0405395C9F77EF41F16BA0B620B730B61
S1133C30840BBAF09150A1F0FF0FBB1F661F771FD2
S1133C40881FC2F70EC0BA0F621F731F841F48F487
S1133C50879577956795B795F7959E3F08F0B0CF10
S1133C609395880F08F09927EE0F979587950895F7
S1133C709F3F31F0915020F4879577956795B795DC
S1133C80880F911D9695879597F90895DB018F9379
S1133C909F930E94781EBF91AF91A29F800D911DAA
S1133CA0A39F900DB29F900D11240895A1E21A2EA6
S1133CB0AA1BBB1BFD010DC0AA1FBB1FEE1FFF1FCC
S1133CC0A217B307E407F50720F0A21BB30BE40B1C
S1133CD0F50B661F771F881F991F1A9469F7609563
S1133CE07095809590959B01AC01BD01CF0108951D
S1133CF00E94BA1EA59F900DB49F900DA49F800DA5
S1133D00911D112408952F923F924F925F926F92CA
S1133D107F928F929F92AF92BF92CF92DF92EF9257
S1133D20FF920F931F93CF93DF93CDB7DEB7CA1BD8
S1133D30DB0B0FB6F894DEBF0FBECDBF09942A8803
S1133D40398848885F846E847D848C849B84AA84AB
S1133D50B984C884DF80EE80FD800C811B81AA8138
S1133D60B981CE0FD11D0FB6F894DEBF0FBECDBF03
S1133D70ED010895A29FB001B39FC001A39F700DF0
S1133D80811D1124911DB29F700D811D1124911D5F
S1133D900895CF93DF938230910510F482E090E090
S1133DA0E091C302F091C40220E030E0C0E0D0E032
S1133DB0309711F14081518148175907C0F04817D5
S1133DC0590761F482819381209719F09B838A8338
S1133DD02BC09093C4028093C30226C021153105E1
S1133DE019F04217530718F49A01BE01DF01EF01DD
S1133DF00280F381E02DDCCF2115310509F1281B68
S1133E00390B2430310590F412968D919C911397BF
S1133E106115710521F0FB019383828304C09093A3
S1133E20C4028093C302FD01329644C0FD01E20F37
S1133E30F31F81939193225031092D933C933AC0FF
S1133E402091C1023091C202232B41F420911C0124
S1133E5030911D013093C2022093C10220911A01B6
S1133E6030911B012115310541F42DB73EB7409126
S1133E701E0150911F01241B350BE091C102F091EA
S1133E80C202E217F307A0F42E1B3F0B28173907D1
S1133E9078F0AC014E5F5F4F2417350748F04E0FA2
S1133EA05F1F5093C2024093C1028193919302C059
S1133EB0E0E0F0E0CF01DF91CF9108950F931F93DD
S1133EC0CF93DF93009709F48CC0FC0132971382DF
S1133ED012820091C3021091C4020115110581F4EC
S1133EE020813181820F931F2091C1023091C2023F
S1133EF02817390779F5F093C202E093C10271C023
S1133F00D80140E050E0AE17BF0750F412962D914F
S1133F103C911397AD012115310509F1D901F3CF76
S1133F209D01DA013383228360817181860F971F9B
S1133F308217930769F4EC0128813981260F371F12
S1133F402E5F3F4F318320838A819B8193838283B9
S1133F50452B29F4F093C402E093C30242C01396A4
S1133F60FC93EE931297ED01499159919E01240F10
S1133F70351FE217F30771F480819181840F951F37
S1133F80029611969C938E938281938113969C93AF
S1133F908E931297E0E0F0E0D80112968D919C91F7
S1133FA01397009719F0F8018C01F6CF8D919C912D
S1133FB098012E5F3F4F820F931F2091C1023091D1
S1133FC0C2022817390769F4309729F41092C40201
S1133FD01092C30202C0138212821093C202009391
S1133FE0C102DF91CF911F910F910895283008F0FD
S1133FF027E03327DA01990F311D87FD9160009680
S11340006105710539F432602E5F3D9330E32A95E2
S1134010E1F708959F3F30F080387105610509F09C
S11340203C5F3C5F3D93913008F08068911DDF93C5
S1134030CF931F930F93FF92EF92192F987F96952A
S1134040E92F96959695E90FFF27E05AFE4F992799
S11340503327EE24FF24A701E70105900894079471
S113406028F4360FE71EF81E491F511D660F771FEF
S1134070881F991F0694A1F70590079428F4E70E6A
S1134080F81E491F561FC11D770F881F991F661FF1
S11340900694A1F70590079428F4F80E491F561FBB
S11340A0C71FD11D880F991F661F771F0694A1F79C
S11340B00590079420F4490F561FC71FD81F990F66
S11340C0661F771F881F0694A9F7849110951770AF
S11340D041F0D695C79557954795F794E7941A9567
S11340E0C1F7E6E0F1E0689415901591359165917A
S11340F0959105907FE27395E118F10A430B560BF5
S1134100C90BD009C0F7E10CF11E431F561FC91F8C
S1134110D01D7EF4703311F48A95E6CFE8940150F3
S113412030F0080F0AF40027021708F4202F239513
S1134130022F7A3328F079E37D932A95E9F710C0AA
S11341407D932A9589F606949795679537951795E3
S11341501794E118F10A430B560BC90BD00998F0D8
S113416023957E9173957A3308F070E37C93201342
S1134170B8F77E9170617D9330F0839571E37D9300
S113418070E32A95E1F71124EF90FF900F911F91AE
S1134190CF91DF91992787FD90950895FC010590B3
S11341A0615070400110D8F7809590958E0F9F1F35
S11341B00895FC016150704001900110D8F780957A
S11341C090958E0F9F1F08950F931F93CF93DF93A6
S11341D0FB01238121FD03C08FEF9FEF28C022FF45
S11341E016C046815781248135814217530744F410
S11341F0A081B1819D012F5F3F4F318320838C9338
S1134200268137812F5F3F4F3783268310C0EB0110
S1134210092F182F0084F185E02D0995892BE1F6EB
S11342208E819F8101969F838E83812F902FDF91B2
S1134230CF911F910F910895A0E0B0E0E2E2F1E286
S11342400C94931EAE014B5F5F4FFA016191719123
S1134250AF018091C7029091C8020E942E17E2E03C
S11342600C94AF1E0F931F93CF93DF93E091C7027B
S1134270F091C802238121FF1BC08C01D0E0C0E073
S1134280F80181918F016091C7027091C802DB012E
S11342901896ED91FC911997882331F00995892B93
S11342A079F3DFEFCFEFECCF8AE00995892B19F092
S11342B08FEF9FEF02C08D2F9C2FDF91CF911F9125
S11342C00F910895FA01AA27283051F1203181F184
S11342D0E8946F936E7F6E5F7F4F8F4F9F4FAF4F0A
S11342E0B1E03ED0B4E03CD0670F781F891F9A1F1D
S11342F0A11D680F791F8A1F911DA11D6A0F711DD1
S1134300811D911DA11D20D009F468943F912AE0DC
S1134310269F11243019305D3193DEF6CF010895C4
S1134320462F4770405D4193B3E00FD0C9F7F6CFF5
S1134330462F4F70405D4A3318F0495D31FD4052BD
S1134340419302D0A9F7EACFB4E0A6959795879553
S113435077956795BA95C9F7009761057105089532
S11343609B01AC010A2E06945795479537952795DE
S1134370BA95C9F7620F731F841F951FA01D089576
S1074380F894FFCFDB
S1134384020103030000000200000000530B0000BC
S11343940000180C041060C080200000CB02200030
S11343A44578706C6F72696E672E2E2E00556E6B95
S11343B46E6F776E207374617465210043656E7447
S11343C4203D20282025642C2025642029090077F9
S11343D43A2025642C20683A20256409007369670F
S11343E4233A20256409005374617274696E672E3C
S11343F42E2E00464154414C3A2050697879206667
S10B440461696C65642E00007F
S9030000FC
