:100000000C940B030C9428030C9428030C942803E1
:100010000C94760A0C949F0A0C94C80A0C94F10A6A
:100020000C9428030C9457090C9480090C94A9098A
:100030000C94240A0C94D2090C94FB090C944D0ADC
:100040000C94DC080C9405090C942E090C942803DC
:100050000C9428030C9428030C9428030C94280374
:100060000C9428030C9428030C9428030C94280364
:100070000C9486100C9428030C94280307634236D2
:10008000B79BD8A71A39685618AEBAAB558C1D3C29
:10009000B7CC5763BD6DEDFD753EF6177231BF00ED
:1000A0000000803F08000000BE922449123EABAA27
:1000B000AA2ABECDCCCC4C3E00000080BEABAAAA82
:1000C000AA3E00000000BF000000803F00000000CA
:1000D00000084178D3BB4387D1133D190E3CC3BD03
:1000E0004282AD2B3E68EC8276BED98FE1A93E4CB0
:1000F00080EFFFBE01C4FF7F3F00000000006E6183
:100100006E00696E660000407A10F35A00A0724ECD
:1001100018090010A5D4E80000E87648170000E4AC
:100120000B54020000CA9A3B000000E1F5050000F4
:1001300080969800000040420F000000A086010059
:100140000000102700000000E80300000000640029
:10015000000000000A000000000001000000000094
:100160002C76D888DC674F0823DFC1DFAE59E1B1B8
:10017000B796E5E3E453C63AE651997696E8E6C2C7
:100180008426EB898C9B62ED407C6FFCEFBC9C9FCE
:1001900040F2BAA56FA5F490055A2AF75C936B6CF0
:1001A000F9676DC11BFCE0E40D47FEF520E6B500E4
:1001B000D0ED902E0300943577050080841E080052
:1001C00000204E0A000000C80C333333330F986E02
:1001D00012831141EF8D2114893BE65516CFFEE6BF
:1001E000DB18D1844B381BF77C1D901DA4BBE42485
:1001F000203284725E228100C9F124ECA1E53D2702
:1002000016050100000000000000FA000000E000F8
:10021000E00028FE28FE282454FE5448C4C81026B6
:10022000466C92AA44A000A0C0000000384482009E
:10023000008244380028107C102810107C10100018
:100240000A0C000010101010100006060000040830
:100250001020407C8A92A27C0042FE020042868AE4
:1002600092628482A2D28C182848FE08E4A2A2A23C
:100270009C3C5292920C808E90A0C06C9292926C98
:100280006092929478006C6C0000006A6C00001020
:1002900028448200282828282800824428104080EA
:1002A0008A90604C929E827C7E8888887EFE9292A4
:1002B000926C7C82828244FE82824438FE929292C8
:1002C00082FE909090807C8292925EFE101010FED2
:1002D0000082FE8200040282FC80FE10284482FE1E
:1002E00002020202FE403040FEFE201008FE7C8228
:1002F00082827CFE909090607C828A847AFE9098C4
:100300009462629292928C8080FE8080FC02020253
:10031000FCF8040204F8FC021C02FCC6281028C6E3
:10032000E0100E10E0868A92A2C200FE8282004097
:1003300020100804008282FE00204080402002023B
:100340000202020080402000042A2A2A1EFE1222F5
:10035000221C1C222222041C222212FE1C2A2A2ACF
:1003600018107E908040304A4A4A7CFE1020201EA1
:100370000022BE0200040222BC00FE08142200007B
:1003800082FE02003E2018201E3E1020201E1C224D
:1003900022221C3E28282810102828183E3E102013
:1003A0002010122A2A2A0420FC2202043C02020401
:1003B0003E38040204383C020C023C221408142289
:1003C000300A0A0A3C22262A322200106C820000DF
:1003D00000FE000000826C100008101008100000E1
:1003E0000000007F8181817F7F8383837F7F878778
:1003F000877F7F8F8F8F7F7F9F9F9F7F7FBFBFBFB5
:100400007F7FFFFFFF7F2040FF40206215171565AB
:1004100000FBFB00000000000000C0FF0300E0FF45
:100420000700F0FF0F00F8FF1F0078001E007800A3
:100430001E0078001E0078001E0078001E00780064
:100440001E0078001E0078001E0078001E000000CC
:1004500000000000000080FF0300E0FF0700F0FF45
:100460000F00F8FF1F00F83C1F00783C1E00783C8E
:100470001E00783C1E00783C1E00783C1E00783C34
:100480001E00783C1E00783C1E00783C1E00783C24
:100490001E000000000000000000E0FF0300F0FF6D
:1004A0000700F8FF0F00F8FF1F00783C1E00783CA3
:1004B0001E00783C1E00783C1E00783C1E00783CF4
:1004C0001E00783C1E00783C1E00783C1E00783CE4
:1004D0001E000000000000000000F8FF0300F8FF0D
:1004E0000F00F8FF1F00F8FF1F0000001E000000B3
:1004F0001E0000801F0000F01F0000FF0F00E0FF43
:100500000700F0FF0000F80F0000F800000078007E
:10051000000078000000F8FF1F00F8FF1F00F0FF48
:100520001F00E0FF1F000000000000000000F8FFB7
:100530001F00F8FF1F00F8FF1F00F8FF1F007800E2
:100540001E00783C1E00783C1E00783C1E00783C63
:100550001E00783C1E00783C1E00F87E1F00F8FF4D
:100560001F00F0FF0F00E0E70300000000000000A4
:100570003800EEFF6C002A8045003A0047FC03FF7C
:100580006CFC83FF3900DEFF0B7CD0810BFCD0813B
:100590000BC0D0810BFCD0810B7CDEFF0B0082FFF7
:1005A000397002FF6CF83A0047DC2A8045CCEEFF38
:1005B0006CCC000038000000000C00001E0C000095
:1005C0001E0000001E0000001E0000001E00F8FFBC
:1005D0001F00F8FF1F00F8FF1F00F8FF1F000000BA
:1005E0001E0000001E0000001E0000001E00000093
:1005F0005E000000400000007C00000040000000A1
:10060000400000007C0000003000000010000000EE
:10061000300000007C0011241FBECFEFD8E0DEBF09
:10062000CDBF11E0A0E0B1E0EEEEF2E402C0059033
:100630000D92AE3BB107D9F723E0AEEBB1E001C0BC
:100640001D92A130B207E1F70E942A030C94752194
:100650000C9400000E94DA080E94CC080E949416B4
:1006600080E090E008950F931F9385E00E9482063A
:100670008823C1F080E460E00E94300400E0802F15
:1006800060E00E94DB0310E080E061E00E94300443
:100690001F5F1038C9F70F5F043089F783E060E00F
:1006A0000E941E041F910F9108950F931F9385E0E0
:1006B0000E947506882311F082E07AC00E948C04A3
:1006C000182F0E94F4061150123008F06DC08150AE
:1006D000823008F069C00E944B048EEA60E00E94FC
:1006E000300482EA60E00E94300480EA60E00E9408
:1006F000300400E513ECC8010197F1F780EC60E0ED
:100700000E9430048FE260E00E94300481E860E0E3
:100710000E94300486E160E00E94300482E260E0E2
:100720000E943004C8010197F1F78FEA60E00E944F
:10073000300486EA60E00E94300485EA60E00E94AE
:10074000300480E090E028E833E1F9013197F1F7D7
:10075000019643E0883E9407C1F783EB60E00E9476
:10076000300480E460E00E94300483E060E00E9496
:10077000DB0383E060E00E941E041092640210928A
:1007800066021092650284E091E09093FE028093ED
:10079000FD0288E10E94FD030E94330384EA60E0C9
:1007A0000E94300481E004C085E00E94650687E075
:1007B0001F910F910895FF920F931F93082FF62E0C
:1007C00085E00E9482068823A1F01F2D1F77037009
:1007D000802F806B60E00E94300412951F70812F83
:1007E000806160E00E9430048F2D8F7060E00E9475
:1007F00030041F910F91FF9008951F93182F85E0EB
:100800000E9482068823C1F087E00E94CE0482E025
:100810006AE00E941F0582E061EB0E941F05612FC4
:10082000113208F060E282E00E941F0589EE8A958D
:10083000F1F787E00E94CE041F9108950F931F9354
:10084000082F162F85E00E948206882331F003705E
:100850001F7710936202009363021F910F91089516
:100860000F931F93082F162F85E00E94820688237E
:1008700079F0112319F0113021F402C02B9801C036
:100880002B9A86E08A95F1F780E0602F0E941F0581
:100890001F910F910895239A08951F93182F86E0B2
:1008A0000E948206882319F0812F0E9470041F91F4
:1008B000089586E00E947506882311F082E008956D
:1008C0000E94750481E008951F93182F86E00E940E
:1008D0008206882319F0812F0E947E041F910895BB
:1008E00085FD5D9886FD5E980895559A569A80E23A
:1008F0000E944D0480E40E944D040895282F85FF36
:1009000004C08BB190E289278BB926FF04C08BB15C
:1009100090E489278BB9089582E00E9475068823A8
:1009200011F082E008950E942E0580E06EE47CE0E4
:100930000E94C50481E066E47CE00E94C50482E078
:100940006EE37CE00E94C50486E066E57CE00E94E0
:10095000C50483E066E37CE00E94C50484E066E3AE
:100960007CE00E94C50485E066E37CE00E94C5044B
:1009700087E066E37CE00E94C5048FEF8093670206
:1009800087E00E94CE0481E00895E82FF0E0EE0FAA
:10099000FF1FE75FFD4F7183608308951F93182F3A
:1009A00082E00E948206882309F447C0912F977045
:1009B00080916702981709F440C09093670285B14F
:1009C000887F892B85B9933011F1943028F49130C8
:1009D00051F0923090F40CC0953019F19530E0F060
:1009E000963021F50FC0E0910B02F0910C0222C06D
:1009F000E0910902F0910A021DC0E0910D02F09110
:100A00000E0218C0E0911502F091160213C0E09199
:100A10000F02F09110020EC0E0911102F09112024B
:100A200009C0E0911302F091140204C0E091170292
:100A3000F0911802309709F009951F9108951F93BE
:100A4000162F0E94CE0482E00E948206882321F0A5
:100A50001EBD0DB407FEFDCF1F910895259A26985F
:100A6000279A209A219A229A089587E00E94750673
:100A7000882311F082E008950E945B0681E0809354
:100A80009E02109268021092690210926B021092FC
:100A90006A0210926D0210926C0210926F02109214
:100AA0006E021092710210927002109273021092F4
:100AB00072021092750210927402109277021092D4
:100AC0007602109279021092780210927B021092B4
:100AD0007A0210927D0210927C0210927F02109294
:100AE0007E02109281021092800210928602109271
:100AF0008702109288021092890210928B02109243
:100B00008C0210928D0210928E0210928F0210921F
:100B100090021092910210929302109292021092FF
:100B200095021092940210929702109296021092DF
:100B300099021092980210928302109282021092EF
:100B400085021092840210929D0210929C021092D3
:100B50009E0208952EEF8037920714F480E79EEFEF
:100B6000FC0181E0E139F80714F0E0E9F1E09B01D4
:100B70008EEF6037780714F420E73EEFA90121E0FB
:100B80004139520714F040E951E08F2F881F882720
:100B9000881F252F221F2227221F91E090939E025B
:100BA00080938B0220938C02CF01F7FF03C09095B6
:100BB00081959F4F9A0157FF03C0309521953F4F74
:100BC00090936B0280936A0230936D0220936C02C3
:100BD00010929E02089521E020939E02AC0183E0D2
:100BE000493E580710F048EE53E09B0183E0693E10
:100BF000780710F028EE33E0F89450937302409396
:100C000072023093750220937402789410929E02BF
:100C10000895482F81E080939E02CB0121E0613945
:100C2000720710F080E991E0413061F0413018F036
:100C30004230C9F40EC0F89490936B0280936A021C
:100C4000789411C0F89490936D0280936C0278941C
:100C50000AC0F89490936B0280936A0290936D029D
:100C600080936C02789410929E0208950F931F93C4
:100C7000182F062F662349F460E070E00E940906F1
:100C8000812F60E070E00E94DE0D81E080939E0283
:100C9000113051F0113018F0123041F403C00093BC
:100CA000860204C0009386020093870210929E027F
:100CB0001F910F9108953A9A3B9A3C9A3D9A3E9A19
:100CC0003F9A88B1837088B90895853160F4E82F20
:100CD000F0E0E35BFD4F8081882329F08081815023
:100CE0008083808108958FEF0895853110F080E032
:100CF0000895E82FF0E0E35BFD4F80818F5F8083F4
:100D000081500895853110F080E00895E82FF0E0DB
:100D1000E35BFD4F8081811181E008951F93182FBF
:100D20008091BF01882341F08091C601882399F00A
:100D30001092BF011092C6010E94C3068093BE01AB
:100D400080EC91E061E040E028E230E00E9486071C
:100D500081E08093BF019091BE01133018F01330F1
:100D600079F409C0E12FF0E0E050FF4F8081892342
:100D700041F081E006C091FF03C0892F817001C05E
:100D800080E01F9108950F931F9381E00E948206D7
:100D9000882311F400E024C087E00E94CE0482E0A2
:100DA0006AE00E941F0582E062EB0E941F0518ECBA
:100DB000812F8A95F1F782E060E00E945F0C082F96
:100DC000812F8A95F1F782E060E00E945F0C1A950E
:100DD000F1F787E00E94CE0488E893E10197F1F7EC
:100DE000802F1F910F910895DF93CF9300D00F9222
:100DF000CDB7DEB781E00E947506882311F082E04E
:100E000011C00E948C048150823040F40E94180767
:100E1000CE0101960E94100E81E004C081E00E9484
:100E2000650687E00F900F900F90CF91DF910895A6
:100E30001092B6021092B5021092B8021092B70248
:100E40001092BA021092B9021092BC021092BB0228
:100E50001092BE021092BD0280E991E09093A2022E
:100E60008093A1029093A4028093A3029093A60280
:100E70008093A5029093A8028093A7029093AA0260
:100E80008093A90284E398E09093AC028093AB0234
:100E90009093AE028093AD029093B0028093AF0224
:100EA0009093B2028093B1029093B4028093B30204
:100EB00008950F931F93DF93CF93CDB7DEB7299794
:100EC0000FB6F894DEBF0FBECDBF8C0188E00E9444
:100ED0008206882311F491E00DC0CE01019661E0F5
:100EE00040E098010E948607982F882319F48F818B
:100EF0008823E9F3892F29960FB6F894DEBF0FBE39
:100F0000CDBFCF91DF911F910F910895EF92FF9286
:100F10000F931F93CF93DF93EC01F62EE42E8901FC
:100F200088E00E948206882311F481E026C084E0D4
:100F300090E00E94941EFC01009711F482E01DC015
:100F4000F982F0FC1E8281E0E81619F48981846040
:100F500089838981886089831B830A831D830C832D
:100F6000D183C0831382128281E080932902CF0152
:100F70000E94C4071092290280E0DF91CF911F9157
:100F80000F91FF90EF900895CF92DF92EF92FF9232
:100F90000F931F93CF93DF93EC018091BF028823BF
:100FA00039F4D093C102C093C0020E94690E47C0B9
:100FB000C090C002D090C10200E010E0EE24FF24F7
:100FC00037C0A881B981FD0164817581F601408136
:100FD0005181FA01848195819B01281B390B37FFD0
:100FE0000FC0861B970B95838483DB82CA82012BFB
:100FF00029F4D093C102C093C00221C0F7010CC0F4
:10100000F601828193812115310549F4FD01158294
:1010100014829B838A83F601D383C28310C0FD01AF
:10102000358324830097B9F30F5F1F4F76016C015E
:101030008091BF0290E00817190718F2ECCF809159
:10104000BF028F5F8093BF02DF91CF911F910F91FD
:10105000FF90EF90DF90CF900895E091F202F09131
:10106000F302309711F480E0089584850895EF929B
:10107000FF920F931F930E94841084E10E947506D3
:10108000882311F082E026C08EE00E948206882329
:10109000E9F481E00E94890F8130C1F40E94B80810
:1010A0000E94B90881E063E040E020E0E12C92EC8E
:1010B000F92E91E0092F112D0E94E10E0E948A085D
:1010C000882311F486E006C081E004C084E10E9418
:1010D000650687E01F910F91FF90EF900895E091D2
:1010E000F202F091F302309709F01486089590937C
:1010F000F1028093F0027093F3026093F2020E9477
:101100006F08089581E00E94780F81E061E00E94FD
:1011100017100895EF92FF920F931F93DF93CF93D1
:101120000F92CDB7DEB781E061E00E94171000E0BA
:1011300010E07E010894E11CF11C81E0B7010E94DF
:10114000C30F882311F010E006C00F5F1F4F0A3055
:10115000110599F711E081E060E00E941710812FDE
:101160000F90CF91DF911F910F91FF90EF90089515
:1011700008951092EE021092EF021092F102109276
:10118000F0021092F3021092F2021092F402109206
:10119000F6021092F50208950E94F90D0E94D80BF4
:1011A0000E941A0B0E944D0E0E948C040E94F406AD
:1011B00078940895000008951F920F920FB60F9231
:1011C00011242F933F934F935F936F937F938F934C
:1011D0009F93AF93BF93EF93FF93E091E901F09159
:1011E000EA01309709F00995FF91EF91BF91AF9116
:1011F0009F918F917F916F915F914F913F912F912F
:101200000F900FBE0F901F9018951F920F920FB660
:101210000F9211242F933F934F935F936F937F937C
:101220008F939F93AF93BF93EF93FF93E091EB0165
:10123000F091EC01309709F00995FF91EF91BF9182
:10124000AF919F918F917F916F915F914F913F915E
:101250002F910F900FBE0F901F9018951F920F9215
:101260000FB60F9211242F933F934F935F936F9379
:101270007F938F939F93AF93BF93EF93FF93E091EF
:10128000ED01F091EE01309709F00995FF91EF9192
:10129000BF91AF919F918F917F916F915F914F918E
:1012A0003F912F910F900FBE0F901F9018951F9296
:1012B0000F920FB60F9211242F933F934F935F938A
:1012C0006F937F938F939F93AF93BF93EF93FF930E
:1012D000E091DB01F091DC01309709F00995FF9175
:1012E000EF91BF91AF919F918F917F916F915F919E
:1012F0004F913F912F910F900FBE0F901F90189517
:101300001F920F920FB60F9211242F933F934F937A
:101310005F936F937F938F939F93AF93BF93EF935D
:10132000FF93E091DD01F091DE01309709F009951E
:10133000FF91EF91BF91AF919F918F917F916F91AD
:101340005F914F913F912F910F900FBE0F901F9083
:1013500018951F920F920FB60F9211242F933F935F
:101360004F935F936F937F938F939F93AF93BF93AD
:10137000EF93FF93E091DF01F091E001309709F0E6
:101380000995FF91EF91BF91AF919F918F917F91BF
:101390006F915F914F913F912F910F900FBE0F90E2
:1013A0001F9018951F920F920FB60F9211242F9332
:1013B0003F934F935F936F937F938F939F93AF93DD
:1013C000BF93EF93FF93E091E301F091E401309735
:1013D00009F00995FF91EF91BF91AF919F918F9186
:1013E0007F916F915F914F913F912F910F900FBE21
:1013F0000F901F9018951F920F920FB60F92112405
:101400002F933F934F935F936F937F938F939F930C
:10141000AF93BF93EF93FF93E091E501F091E60165
:10142000309709F00995FF91EF91BF91AF919F918E
:101430008F917F916F915F914F913F912F910F907D
:101440000FBE0F901F9018951F920F920FB60F921C
:1014500011242F933F934F935F936F937F938F93B9
:101460009F93AF93BF93EF93FF93E091E101F091CE
:10147000E201309709F00995FF91EF91BF91AF918B
:101480009F918F917F916F915F914F913F912F919C
:101490000F900FBE0F901F9018951F920F920FB6CE
:1014A0000F9211242F933F934F935F936F937F93EA
:1014B0008F939F93AF93BF93EF93FF93E091E701D7
:1014C000F091E801309709F00995FF91EF91BF91F4
:1014D000AF919F918F917F916F915F914F913F91CC
:1014E0002F910F900FBE0F901F9018951F920F9283
:1014F0000FB60F9211242F933F934F935F936F93E7
:101500007F938F939F93AF93BF93EF93FF93E0915C
:10151000D101F091D201309709F00995FF91EF9137
:10152000BF91AF919F918F917F916F915F914F91FB
:101530003F912F910F900FBE0F901F9018951F9203
:101540000F920FB60F9211242F933F934F935F93F7
:101550006F937F938F939F93AF93BF93EF93FF937B
:10156000E091D301F091D401309709F00995FF91F2
:10157000EF91BF91AF919F918F917F916F915F910B
:101580004F913F912F910F900FBE0F901F90189584
:101590001F920F920FB60F9211242F933F934F93E8
:1015A0005F936F937F938F939F93AF93BF93EF93CB
:1015B000FF93E091D501F091D601309709F009959C
:1015C000FF91EF91BF91AF919F918F917F916F911B
:1015D0005F914F913F912F910F900FBE0F901F90F1
:1015E00018951F920F920FB60F9211242F933F93CD
:1015F0004F935F936F937F938F939F93AF93BF931B
:10160000EF93FF93E091D701F091D801309709F063
:101610000995FF91EF91BF91AF919F918F917F912C
:101620006F915F914F913F912F910F900FBE0F904F
:101630001F90189580E10E947506882311F082E0C2
:101640000895E9ECF1E01192119282E0E930F80797
:10165000D1F781E00895FF920F931F93CF93DF930B
:10166000F82E8AE0F816B1F08F1548F0E8E0FE1683
:10167000B9F1EF1538F1F7E0FF1651F43BC08DE0FA
:10168000F81659F0EBE1FE1689F0FCE0FF1641F088
:1016900001E041C01092620203C0109262023AC09F
:1016A0008091630281508093630234C00E943303AF
:1016B00014C080E061E00E943004809162028F5F7C
:1016C000809362028091620287FFF3CF10926202E0
:1016D0008091630281508093630200E011E01CC09E
:1016E000809162028823B1F08091620286508093DB
:1016F000620210C081E00E94300D64EF71E080E072
:1017000090E04DE750E024E630E00E943C0D81E09F
:101710000E94970C00E010E08091630260916202E9
:101720000E94DB03002351F185E0F89EC0011124E3
:10173000EC01CD59DE4F8C0108591E4FFE018491FA
:1017400061E00E9430042196C017D107B9F780E00C
:1017500061E00E943004809162028A5F809362029D
:101760008091620290E08C3791053CF01092620209
:101770008091630281508093630211E08091630243
:10178000837080936302113059F480916402813038
:1017900039F4E0916502F0916602309709F00995FD
:1017A00080E090E0DF91CF911F910F91FF9008951D
:1017B000F8940E94330C81E00E94E00B81E00895D0
:1017C000813049F0F894813020F18230B1F08330DB
:1017D00009F045C017C02C9A80E8809361001092F0
:1017E000610080E090E00000019688329105D9F711
:1017F0001092680010926B00089580E88093610059
:1018000083E004C080E88093610088E080936100F9
:1018100028C080E090E0000001962DE68036920717
:10182000D1F72C9880E090E0000001962DE68036FC
:101830009207D1F710927A008FEF80936400809125
:10184000680081608093680080916B008460809361
:101850006B00789483B7816083BF88950895823048
:1018600008F078940895249A2C9A089583E58CBD05
:1018700081E08DBD8DE08A95F1F7089583E58CBDFB
:101880001DBC84EF91E00197F1F708958FE78CBDBF
:101890001DBC84EF91E00197F1F7089583E58CBDBD
:1018A00081E08DBD8DE08A95F1F7089583E58CBDCB
:1018B00081E08DBD84EF91E00197F1F708951F93CA
:1018C000162F0E94CE0482E00E948206882329F00F
:1018D0001EBD0DB407FEFDCF8EB51F9108958AE0A1
:1018E0000E946506882329F481E00E94920D1092DF
:1018F0001A02089589E00E9465068823B9F4809150
:101900001902882311F00E94D80D82E00E94920DE6
:101910008091270290912802009731F00E94291FA0
:101920001092280210922702109219020895813015
:1019300029F0823029F40E947A0C08950E946F0CDD
:1019400008950F931F93CF93DF9380E291E00E945D
:10195000941E9C019093280280932702892B11F4F6
:1019600080E039C08901C0E0D0E0BE0180E090E0B5
:101970000E94E71A20E030E040EA51E40E94751A24
:1019800027EF35E740E05FE30E94B21B9B01AC010B
:1019900060E070E080E291E40E941F1C9B01AC01BA
:1019A000CA01B9012DEC3CEC42E851E40E94B21BA3
:1019B0000E94751B2AE030E040E050E00E94111EBA
:1019C000F80161937193819391938F012196C834AB
:1019D000D10559F681E0DF91CF911F910F910895C4
:1019E0008AE00E947506882311F082E00895109223
:1019F00024021092230281E00E94AE0D81E08093C8
:101A00001A0208951F9389E00E947506882311F039
:101A100082E024C08BE00E9482068823D9F40E94D1
:101A2000A10C182F813011F086E018C010921B0213
:101A300010921C0210921D0210921E028DE06DE2A7
:101A400071E10E94081182E00E94AE0D109319020C
:101A500081E004C089E00E94650687E01F91089537
:101A6000813021F0823029F084E008950E94F00C4A
:101A700008950E94020D08956F927F928F929F9217
:101A8000AF92BF92CF92DF92EF92FF920F931F938C
:101A9000CF93DF933B014C015A01E9018AE00E9498
:101AA0008206882381F1209741F19501442737FD73
:101AB0004095542FBE01C536D10510F064E670E0A4
:101AC00080E090E00E94111E24E630E040E050E00B
:101AD0000E94211E79018A01C401B3010E943011C4
:101AE000C7010E94590760E070E080E090E00E942A
:101AF0003011C5018E199F0904C0A114B10419F059
:101B0000C5010E945907DF91CF911F910F91FF905E
:101B1000EF90DF90CF90BF90AF909F908F907F908D
:101B20006F900895823029F4809181008E7F809398
:101B3000810080911902813031F480911A02813044
:101B400011F40000089580911902813021F08091F4
:101B50001A02813011F45F9857980895982F809158
:101B60001902882331F480911A02882311F4579ABC
:101B70005F98809119028823D1F49230C1F41092B9
:101B800080001092810080918100886080938100A4
:101B90008091810081608093810010928500109275
:101BA000840081E08093890080E980938800089513
:101BB000EFE6F0E080818D7F80830895982F81E0AB
:101BC00080939E02913071F0913018F0923071F450
:101BD00005C070937B0260937A0208C070937B0209
:101BE00060937A0270937D0260937C0210929E0251
:101BF0000895CF93DF93C0E0D0E08C2F60E00E9487
:101C0000080E2196C531D105C1F7DF91CF91089516
:101C1000853128F4E82FF0E0E35BFD4F6083089501
:101C20001F93CF93DF93EC01009799F181E00E941D
:101C30008206882351F187E00E94CE0418EC812FA0
:101C40008A95F1F782E06AE00E941F0582E064EB6A
:101C50000E941F05812F8A95F1F782E060E00E94C3
:101C60005F0C8883812F8A95F1F782E060E00E9403
:101C70005F0C89831A95F1F782E060E00E945F0CA7
:101C80008A8387E00E94CE0404C0188219828DE204
:101C90008A83DF91CF911F91089588E00E94750695
:101CA000882311F082E008951092BF021092C102C1
:101CB0001092C0021092290210922A0280E165E976
:101CC00071E10E941C110E946D0E0E94760E81E04F
:101CD000089581E080932A02089584B5826084BDCE
:101CE00085B5846085BD8EE487BD0895EEE6F0E09D
:101CF0008081826080830895CF92DF92EF92FF927D
:101D00000F931F93CF93DF937B018C01EA0169014D
:101D100081E0E81681EEF80680E0080780E0180709
:101D200040F444E0EE0CFF1C001F111F4A95D1F750
:101D300007C033E0EE0CFF1C001F111F3A95D1F7CE
:101D400060E072EC8BEE9BE0A80197010E94211EDF
:101D500079018A0186EF9FEFAFEFBFEFE80EF91E22
:101D60000A1F1B1FC801B7012AE030E040E050E025
:101D70000E94211E653071058105910540F08AE0C1
:101D800090E0A0E0B0E0E80EF91E0A1F1B1FC8019A
:101D9000B7012AE030E040E050E00E94211EC90176
:101DA000DA012883892F9A2FAB2FBB27F601808376
:101DB000DF91CF911F910F91FF90EF90DF90CF9027
:101DC0000895BF92CF92DF92EF92FF920F931F93ED
:101DD000DF93CF9300D0CDB7DEB7B62EC42ED22E70
:101DE000882321F0813009F077C03CC08DE00E944B
:101DF0008206882309F470C01A8219821092C000EA
:101E00001092C1001092C200C801B701AE014E5F2E
:101E10005F4F9E012F5F3F4F0E947C0EBB0CDD0C7D
:101E2000DD0CDD0CDD0CDB28CC0CCC0CCC0CCD2877
:101E30008A818093C40089818093C500C092C200CA
:101E400081E0E81681EEF80680E0080780E01807D8
:101E500028F08091C00082608093C00081E0809370
:101E6000D6023AC08EE00E9482068823A9F1198228
:101E70001A821092C8001092C9001092CA00C801BC
:101E8000B701AE014F5F5F4F9E012E5F3F4F0E9433
:101E90007C0EBB0CDD0CDD0CDD0CDD0CDB28CC0C72
:101EA000CC0CCC0CCD2889818093CC008A81809386
:101EB000CD00C092CA0081E0E81681EEF80680E00D
:101EC000080780E0180728F08091C800826080939E
:101ED000C80081E08093DB020F900F90CF91DF91DB
:101EE0001F910F91FF90EF90DF90CF90BF900895DA
:101EF000882319F0813061F406C08091C1008068A8
:101F00008093C10008958091C90080688093C900C2
:101F10000895882321F08130B9F084E008958DE0A0
:101F20000E947506882369F51092D6021092D40299
:101F30001092D5020E94771080E065E070E00E9468
:101F40005E108BEC92E015C08EE00E94750688232F
:101F5000C1F41092DB021092D9021092DA0281E0F1
:101F60000E94771081E065E070E00E945E1082ECD4
:101F700092E061E041E028EE33E00E94860781E0D4
:101F8000089582E00895CF93DF93EB01882321F039
:101F9000813009F046C022C08DE00E94820688236D
:101FA00009F43FC02091D7023091D8028091D50228
:101FB0008130B9F50FC08091D102882321F02150E2
:101FC00030401092D1028091C00087FF03C0809101
:101FD000C60020C01216130674F325C08EE00E94BE
:101FE00082068823F1F02091DC023091DD0280919D
:101FF000DA028130B1F411C08091C802882321F047
:10200000215030401092C8028091C80087FF05C05F
:102010008091CE00888380E007C01216130664F317
:1020200002C081E001C083E0DF91CF9108950F935A
:102030001F93182F062F882311F48DE003C08130E1
:1020400029F48EE00E9482068823A9F10023F9F08A
:10205000013089F5112319F0113069F50CC0809118
:10206000D602813041F58091C10080618093C1002A
:102070000093D50220C08091DB028130E1F4809191
:10208000C90080618093C9000093DA0214C0112353
:1020900019F0113081F408C08091C1008F7E8093C7
:1020A000C1001092D50207C08091C9008F7E809335
:1020B000C9001092DA021F910F91089577FF03C0B3
:1020C00060E070E005C06F31710514F06EE170E002
:1020D000882319F0813051F405C07093D8026093C1
:1020E000D70208957093DD026093DC02089588237F
:1020F00019F0813041F404C0519A5098599A0895CA
:10210000539A52985B9A0895000008951F920F9277
:102110000FB60F9211242F933F934F935F936F93BA
:102120007F938F939F93AF93BF93EF93FF93DF932F
:10213000CF930F92CDB7DEB781E00E94B5117894AE
:1021400081E0BE016F5F7F4F0E94C30F882319F4A7
:1021500089810E94C21081E00E94780F0F90CF9178
:10216000DF91FF91EF91BF91AF919F918F917F91FF
:102170006F915F914F913F912F910F900FBE0F90F4
:102180001F9018951F93282F853519F08A3A89F4E6
:1021900004C081E08093EF0233C01091EF02113050
:1021A00069F582E08093EF020E9445121093EE02DF
:1021B00027C08091EF02823009F58091F50290915D
:1021C000F6024097C0F48091F5029091F602FC016E
:1021D000E252FD4F208301969093F6028093F50220
:1021E0008091F5029091F6020C9751F41092EF0253
:1021F0000E94C61105C081E08093F4021092EF02A4
:102200008091EF02882311F41092EE021F9108953D
:10221000E82F803268F48051833050F0F0E0EE0F08
:10222000FF1FE753FE4F208131817183608302C01D
:1022300020E030E0C9010895803218F020E030E05D
:102240000AC0E82FF0E0EE0FFF1FE753FE4F20819A
:10225000318171836083C90108950E9454110895EA
:10226000EF92FF920F931F937B018C018AE00E94F3
:1022700082068823A1F080911A02882381F0D80178
:10228000C701880F991FAA1FBB1F90932602809336
:102290002502E114F1040105110509F45F981F916D
:1022A0000F91FF90EF90089580911B0290911C0276
:1022B000A0911D02B0911E0220911F0230912002B8
:1022C0004091210250912202280F391F4A1F5B1FA3
:1022D00020931B0230931C0240931D0250931E0258
:1022E00080911B0290911C02A0911D02B0911E02D0
:1022F0008851964FA040B040BCF08BB180588BB94C
:1023000080911B0290911C02A0911D02B0911E02AF
:102310008851964FA040B04080931B0290931C02BE
:10232000A0931D02B0931E0208950E949C110E946A
:1023300071120E944A12089588E00E948206882342
:1023400011F484E0089580912A02882311F483E037
:10235000089580912902882311F082E008950E9457
:10236000BE148130E1F380E00895882319F08130B4
:1023700061F406C08091C1008F778093C1000895F9
:102380008091C9008F778093C9000895EEEDF2E047
:1023900020E030E082819381280F391F329682E05D
:1023A000E83EF807B9F72115310509F46DC08091B1
:1023B000DE029091DF022817390709F065C080918D
:1023C000F0029091F102892B59F5E091F202F0911F
:1023D000F302309729F18485882311F53183208316
:1023E0008091E0029091E102938382838091E202E6
:1023F0009091E302958384838091E4029091E502B9
:10240000978386838091E6029091E7029187808787
:102410008091E8029091E9029387828781E0848726
:102420002091F0023091F1022115310569F1E0911E
:10243000F202F091F302309739F18091DE0290912F
:10244000DF02918380838091E0029091E102938387
:1024500082838091E2029091E3029583848380914C
:10246000E4029091E502978386838091E602909141
:10247000E702918780878091E8029091E902938733
:102480008287CF01F901099508951092F602109202
:10249000F502089580911A02813011F5809123028E
:1024A000909124022091250230912602280F391F95
:1024B00030932402209323028091230290912402DE
:1024C000885E93406CF08BB180588BB98091230269
:1024D00090912402885E934090932402809323027B
:1024E000089587E00E948206882309F4AAC080919B
:1024F000720290917302892B09F18091960290915A
:1025000097022091720230917302820F931F909371
:102510009702809396028091960290919702885E2E
:102520009340A4F08091960290919702885E934028
:10253000909397028093960241E009C080916A02CD
:1025400090916B0290936F0280936E0240E08091B5
:10255000740290917502892B09F1809198029091F3
:1025600099022091740230917502820F931F90930B
:102570009902809398028091980290919902885EC6
:102580009340A4F08091980290919902885E9340C4
:10259000909399028093980261E009C080916C0247
:1025A00090916D02909371028093700260E0842F8D
:1025B0000E942213809192029091930220916E02C8
:1025C00030916F02280F391F3093930220939202AB
:1025D0008091920290919302885E934014F440E0BF
:1025E0000BC08091920290919302885E93409093E9
:1025F00093028093920241E080919402909195021F
:102600002091700230917102280F391F309395028A
:10261000209394028091940290919502885E934059
:1026200014F460E00BC08091940290919502885E52
:102630009340909395028093940261E0842F0E94CE
:10264000671308958823F1F020916A0230916B029C
:1026500080916E0290916F02281B390B121613069F
:1026600034F480916E0290916F02019607C0232B83
:1026700049F080916E0290916F02019790936F02E2
:1026800080936E02662311F120916C0230916D02ED
:102690008091700290917102281B390B121613065B
:1026A00054F480917002909171020196909371029E
:1026B000809370020895232B49F0809170029091CD
:1026C00071020197909371028093700208950F93A5
:1026D0001F93182F062F80919E02882309F0E7C0D0
:1026E00080918602882309F05AC080916E029091F1
:1026F0006F02892BE9F480912B02837E80932B0259
:1027000010928F0280919A02882309F45DC0609133
:10271000880280E00E943606E0919C02F0919D02C2
:10272000309709F451C081E0808310929A024CC026
:1027300080916802813041F480917A0290917B020D
:10274000019711F411E002C01123F1F1E0918D0223
:10275000F0E0EE5EFE4F90912B02937E8081892BFC
:1027600080932B0280918B02882321F480918D022B
:102770008F5F03C080918D02815080938D02809184
:102780008D02837080938D0281E080938F0280910F
:1027900068028130C9F480E00E946A1415C09091EB
:1027A0002B02937E90932B02E0918D02F0E0EE5E7F
:1027B000FE4F8081892B80932B0282E080938F02D1
:1027C00010926F0210926E0280918702882309F0A6
:1027D00059C08091700290917102892BE9F4809127
:1027E0002B028F7180932B021092900280919B029A
:1027F000882309F45CC06091890281E00E9436065A
:10280000E0919C02F0919D02309709F450C081E064
:10281000818310929B024BC080916902813041F408
:1028200080917C0290917D02019711F401E002C039
:102830000023E9F1E0918E02F0E0EA5EFE4F909114
:102840002B029F718081892B80932B0280918C02B7
:10285000882321F480918E028F5F03C080918E02C5
:10286000815080938E0280918E02837080938E02BD
:1028700081E080939002809169028130C1F40E94CE
:102880006A1415C090912B029F7190932B02E091D6
:102890008E02F0E0EA5EFE4F8081892B80932B024E
:1028A00082E08093900210927102109270028091E7
:1028B0009102882331F48BE292E0612F402F0E9435
:1028C0002C1588B1837090912B02892B88B91F91A8
:1028D0000F910895882321F0813009F04EC027C060
:1028E00080917A0290917B02892B49F080917A0243
:1028F00090917B02019790937B0280937A02809162
:102900009A028823D1F520917A0230917B0280913E
:102910007E0290917F022817390779F580E060E008
:1029200070E00E94090681E080939A0208958091E8
:102930007C0290917D02892B49F080917C029091DC
:102940007D02019790937D0280937C0280919B028F
:10295000882399F420917C0230917D02809180023D
:10296000909181022817390741F481E060E070E01E
:102970000E94090681E080939B020895FF920F93C5
:102980001F93CF93DF938091BF02882309F459C02E
:102990000091C0021091C102F801C081D1818C81E7
:1029A0009D8101979D838C83181619060CF449C0EC
:1029B000898180FF05C08E81882311F481E08E8398
:1029C000898181FF03C0EF81F88509958091BF025D
:1029D0008230A8F0F801828193819093C1028093A4
:1029E000C00213821282E0910000F0910100848104
:1029F0009581181619063CF0FF24F39405C0109237
:102A0000C1021092C002FF248091BF0281508093C6
:102A1000BF028091BF02882311F40E942915898189
:102A200082FF08C08A819B819D838C83C8010E949C
:102A3000C40708C0C8010E94291F89818F7E89832D
:102A400001C0FF248F2DDF91CF911F910F91FF9037
:102A5000089510922A020895FC0180918F0282301D
:102A600069F480912F0291E0892780932F028823B7
:102A700009F03EC08081837E80833AC080916E02DF
:102A800090916F02C397A4F56623D1F020916E0256
:102A900030916F0280E690E0BC01269FC001279F25
:102AA000900D369F900D1124880F892F881F990B48
:102AB000909383028093820281E080932D0218C05C
:102AC00080912D028823A1F080918202909183024F
:102AD0000197909383028093820280918202909169
:102AE0008302892B29F48081837E808310922D02BA
:102AF00080919002823069F480912E0291E08927C2
:102B000080932E02882309F03EC080818F718083DC
:102B100008958091700290917102C397A4F54423A7
:102B2000D1F0209170023091710280E690E0AC010A
:102B3000249FC001259F900D349F900D1124880F74
:102B4000892F881F990B909385028093840281E0DE
:102B500080932C02089580912C028823A1F080910B
:102B6000840290918502019790938502809384025C
:102B70008091840290918502892B29F480818F7144
:102B8000808310922C020895CF93DF93FC01308153
:102B900020914302321303C0208121111EC0EC0199
:102BA0000E9433038881813059F038F0823059F027
:102BB000833061F485E491E00BC080E291E008C0CD
:102BC0008CE291E005C089E391E002C082E591E0EA
:102BD0000E94E720888180934302DF91CF9108957E
:102BE000DC01FB019C918081981325C011962D91E9
:102BF0003C9112978181928128173907E1F413964D
:102C00002D913C911497838194812817390799F469
:102C100015962D913C911697858196812817390735
:102C200051F417964D915C9118972781308581E07A
:102C30004217530709F080E00895CF93DF93EC012A
:102C40009B018091420281110AC041E061E089E369
:102C500092E00E94860781E08093420211C0809139
:102C60003F02882369F080E40E94640480E00E94AF
:102C70008E06888381E00E948E06898310923F022F
:102C8000DF91CF910895EF92FF920F931F93CF930F
:102C9000DF93EC018B01FB01E680F7808085918555
:102CA0000E942D088823C9F083E08883F80184817D
:102CB0009581019751F4C701CC979A83898384E069
:102CC00091E08E199F099C838B83DF91CF911F9197
:102CD0000F91FF90EF900C946F08DF91CF911F91AF
:102CE0000F91FF90EF900895CF93DF93EC0160E395
:102CF00072E00E94F015811114C06F8178858D817A
:102D00009E810E94EB056B817C8189819A810E9462
:102D1000AA0589E0FE01A0E3B2E001900D928A9538
:102D2000E1F7DF91CF910895CF93DF93CDB7DEB771
:102D30002F970FB6F894DEBF0FBECDBF0E94590487
:102D40000E9455030E9435050E94F4060E94370830
:102D5000813051F5BE016D5F7F4F80E090E00E94B1
:102D600077080E9482081092460210924502109243
:102D700048021092470210924A02109249021092A1
:102D80004C0210924B021092440280E291E00E94A9
:102D9000E72088EB9BE00E9459070E94330388E9F3
:102DA00091E00E94E72007C00E9433038AEA91E085
:102DB0000E94E720FFCF0E94C30684FFFCCF88EE6D
:102DC00093E00E9459076DE770E0CE0101960E94E2
:102DD0001D16BE016F5F7F4F84E492E00E94431690
:102DE00084E492E00E94741684E492E00E94C41588
:102DF000EACFA3E1B0E0EFEFF6E10C944E1E6C01D8
:102E00004B012A01FC0117821682838181FF43C393
:102E1000AE014F5F5F4F3A01F6019381F40193FDDC
:102E2000859193FF81914F01882309F430C3853246
:102E300039F493FD859193FF81914F01853239F4E7
:102E4000B60190E00E94AF2052012501E5CF10E0CD
:102E5000F12C20E02032A0F48B3269F030F4803283
:102E600059F0833269F420612CC08D3239F08033FF
:102E700039F4216026C02260246023C0286021C06C
:102E800027FD27C030ED380F3A3078F426FF06C012
:102E9000FAE01F9F300D1124132F13C04AE0F49E57
:102EA000300D1124F32E20620CC08E3221F426FD49
:102EB000EEC2206406C08C3611F4206802C0883649
:102EC00041F4F40193FD859193FF81914F018111AC
:102ED000C1CF9BEB980F933018F42061805E06C041
:102EE0009BE9980F933008F071C12F7E26FF16E002
:102EF0002F73322E853619F42064322E08C08636A0
:102F000021F4F22FF0683F2E02C01111115037FE4C
:102F100007C01C3350F4EE24E394E10E27E00BC00D
:102F2000183038F027E017E005C027E04CE3E42E26
:102F300002C0212FE12C520144E0A40EB11CF20189
:102F400060817181828193810E2DA3010E94C11F36
:102F50002C01098100FF02C003FF07C031FC08C03B
:102F600032FE09C030E2232E07C02DE2222E04C01B
:102F70009BE2292E01C0212C802F8C7019F021108A
:102F800068C2A8C237FE0FC0E40C04FF04C08A81E7
:102F9000813309F4EA941E1474F5F8E0FE1578F50F
:102FA00088E0E82E2CC036FC2AC0812F90E08415E2
:102FB00095059CF02CEF42162FEF520674F0432D2E
:102FC0004068342E0AC0E2E0F0E0EC0FFD1FE10F94
:102FD000F11D8081803319F411501111F4CF37FEA7
:102FE0000EC0EE24E394E10E812F90E048165906BE
:102FF0002CF4141904C0EE24E39401C010E037FE51
:1030000006C01414150434F4C201019605C085E00D
:1030100090E002C081E090E021100196112331F090
:10302000212F30E02F5F3F4F820F931F2F2D30E075
:103030008217930714F4F81A01C0F12C832D8970BC
:1030400049F4FF2039F0B60180E290E00E94AF2001
:10305000FA94F7CF222029F0B601822D90E00E9449
:10306000AF2033FC09C0FF2039F0B60180E390E0C7
:103070000E94AF20FA94F7CF37FE5AC0942D852DC9
:1030800057FE02C090E080E0292E382E20E030E08C
:10309000A2014E1951095D874C87A20142195309BB
:1030A0005F874E87612F70E044275527461B570BDB
:1030B000598B488B5FEF2516350649F4B6018EE231
:1030C00090E02A8B3B8B0E94AF203B892A894214D7
:1030D00053046CF04C855D854215530544F4EE8530
:1030E000FF85E20FF31FE60DF71D818101C080E32C
:1030F00051E0251A31082F5F3F4F4889598924161E
:1031000035064CF0B60190E02A8B3B8B0E94AF2035
:103110002A893B89CFCF2414350439F49A81963318
:1031200018F4953311F404FF81E3B60190E04BC02D
:103130008A81813309F00F7EB60190E00E94AF20B2
:10314000111105C034FC18C085E690E017C0B60127
:103150008EE290E00E94AF2082E0EE24E394E80E3D
:10316000F301E80FF11D8081B60190E00E94AF20CD
:1031700011508E2D91F7E6CF85E490E0B6010E94C4
:10318000AF2057FC05C04114510439F404FF05C0B9
:103190005194419451088DE201C08BE2B60190E058
:1031A0000E94AF2080E39AE0491651042CF08F5F13
:1031B0005AE0451A5108F7CFB60190E00E94AF20BF
:1031C000B601C201C0960E94AF2057C1833631F0CC
:1031D000833779F0833509F058C021C05201E2E00D
:1031E000AE0EB11CF2018081898301E010E0230161
:1031F00014C05201F2E0AF0EB11CF20140805180C8
:1032000026FF03C0612F70E002C06FEF7FEFC201A5
:103210002A8B0E94A4208C012A892F7715C0520185
:10322000F2E0AF0EB11CF2014080518026FF03C0D6
:10323000612F70E002C06FEF7FEFC2012A8B0E9406
:1032400099208C012A892068322E23FD1AC08F2DE7
:1032500090E008171907A8F4B60180E290E00E94F8
:10326000AF20FA94F4CFF20137FC859137FE8191BB
:103270002F01B60190E00E94AF20F110FA940150A6
:1032800011090115110579F7F8C0843611F0893656
:1032900059F5520127FF09C0F4E0AF0EB11CF2014D
:1032A00060817181828193810AC0F2E0AF0EB11C0E
:1032B000F20160817181072E000C880B990B2F762B
:1032C000322E97FF09C090958095709561957F4F3C
:1032D0008F4F9F4F2068322E2AE030E0A3010E94DA
:1032E0001721E82EE6183FC0022F853721F40F7E04
:1032F0002AE030E01DC0097F8F3691F018F4883540
:1033000059F0C5C0803719F0883711F0C0C000618E
:1033100004FF09C0046007C024FF08C0066006C09F
:1033200028E030E005C020E130E002C020E132E0DA
:10333000520107FF09C0F4E0AF0EB11CF201608139
:1033400071818281938108C0F2E0AF0EB11CF2015D
:103350006081718180E090E0A3010E941721E82E36
:10336000E6180F77302E36FE0BC0332D3E7FE11668
:1033700050F434FE0AC032FC08C0332D3E7E05C036
:103380000E2D332D03C00E2D01C0012F34FF0CC0B4
:10339000FE01EE0DF11D8081803311F4397E08C0ED
:1033A00032FF05C00E5F04C0832F867809F00F5FDF
:1033B00033FD13C030FF06C01E2D0F1518F41F0D6E
:1033C000101B0F2D0F1568F4B60180E290E03B8BC7
:1033D0000E94AF200F5F3B89F5CF0F1510F4F01A54
:1033E00001C0F12C34FF12C0B60180E390E03B8BAA
:1033F0000E94AF203B8932FF17C031FD03C088E730
:1034000090E002C088E590E0B6010CC0832F86787A
:1034100059F031FF02C08BE201C080E237FD8DE23E
:10342000B60190E00E94AF20E11638F4B60180E3C7
:1034300090E00E94AF201150F7CFEA94F301EE0D17
:10344000F11D8081B60190E00E94AF20E110F5CF20
:1034500014C0F4E0FF1558F584E0F81A33FE1EC0DE
:10346000211026C003FF2AC00EEF10E0F32DF071EB
:103470003F2EF8018491811124C0FF2009F4E5CC8E
:10348000B60180E290E00E94AF20FA94F6CFF601F8
:103490008681978126C08FEF9FEF23C0B60180E21F
:1034A00090E00E94AF20FA94F110F8CFD9CFF12C20
:1034B000B601822D90E00E94AF20D4CF02E011E04F
:1034C000D5CF31108052B60190E00E94AF200F5F3F
:1034D0001F4FCFCF23E02F1510F483E0BECFF12C88
:1034E000C1CF6396E2E10C946A1E0E94891A0C9483
:1034F0003B1B0E94341B58F00E942D1B40F029F406
:103500005F3F29F00C94241B51110C946F1B0C94F9
:103510002A1B0E944C1B68F39923B1F3552391F3A6
:10352000951B550BBB27AA2762177307840738F032
:103530009F5F5F4F220F331F441FAA1FA9F335D08F
:103540000E2E3AF0E0E832D091505040E695001C43
:10355000CAF72BD0FE2F29D0660F771F881FBB1FFD
:10356000261737074807AB07B0E809F0BB0B802DDB
:10357000BF01FF2793585F4F3AF09E3F510578F007
:103580000C94241B0C946F1B5F3FE4F3983ED4F320
:10359000869577956795B795F7959F5FC9F7880FDB
:1035A000911D9695879597F90895E1E0660F771F2D
:1035B000881FBB1F621773078407BA0720F0621BBE
:1035C000730B840BBA0BEE1F88F7E0950895E8940F
:1035D00009C097FB3EF490958095709561957F4F5B
:1035E0008F4F9F4F9923A9F0F92F96E9BB27939509
:1035F000F695879577956795B795F111F8CFFAF419
:10360000BB0F11F460FF1BC06F5F7F4F8F4F9F4F49
:1036100016C0882311F096E911C0772321F09EE8A7
:10362000872F762F05C0662371F096E8862F70E00D
:1036300060E02AF09A95660F771F881FDAF7880FE7
:103640009695879597F9089597F99F6780E870E0B8
:1036500060E008959FEF80EC089500240A94161608
:10366000170618060906089500240A941216130670
:10367000140605060895092E0394000C11F48823FE
:1036800052F0BB0F40F4BF2B11F460FF04C06F5F1A
:103690007F4F8F4F9F4F089557FD9058440F551FF0
:1036A00059F05F3F71F04795880F97FB991F61F0C4
:1036B0009F3F79F087950895121613061406551F3B
:1036C000F2CF4695F1DF08C0161617061806991FA7
:1036D000F1CF86957105610508940895E894BB279C
:1036E00066277727CB0197F908950E94541BA8F10C
:1036F0009E57B0F1985160F039F1983070F5092E6D
:103700009927660F771F881F991F0A94D1F71CC04D
:10371000BB27993F4CF4B111B1E0B62B672F782F3E
:103720008827985FB1F708C0869577956795B79514
:1037300008F4B1609395C1F7BB0F30F411F460FF4A
:1037400003C06F5F7F4F8F4F3EF4909580957095CB
:1037500061957F4F8F4F9F4F089568940C946F1B16
:103760000C946E1B0E94C51B0C943B1B0E942D1BCE
:1037700038F00E94341B20F0952311F00C94241B88
:103780000C942A1B11240C946F1B0E944C1B70F389
:10379000959FC1F3950F50E0551F629FF001729FF6
:1037A000BB27F00DB11D639FAA27F00DB11DAA1F05
:1037B000649F6627B00DA11D661F829F2227B00D52
:1037C000A11D621F739FB00DA11D621F839FA00DDD
:1037D000611D221F749F3327A00D611D231F849F2D
:1037E000600D211D822F762F6A2F11249F57504084
:1037F0009AF0F1F088234AF0EE0FFF1FBB1F661FFF
:10380000771F881F91505040A9F79E3F510580F0C7
:103810000C94241B0C946F1B5F3FE4F3983ED4F38D
:10382000869577956795B795F795E7959F5FC1F76B
:10383000FE2B880F911D9695879597F90895FA01AB
:10384000EE0FFF1F309621053105A1F161157105BD
:1038500061F48038BFE39B0749F168949038810593
:1038600061F08038BFEF9B0741F099234AF5FF3F95
:10387000E1053105210519F1E8940894E795D9018E
:10388000AA2329F4AB2FBE2FF85FD0F310C0FF5F3F
:1038900070F4A695E0F7F73950F019F0FF3A38F4D4
:1038A0009F779F930DD00F9007FC9058089546F096
:1038B0000C942A1B60E070E080E89FE308954FE7D6
:1038C0009F775F934F933F932F930E941A1D2F91E1
:1038D0003F914F915F910E94B21B0C94771C29F489
:1038E00016F00C94241B0C946E1B0C942A1B0E9443
:1038F000541BA8F39638A0F707F80F92E8942BE32F
:103900003AEA48EB5FE70E94C81B0F920F920F92B2
:103910004DB75EB70F920E94621DECE7F0E00E9487
:10392000A91C4F915F91EF91FF91E595EE1FFF1F4D
:1039300049F0FE57E0684427EE0F441FFA95E1F77F
:103940004195550B0E94DC1C0F9007FE0C94D01C77
:103950000895DF93CF931F930F93FF92EF92DF921F
:103960007B018C01689406C0DA2EEF010E94C51B12
:10397000FE01E894A5912591359145915591A6F3C5
:10398000EF010E94AE1DFE019701A801DA9469F7CC
:10399000DF90EF90FF900F911F91CF91DF910895ED
:1039A0009B01AC0160E070E080E89FE30C94751A25
:1039B0000C94241B0C94031E0E94541BD8F39923CF
:1039C000C9F3940F511DA3F39150504094F059F056
:1039D000882332F0660F771F881F91505040C1F73F
:1039E0009E3F51052CF7880F911D9695879597F965
:1039F00008955F3FACF0983E9CF0BB278695779585
:103A00006795B79508F4B1609395C1F7BB0F58F768
:103A100011F460FFE8CF6F5F7F4F8F4F9F4FE3CF71
:103A20000C946F1B16F00C94031E0C942A1B6894C4
:103A30000C94241B0E94541BA8F39923C1F3AEF3EA
:103A4000DF93CF931F930F93FF92C92FDD27882316
:103A50002AF02197660F771F881FDAF720E030E001
:103A600040E85FEB9FE3883920F0803E38F02196F4
:103A70008F770E94971DE4EAF0E004C00E94971D32
:103A8000E1EDF0E00E94A91C8B01BE01EC01FB2ED0
:103A90006F5771097595771F880B990B0E94E91A6A
:103AA00028E132E741E35FE30E94C51BAF2D980197
:103AB000AE01FF900F911F91CF91DF910E94AE1D3B
:103AC0000C943B1BFA01DC01AA0FBB1F9B01AC014C
:103AD000BF5728F4222733274427507820C0B751F6
:103AE00090F4AB2F0024469537952795011CA3959C
:103AF000D2F3002071F0220F331F441FB395DAF385
:103B00000ED00C94961D61307105A0E88A07B94665
:103B100030F49B01AC016627772788279078309690
:103B200021F0208331834283538308955058BB276B
:103B3000AA270E94AE1D0C943B1B0E942D1B38F03F
:103B40000E94341B20F039F49F3F19F426F40C94A2
:103B50002A1B0EF4E095E7FB0C94241BE92F0E942E
:103B60004C1B58F3BA17620773078407950720F0B8
:103B700079F4A6F50C946E1B0EF4E0950B2EBA2F7B
:103B8000A02D0B01B90190010C01CA01A001112463
:103B9000FF27591B99F0593F50F4503E68F11A160F
:103BA000F040A22F232F342F4427585FF3CF4695A0
:103BB00037952795A795F0405395C9F77EF41F16C2
:103BC000BA0B620B730B840BBAF09150A1F0FF0F8C
:103BD000BB1F661F771F881FC2F70EC0BA0F621F78
:103BE000731F841F48F4879577956795B795F79568
:103BF0009E3F08F0B0CF9395880F08F09927EE0FFD
:103C00009795879508959F3F31F0915020F48795BF
:103C100077956795B795880F911D9695879597F934
:103C20000895DB018F939F930E94431EBF91AF9134
:103C3000A29F800D911DA39F900DB29F900D112406
:103C40000895A1E21A2EAA1BBB1BFD010DC0AA1FDD
:103C5000BB1FEE1FFF1FA217B307E407F50720F0F5
:103C6000A21BB30BE40BF50B661F771F881F991F70
:103C70001A9469F760957095809590959B01AC01B9
:103C8000BD01CF0108950E94851EA59F900DB49F90
:103C9000900DA49F800D911D112408952F923F92A5
:103CA0004F925F926F927F928F929F92AF92BF924C
:103CB000CF92DF92EF92FF920F931F93CF93DF93F8
:103CC000CDB7DEB7CA1BDB0B0FB6F894DEBF0FBE55
:103CD000CDBF09942A88398848885F846E847D84A2
:103CE0008C849B84AA84B984C884DF80EE80FD80A4
:103CF0000C811B81AA81B981CE0FD11D0FB6F8941A
:103D0000DEBF0FBECDBFED010895A29FB001B39FEE
:103D1000C001A39F700D811D1124911DB29F700DD4
:103D2000811D1124911D0895CF93DF938230910559
:103D300010F482E090E0E091F902F091FA0220E0C4
:103D400030E0C0E0D0E0309711F140815181481758
:103D50005907C0F04817590761F482819381209771
:103D600019F09B838A832BC09093FA028093F90207
:103D700026C02115310519F04217530718F49A018E
:103D8000BE01DF01EF010280F381E02DDCCF2115C0
:103D9000310509F1281B390B2430310590F41296B6
:103DA0008D919C9113976115710521F0FB0193830F
:103DB000828304C09093FA028093F902FD01329647
:103DC00044C0FD01E20FF31F81939193225031090A
:103DD0002D933C933AC02091F7023091F802232BA7
:103DE00041F420911C0130911D013093F802209381
:103DF000F70220911A0130911B012115310541F480
:103E00002DB73EB740911E0150911F01241B350B69
:103E1000E091F702F091F802E217F307A0F42E1BED
:103E20003F0B2817390778F0AC014E5F5F4F24171E
:103E3000350748F04E0F5F1F5093F8024093F7028A
:103E40008193919302C0E0E0F0E0CF01DF91CF9148
:103E500008950F931F93CF93DF93009709F48CC0BD
:103E6000FC013297138212820091F9021091FA023A
:103E70000115110581F420813181820F931F20915A
:103E8000F7023091F8022817390779F5F093F80214
:103E9000E093F70271C0D80140E050E0AE17BF07D1
:103EA00050F412962D913C911397AD0121153105D7
:103EB00009F1D901F3CF9D01DA01338322836081B7
:103EC0007181860F971F8217930769F4EC0128818F
:103ED0003981260F371F2E5F3F4F318320838A8120
:103EE0009B8193838283452B29F4F093FA02E0931C
:103EF000F90242C01396FC93EE931297ED0149919B
:103F000059919E01240F351FE217F30771F4808148
:103F10009181840F951F029611969C938E938281B6
:103F2000938113969C938E931297E0E0F0E0D80172
:103F300012968D919C911397009719F0F8018C01BE
:103F4000F6CF8D919C9198012E5F3F4F820F931F6A
:103F50002091F7023091F8022817390769F4309759
:103F600029F41092FA021092F90202C0138212820E
:103F70001093F8020093F702DF91CF911F910F91F8
:103F80000895283008F027E03327DA01990F311D12
:103F900087FD916000966105710539F432602E5FEE
:103FA0003D9330E32A95E1F708959F3F30F0803844
:103FB0007105610509F03C5F3C5F3D93913008F06D
:103FC0008068911DDF93CF931F930F93FF92EF9221
:103FD000192F987F9695E92F96959695E90FFF27CB
:103FE000E05AFE4F99273327EE24FF24A701E7016B
:103FF00005900894079428F4360FE71EF81E491F11
:10400000511D660F771F881F991F0694A1F7059011
:10401000079428F4E70EF81E491F561FC11D770F9D
:10402000881F991F661F0694A1F70590079428F42E
:10403000F80E491F561FC71FD11D880F991F661FF5
:10404000771F0694A1F70590079420F4490F561F97
:10405000C71FD81F990F661F771F881F0694A9F7DF
:1040600084911095177041F0D695C795579547954F
:10407000F794E7941A95C1F7E6E0F1E0689415909B
:10408000159135916591959105907FE27395E118B1
:10409000F10A430B560BC90BD009C0F7E10CF11E16
:1040A000431F561FC91FD01D7EF4703311F48A952B
:1040B000E6CFE894015030F0080F0AF40027021709
:1040C00008F4202F2395022F7A3328F079E37D938B
:1040D0002A95E9F710C07D932A9589F6069497955D
:1040E0006795379517951794E118F10A430B560B0E
:1040F000C90BD00998F023957E9173957A3308F017
:1041000070E37C932013B8F77E9170617D9330F05B
:10411000839571E37D9370E32A95E1F71124EF9085
:10412000FF900F911F91CF91DF91992787FD909577
:104130000895FC010590615070400110D8F78095FA
:1041400090958E0F9F1F0895FC0161507040019063
:104150000110D8F7809590958E0F9F1F08950F93AB
:104160001F93CF93DF93FB01238121FD03C08FEFCA
:104170009FEF28C022FF16C04681578124813581D8
:104180004217530744F4A081B1819D012F5F3F4F37
:10419000318320838C93268137812F5F3F4F378374
:1041A000268310C0EB01092F182F0084F185E02D24
:1041B0000995892BE1F68E819F8101969F838E83DD
:1041C000812F902FDF91CF911F910F9108950F9321
:1041D0001F93CF93DF93E091FD02F091FE022381C4
:1041E00021FF1BC08C01D0E0C0E0F80181918F015C
:1041F0006091FD027091FE02DB011896ED91FC9139
:104200001997882331F00995892B79F3DFEFCFEFE8
:10421000ECCF8AE00995892B19F08FEF9FEF02C050
:104220008D2F9C2FDF91CF911F910F910895FA014F
:10423000AA27283051F1203181F1E8946F936E7FE5
:104240006E5F7F4F8F4F9F4FAF4FB1E03ED0B4E0D6
:104250003CD0670F781F891F9A1FA11D680F791F17
:104260008A1F911DA11D6A0F711D811D911DA11D28
:1042700020D009F468943F912AE0269F1124301938
:10428000305D3193DEF6CF010895462F4770405DD3
:104290004193B3E00FD0C9F7F6CF462F4F70405D82
:1042A0004A3318F0495D31FD4052419302D0A9F7DD
:1042B000EACFB4E0A6959795879577956795BA95D7
:1042C000C9F700976105710508959B01AC010A2E9D
:1042D00006945795479537952795BA95C9F7620F74
:0E42E000731F841F951FA01D0895F894FFCF33
:1042EE000201030300000002000000002B0B00007F
:1042FE000000180C041060C0802000000103200094
:10430E005374617274696E672E2E2E004578706C30
:10431E006F72696E672E2E2E0041766F6964696E1C
:10432E00672E2E2E00466F6C6C6F77696E672E2E81
:10433E002E00556E6B6E6F776E20737461746521EF
:10434E000043656E74203D20282025642C202564B2
:10435E0020290900773A2025642C20683A2025640C
:10436E000900736967233A202564090041564F49B5
:10437E0044494E472E2E2E005072657373205333D0
:10438E0020746F20626567696E00464154414C3A55
:0E439E002050697879206661696C65642E0094
:00000001FF
